{
  "contractName": "EthPool",
  "abi": [
    {
      "anonymous": false,
      "inputs": [
        {
          "indexed": false,
          "name": "recipient",
          "type": "address"
        },
        {
          "indexed": false,
          "name": "value",
          "type": "uint256"
        }
      ],
      "name": "Deposit",
      "type": "event",
      "signature": "0xe1fffcc4923d04b559f4d29a8bfc6cda04eb5b0d3c460751c2402c5c5cc9109c"
    },
    {
      "anonymous": false,
      "inputs": [
        {
          "indexed": false,
          "name": "account",
          "type": "address"
        },
        {
          "indexed": false,
          "name": "value",
          "type": "uint256"
        }
      ],
      "name": "Withdraw",
      "type": "event",
      "signature": "0x884edad9ce6fa2440d8a54cc123490eb96d2768479d49ff9c7366125a9424364"
    },
    {
      "anonymous": false,
      "inputs": [
        {
          "indexed": true,
          "name": "from",
          "type": "address"
        },
        {
          "indexed": true,
          "name": "to",
          "type": "address"
        },
        {
          "indexed": false,
          "name": "value",
          "type": "uint256"
        }
      ],
      "name": "Transfer",
      "type": "event",
      "signature": "0xddf252ad1be2c89b69c2b068fc378daa952ba7f163c4a11628f55a4df523b3ef"
    },
    {
      "anonymous": false,
      "inputs": [
        {
          "indexed": true,
          "name": "owner",
          "type": "address"
        },
        {
          "indexed": true,
          "name": "spender",
          "type": "address"
        },
        {
          "indexed": false,
          "name": "value",
          "type": "uint256"
        }
      ],
      "name": "Approval",
      "type": "event",
      "signature": "0x8c5be1e5ebec7d5bd14f71427d1e84f3dd0314c0f7b2291e5b200ac8c7c3b925"
    },
    {
      "constant": false,
      "inputs": [
        {
          "name": "recipient",
          "type": "address"
        }
      ],
      "name": "deposit",
      "outputs": [],
      "payable": true,
      "stateMutability": "payable",
      "type": "function",
      "signature": "0xf340fa01"
    },
    {
      "constant": false,
      "inputs": [
        {
          "name": "value",
          "type": "uint256"
        }
      ],
      "name": "withdraw",
      "outputs": [],
      "payable": false,
      "stateMutability": "nonpayable",
      "type": "function",
      "signature": "0x2e1a7d4d"
    },
    {
      "constant": false,
      "inputs": [
        {
          "name": "spender",
          "type": "address"
        },
        {
          "name": "value",
          "type": "uint256"
        }
      ],
      "name": "approve",
      "outputs": [
        {
          "name": "",
          "type": "bool"
        }
      ],
      "payable": false,
      "stateMutability": "nonpayable",
      "type": "function",
      "signature": "0x095ea7b3"
    },
    {
      "constant": false,
      "inputs": [
        {
          "name": "from",
          "type": "address"
        },
        {
          "name": "to",
          "type": "address"
        },
        {
          "name": "value",
          "type": "uint256"
        }
      ],
      "name": "transferFrom",
      "outputs": [
        {
          "name": "",
          "type": "bool"
        }
      ],
      "payable": false,
      "stateMutability": "nonpayable",
      "type": "function",
      "signature": "0x23b872dd"
    },
    {
      "constant": false,
      "inputs": [
        {
          "name": "spender",
          "type": "address"
        },
        {
          "name": "addedValue",
          "type": "uint256"
        }
      ],
      "name": "increaseAllowance",
      "outputs": [
        {
          "name": "",
          "type": "bool"
        }
      ],
      "payable": false,
      "stateMutability": "nonpayable",
      "type": "function",
      "signature": "0x39509351"
    },
    {
      "constant": false,
      "inputs": [
        {
          "name": "spender",
          "type": "address"
        },
        {
          "name": "subtractedValue",
          "type": "uint256"
        }
      ],
      "name": "decreaseAllowance",
      "outputs": [
        {
          "name": "",
          "type": "bool"
        }
      ],
      "payable": false,
      "stateMutability": "nonpayable",
      "type": "function",
      "signature": "0xa457c2d7"
    },
    {
      "constant": true,
      "inputs": [
        {
          "name": "owner",
          "type": "address"
        }
      ],
      "name": "balanceOf",
      "outputs": [
        {
          "name": "",
          "type": "uint256"
        }
      ],
      "payable": false,
      "stateMutability": "view",
      "type": "function",
      "signature": "0x70a08231"
    },
    {
      "constant": true,
      "inputs": [
        {
          "name": "owner",
          "type": "address"
        },
        {
          "name": "spender",
          "type": "address"
        }
      ],
      "name": "allowance",
      "outputs": [
        {
          "name": "",
          "type": "uint256"
        }
      ],
      "payable": false,
      "stateMutability": "view",
      "type": "function",
      "signature": "0xdd62ed3e"
    }
  ],
  "bytecode": "0x608060405234801561001057600080fd5b5061111b806100206000396000f3fe60806040526004361061008e576000357c0100000000000000000000000000000000000000000000000000000000900463ffffffff168063095ea7b31461009357806323b872dd146101065780632e1a7d4d1461019957806339509351146101d457806370a0823114610247578063a457c2d7146102ac578063dd62ed3e1461031f578063f340fa01146103a4575b600080fd5b34801561009f57600080fd5b506100ec600480360360408110156100b657600080fd5b81019080803573ffffffffffffffffffffffffffffffffffffffff169060200190929190803590602001909291905050506103e8565b604051808215151515815260200191505060405180910390f35b34801561011257600080fd5b5061017f6004803603606081101561012957600080fd5b81019080803573ffffffffffffffffffffffffffffffffffffffff169060200190929190803573ffffffffffffffffffffffffffffffffffffffff16906020019092919080359060200190929190505050610515565b604051808215151515815260200191505060405180910390f35b3480156101a557600080fd5b506101d2600480360360208110156101bc57600080fd5b810190808035906020019092919050505061071d565b005b3480156101e057600080fd5b5061022d600480360360408110156101f757600080fd5b81019080803573ffffffffffffffffffffffffffffffffffffffff169060200190929190803590602001909291905050506108b2565b604051808215151515815260200191505060405180910390f35b34801561025357600080fd5b506102966004803603602081101561026a57600080fd5b81019080803573ffffffffffffffffffffffffffffffffffffffff169060200190929190505050610ae9565b6040518082815260200191505060405180910390f35b3480156102b857600080fd5b50610305600480360360408110156102cf57600080fd5b81019080803573ffffffffffffffffffffffffffffffffffffffff16906020019092919080359060200190929190505050610b31565b604051808215151515815260200191505060405180910390f35b34801561032b57600080fd5b5061038e6004803603604081101561034257600080fd5b81019080803573ffffffffffffffffffffffffffffffffffffffff169060200190929190803573ffffffffffffffffffffffffffffffffffffffff169060200190929190505050610d68565b6040518082815260200191505060405180910390f35b6103e6600480360360208110156103ba57600080fd5b81019080803573ffffffffffffffffffffffffffffffffffffffff169060200190929190505050610def565b005b60008073ffffffffffffffffffffffffffffffffffffffff168373ffffffffffffffffffffffffffffffffffffffff161415151561042557600080fd5b81600160003373ffffffffffffffffffffffffffffffffffffffff1673ffffffffffffffffffffffffffffffffffffffff16815260200190815260200160002060008573ffffffffffffffffffffffffffffffffffffffff1673ffffffffffffffffffffffffffffffffffffffff168152602001908152602001600020819055508273ffffffffffffffffffffffffffffffffffffffff163373ffffffffffffffffffffffffffffffffffffffff167f8c5be1e5ebec7d5bd14f71427d1e84f3dd0314c0f7b2291e5b200ac8c7c3b925846040518082815260200191505060405180910390a36001905092915050565b60006105a682600160008773ffffffffffffffffffffffffffffffffffffffff1673ffffffffffffffffffffffffffffffffffffffff16815260200190815260200160002060003373ffffffffffffffffffffffffffffffffffffffff1673ffffffffffffffffffffffffffffffffffffffff16815260200190815260200160002054610f2c90919063ffffffff16565b600160008673ffffffffffffffffffffffffffffffffffffffff1673ffffffffffffffffffffffffffffffffffffffff16815260200190815260200160002060003373ffffffffffffffffffffffffffffffffffffffff1673ffffffffffffffffffffffffffffffffffffffff16815260200190815260200160002081905550610631848484610f4e565b3373ffffffffffffffffffffffffffffffffffffffff168473ffffffffffffffffffffffffffffffffffffffff167f8c5be1e5ebec7d5bd14f71427d1e84f3dd0314c0f7b2291e5b200ac8c7c3b925600160008873ffffffffffffffffffffffffffffffffffffffff1673ffffffffffffffffffffffffffffffffffffffff16815260200190815260200160002060003373ffffffffffffffffffffffffffffffffffffffff1673ffffffffffffffffffffffffffffffffffffffff168152602001908152602001600020546040518082815260200191505060405180910390a3600190509392505050565b806000803373ffffffffffffffffffffffffffffffffffffffff1673ffffffffffffffffffffffffffffffffffffffff168152602001908152602001600020541015151561076a57600080fd5b6107bb816000803373ffffffffffffffffffffffffffffffffffffffff1673ffffffffffffffffffffffffffffffffffffffff16815260200190815260200160002054610f2c90919063ffffffff16565b6000803373ffffffffffffffffffffffffffffffffffffffff1673ffffffffffffffffffffffffffffffffffffffff168152602001908152602001600020819055507f884edad9ce6fa2440d8a54cc123490eb96d2768479d49ff9c7366125a94243643382604051808373ffffffffffffffffffffffffffffffffffffffff1673ffffffffffffffffffffffffffffffffffffffff1681526020018281526020019250505060405180910390a13373ffffffffffffffffffffffffffffffffffffffff166108fc829081150290604051600060405180830381858888f193505050501580156108ae573d6000803e3d6000fd5b5050565b60008073ffffffffffffffffffffffffffffffffffffffff168373ffffffffffffffffffffffffffffffffffffffff16141515156108ef57600080fd5b61097e82600160003373ffffffffffffffffffffffffffffffffffffffff1673ffffffffffffffffffffffffffffffffffffffff16815260200190815260200160002060008673ffffffffffffffffffffffffffffffffffffffff1673ffffffffffffffffffffffffffffffffffffffff168152602001908152602001600020546110ce90919063ffffffff16565b600160003373ffffffffffffffffffffffffffffffffffffffff1673ffffffffffffffffffffffffffffffffffffffff16815260200190815260200160002060008573ffffffffffffffffffffffffffffffffffffffff1673ffffffffffffffffffffffffffffffffffffffff168152602001908152602001600020819055508273ffffffffffffffffffffffffffffffffffffffff163373ffffffffffffffffffffffffffffffffffffffff167f8c5be1e5ebec7d5bd14f71427d1e84f3dd0314c0f7b2291e5b200ac8c7c3b925600160003373ffffffffffffffffffffffffffffffffffffffff1673ffffffffffffffffffffffffffffffffffffffff16815260200190815260200160002060008773ffffffffffffffffffffffffffffffffffffffff1673ffffffffffffffffffffffffffffffffffffffff168152602001908152602001600020546040518082815260200191505060405180910390a36001905092915050565b60008060008373ffffffffffffffffffffffffffffffffffffffff1673ffffffffffffffffffffffffffffffffffffffff168152602001908152602001600020549050919050565b60008073ffffffffffffffffffffffffffffffffffffffff168373ffffffffffffffffffffffffffffffffffffffff1614151515610b6e57600080fd5b610bfd82600160003373ffffffffffffffffffffffffffffffffffffffff1673ffffffffffffffffffffffffffffffffffffffff16815260200190815260200160002060008673ffffffffffffffffffffffffffffffffffffffff1673ffffffffffffffffffffffffffffffffffffffff16815260200190815260200160002054610f2c90919063ffffffff16565b600160003373ffffffffffffffffffffffffffffffffffffffff1673ffffffffffffffffffffffffffffffffffffffff16815260200190815260200160002060008573ffffffffffffffffffffffffffffffffffffffff1673ffffffffffffffffffffffffffffffffffffffff168152602001908152602001600020819055508273ffffffffffffffffffffffffffffffffffffffff163373ffffffffffffffffffffffffffffffffffffffff167f8c5be1e5ebec7d5bd14f71427d1e84f3dd0314c0f7b2291e5b200ac8c7c3b925600160003373ffffffffffffffffffffffffffffffffffffffff1673ffffffffffffffffffffffffffffffffffffffff16815260200190815260200160002060008773ffffffffffffffffffffffffffffffffffffffff1673ffffffffffffffffffffffffffffffffffffffff168152602001908152602001600020546040518082815260200191505060405180910390a36001905092915050565b6000600160008473ffffffffffffffffffffffffffffffffffffffff1673ffffffffffffffffffffffffffffffffffffffff16815260200190815260200160002060008373ffffffffffffffffffffffffffffffffffffffff1673ffffffffffffffffffffffffffffffffffffffff16815260200190815260200160002054905092915050565b600073ffffffffffffffffffffffffffffffffffffffff168173ffffffffffffffffffffffffffffffffffffffff1614151515610e2b57600080fd5b610e7c346000808473ffffffffffffffffffffffffffffffffffffffff1673ffffffffffffffffffffffffffffffffffffffff168152602001908152602001600020546110ce90919063ffffffff16565b6000808373ffffffffffffffffffffffffffffffffffffffff1673ffffffffffffffffffffffffffffffffffffffff168152602001908152602001600020819055507fe1fffcc4923d04b559f4d29a8bfc6cda04eb5b0d3c460751c2402c5c5cc9109c8134604051808373ffffffffffffffffffffffffffffffffffffffff1673ffffffffffffffffffffffffffffffffffffffff1681526020018281526020019250505060405180910390a150565b6000828211151515610f3d57600080fd5b600082840390508091505092915050565b600073ffffffffffffffffffffffffffffffffffffffff168273ffffffffffffffffffffffffffffffffffffffff1614151515610f8a57600080fd5b610fdb816000808673ffffffffffffffffffffffffffffffffffffffff1673ffffffffffffffffffffffffffffffffffffffff16815260200190815260200160002054610f2c90919063ffffffff16565b6000808573ffffffffffffffffffffffffffffffffffffffff1673ffffffffffffffffffffffffffffffffffffffff168152602001908152602001600020819055508173ffffffffffffffffffffffffffffffffffffffff168373ffffffffffffffffffffffffffffffffffffffff167fddf252ad1be2c89b69c2b068fc378daa952ba7f163c4a11628f55a4df523b3ef836040518082815260200191505060405180910390a38173ffffffffffffffffffffffffffffffffffffffff166108fc829081150290604051600060405180830381858888f193505050501580156110c8573d6000803e3d6000fd5b50505050565b60008082840190508381101515156110e557600080fd5b809150509291505056fea165627a7a7230582014e7b8c3560bb098c478b277b5106920a62e4ed43199114b2223f4ef7ffcd3c80029",
  "source": "pragma solidity ^0.5.0;\n\nimport \"../lib/IEthPool.sol\";\nimport \"openzeppelin-solidity/contracts/math/SafeMath.sol\";\n\n/**\n * @title ETH Pool providing an ERC20 like interface\n * @notice Implementation of an ERC20 like pool for native ETH.\n * @notice Originally based on code of ERC20 by openzeppelin-solidity v2.1.2\n *   https://github.com/OpenZeppelin/openzeppelin-solidity/blob/v2.1.2/contracts/token/ERC20/ERC20.sol\n */\ncontract EthPool is IEthPool {\n    using SafeMath for uint;\n\n    mapping (address => uint) private _balances;\n\n    mapping (address => mapping (address => uint)) private _allowed;\n\n    /**\n     * @notice Deposit ETH to ETH Pool\n     * @param recipient the address ETH is deposited to\n     */\n    function deposit(address recipient) public payable {\n        require(recipient != address(0));\n\n        _balances[recipient] = _balances[recipient].add(msg.value);\n        emit Deposit(recipient, msg.value);\n    }\n\n    /**\n     * @notice Withdraw ETH from ETH Pool\n     * @param value the amount of ETH to withdraw\n     */\n    function withdraw(uint value) public {\n        require(_balances[msg.sender] >= value);\n\n        _balances[msg.sender] = _balances[msg.sender].sub(value);\n        emit Withdraw(msg.sender, value);\n        msg.sender.transfer(value);\n    }\n\n    /**\n     * @notice Approve the passed address to spend the specified amount of ETH on behalf of msg.sender.\n     * @notice Beware that changing an allowance with this method brings the risk that someone may use both the old\n     *   and the new allowance by unfortunate transaction ordering. One possible solution to mitigate this\n     *   race condition is to first reduce the spender's allowance to 0 and set the desired value afterwards:\n     *   https://github.com/ethereum/EIPs/issues/20#issuecomment-263524729\n     * @param spender The address which will spend the funds.\n     * @param value The amount of ETH to be spent.\n     */\n    function approve(address spender, uint value) public returns (bool) {\n        require(spender != address(0));\n\n        _allowed[msg.sender][spender] = value;\n        emit Approval(msg.sender, spender, value);\n        return true;\n    }\n\n    /**\n     * @notice Transfer ETH from one address to another.\n     * @notice Note that while this function emits an Approval event, this is not required as per the specification.\n     * @param from address The address which you want to send ETH from\n     * @param to address The address which you want to transfer to\n     * @param value uint the amount of ETH to be transferred\n     */\n    function transferFrom(address from, address payable to, uint value) public returns (bool) {\n        _allowed[from][msg.sender] = _allowed[from][msg.sender].sub(value);\n        _transfer(from, to, value);\n        emit Approval(from, msg.sender, _allowed[from][msg.sender]);\n        return true;\n    }\n\n    /**\n     * @notice Increase the amount of ETH that an owner allowed to a spender.\n     * @notice approve should be called when allowed_[_spender] == 0. To increment\n     *   allowed value is better to use this function to avoid 2 calls (and wait until\n     *   the first transaction is mined)\n     *   From MonolithDAO Token.sol\n     *   Emits an Approval event.\n     * @param spender The address which will spend the funds.\n     * @param addedValue The amount of ETH to increase the allowance by.\n     */\n    function increaseAllowance(address spender, uint addedValue) public returns (bool) {\n        require(spender != address(0));\n\n        _allowed[msg.sender][spender] = _allowed[msg.sender][spender].add(addedValue);\n        emit Approval(msg.sender, spender, _allowed[msg.sender][spender]);\n        return true;\n    }\n\n    /**\n     * @notice Decrease the amount of ETH that an owner allowed to a spender.\n     * @notice approve should be called when allowed_[_spender] == 0. To decrement\n     *   allowed value is better to use this function to avoid 2 calls (and wait until\n     *   the first transaction is mined)\n     *   From MonolithDAO Token.sol\n     *   Emits an Approval event.\n     * @param spender The address which will spend the funds.\n     * @param subtractedValue The amount of ETH to decrease the allowance by.\n     */\n    function decreaseAllowance(address spender, uint subtractedValue) public returns (bool) {\n        require(spender != address(0));\n\n        _allowed[msg.sender][spender] = _allowed[msg.sender][spender].sub(subtractedValue);\n        emit Approval(msg.sender, spender, _allowed[msg.sender][spender]);\n        return true;\n    }\n\n    /**\n    * @notice Transfer ETH for a specified addresses\n    * @param from The address to transfer from.\n    * @param to The address to transfer to.\n    * @param value The amount to be transferred.\n    */\n    function _transfer(address from, address payable to, uint value) internal {\n        require(to != address(0));\n\n        _balances[from] = _balances[from].sub(value);\n        emit Transfer(from, to, value);\n        to.transfer(value);\n    }\n\n    /**\n    * @notice Gets the balance of the specified address.\n    * @param owner The address to query the balance of.\n    * @return An uint representing the amount owned by the passed address.\n    */\n    function balanceOf(address owner) public view returns (uint) {\n        return _balances[owner];\n    }\n\n    /**\n     * @notice Function to check the amount of ETH that an owner allowed to a spender.\n     * @param owner address The address which owns the funds.\n     * @param spender address The address which will spend the funds.\n     * @return A uint specifying the amount of ETH still available for the spender.\n     */\n    function allowance(address owner, address spender) public view returns (uint) {\n        return _allowed[owner][spender];\n    }\n}\n",
  "sourcePath": "/Users/zhuxuefeng/mygit/celer/cEconomy/contracts/helper/EthPool.sol",
  "compiler": {
    "name": "solc",
    "version": "0.5.0+commit.1d4f565a.Emscripten.clang"
  },
  "schemaVersion": "3.0.1",
  "updatedAt": "2019-05-23T21:21:25.495Z",
  "devdoc": {
    "methods": {
      "allowance(address,address)": {
        "params": {
          "owner": "address The address which owns the funds.",
          "spender": "address The address which will spend the funds."
        },
        "return": "A uint specifying the amount of ETH still available for the spender."
      },
      "approve(address,uint256)": {
        "params": {
          "spender": "The address which will spend the funds.",
          "value": "The amount of ETH to be spent."
        }
      },
      "balanceOf(address)": {
        "params": {
          "owner": "The address to query the balance of."
        },
        "return": "An uint representing the amount owned by the passed address."
      },
      "decreaseAllowance(address,uint256)": {
        "params": {
          "spender": "The address which will spend the funds.",
          "subtractedValue": "The amount of ETH to decrease the allowance by."
        }
      },
      "deposit(address)": {
        "params": {
          "recipient": "the address ETH is deposited to"
        }
      },
      "increaseAllowance(address,uint256)": {
        "params": {
          "addedValue": "The amount of ETH to increase the allowance by.",
          "spender": "The address which will spend the funds."
        }
      },
      "transferFrom(address,address,uint256)": {
        "params": {
          "from": "address The address which you want to send ETH from",
          "to": "address The address which you want to transfer to",
          "value": "uint the amount of ETH to be transferred"
        }
      },
      "withdraw(uint256)": {
        "params": {
          "value": "the amount of ETH to withdraw"
        }
      }
    },
    "title": "ETH Pool providing an ERC20 like interface"
  },
  "userdoc": {
    "methods": {
      "allowance(address,address)": {
        "notice": "Function to check the amount of ETH that an owner allowed to a spender."
      },
      "approve(address,uint256)": {
        "notice": "Approve the passed address to spend the specified amount of ETH on behalf of msg.sender.Beware that changing an allowance with this method brings the risk that someone may use both the old  and the new allowance by unfortunate transaction ordering. One possible solution to mitigate this  race condition is to first reduce the spender's allowance to 0 and set the desired value afterwards:  https://github.com/ethereum/EIPs/issues/20#issuecomment-263524729"
      },
      "balanceOf(address)": {
        "notice": "Gets the balance of the specified address."
      },
      "decreaseAllowance(address,uint256)": {
        "notice": "Decrease the amount of ETH that an owner allowed to a spender.approve should be called when allowed_[_spender] == 0. To decrement  allowed value is better to use this function to avoid 2 calls (and wait until  the first transaction is mined)  From MonolithDAO Token.sol  Emits an Approval event."
      },
      "deposit(address)": {
        "notice": "Deposit ETH to ETH Pool"
      },
      "increaseAllowance(address,uint256)": {
        "notice": "Increase the amount of ETH that an owner allowed to a spender.approve should be called when allowed_[_spender] == 0. To increment  allowed value is better to use this function to avoid 2 calls (and wait until  the first transaction is mined)  From MonolithDAO Token.sol  Emits an Approval event."
      },
      "transferFrom(address,address,uint256)": {
        "notice": "Transfer ETH from one address to another.Note that while this function emits an Approval event, this is not required as per the specification."
      },
      "withdraw(uint256)": {
        "notice": "Withdraw ETH from ETH Pool"
      }
    },
    "notice": "Implementation of an ERC20 like pool for native ETH.Originally based on code of ERC20 by openzeppelin-solidity v2.1.2  https://github.com/OpenZeppelin/openzeppelin-solidity/blob/v2.1.2/contracts/token/ERC20/ERC20.sol"
  }
}