{
  "contractName": "LiBA",
  "abi": [
    {
      "constant": false,
      "inputs": [
        {
          "name": "account",
          "type": "address"
        }
      ],
      "name": "addWhitelisted",
      "outputs": [],
      "payable": false,
      "stateMutability": "nonpayable",
      "type": "function"
    },
    {
      "constant": false,
      "inputs": [
        {
          "name": "account",
          "type": "address"
        }
      ],
      "name": "removeWhitelisted",
      "outputs": [],
      "payable": false,
      "stateMutability": "nonpayable",
      "type": "function"
    },
    {
      "constant": false,
      "inputs": [
        {
          "name": "payee",
          "type": "address"
        }
      ],
      "name": "withdrawPayments",
      "outputs": [],
      "payable": false,
      "stateMutability": "nonpayable",
      "type": "function"
    },
    {
      "constant": true,
      "inputs": [
        {
          "name": "account",
          "type": "address"
        }
      ],
      "name": "isWhitelisted",
      "outputs": [
        {
          "name": "",
          "type": "bool"
        }
      ],
      "payable": false,
      "stateMutability": "view",
      "type": "function"
    },
    {
      "constant": false,
      "inputs": [],
      "name": "unpause",
      "outputs": [],
      "payable": false,
      "stateMutability": "nonpayable",
      "type": "function"
    },
    {
      "constant": true,
      "inputs": [
        {
          "name": "account",
          "type": "address"
        }
      ],
      "name": "isPauser",
      "outputs": [
        {
          "name": "",
          "type": "bool"
        }
      ],
      "payable": false,
      "stateMutability": "view",
      "type": "function"
    },
    {
      "constant": false,
      "inputs": [],
      "name": "renounceWhitelistAdmin",
      "outputs": [],
      "payable": false,
      "stateMutability": "nonpayable",
      "type": "function"
    },
    {
      "constant": true,
      "inputs": [],
      "name": "paused",
      "outputs": [
        {
          "name": "",
          "type": "bool"
        }
      ],
      "payable": false,
      "stateMutability": "view",
      "type": "function"
    },
    {
      "constant": true,
      "inputs": [
        {
          "name": "",
          "type": "address"
        }
      ],
      "name": "supportedTokens",
      "outputs": [
        {
          "name": "",
          "type": "bool"
        }
      ],
      "payable": false,
      "stateMutability": "view",
      "type": "function"
    },
    {
      "constant": false,
      "inputs": [],
      "name": "renouncePauser",
      "outputs": [],
      "payable": false,
      "stateMutability": "nonpayable",
      "type": "function"
    },
    {
      "constant": false,
      "inputs": [],
      "name": "renounceOwnership",
      "outputs": [],
      "payable": false,
      "stateMutability": "nonpayable",
      "type": "function"
    },
    {
      "constant": false,
      "inputs": [
        {
          "name": "account",
          "type": "address"
        }
      ],
      "name": "addWhitelistAdmin",
      "outputs": [],
      "payable": false,
      "stateMutability": "nonpayable",
      "type": "function"
    },
    {
      "constant": false,
      "inputs": [
        {
          "name": "account",
          "type": "address"
        }
      ],
      "name": "addPauser",
      "outputs": [],
      "payable": false,
      "stateMutability": "nonpayable",
      "type": "function"
    },
    {
      "constant": false,
      "inputs": [],
      "name": "pause",
      "outputs": [],
      "payable": false,
      "stateMutability": "nonpayable",
      "type": "function"
    },
    {
      "constant": true,
      "inputs": [],
      "name": "owner",
      "outputs": [
        {
          "name": "",
          "type": "address"
        }
      ],
      "payable": false,
      "stateMutability": "view",
      "type": "function"
    },
    {
      "constant": true,
      "inputs": [],
      "name": "isOwner",
      "outputs": [
        {
          "name": "",
          "type": "bool"
        }
      ],
      "payable": false,
      "stateMutability": "view",
      "type": "function"
    },
    {
      "constant": false,
      "inputs": [
        {
          "name": "_tokenAddress",
          "type": "address"
        },
        {
          "name": "_amount",
          "type": "uint256"
        }
      ],
      "name": "drainToken",
      "outputs": [],
      "payable": false,
      "stateMutability": "nonpayable",
      "type": "function"
    },
    {
      "constant": true,
      "inputs": [
        {
          "name": "",
          "type": "address"
        },
        {
          "name": "",
          "type": "uint256"
        }
      ],
      "name": "bidsByUser",
      "outputs": [
        {
          "name": "hash",
          "type": "bytes32"
        },
        {
          "name": "commitmentId",
          "type": "uint256"
        },
        {
          "name": "rate",
          "type": "uint256"
        },
        {
          "name": "value",
          "type": "uint256"
        },
        {
          "name": "celerValue",
          "type": "uint256"
        }
      ],
      "payable": false,
      "stateMutability": "view",
      "type": "function"
    },
    {
      "constant": true,
      "inputs": [
        {
          "name": "account",
          "type": "address"
        }
      ],
      "name": "isWhitelistAdmin",
      "outputs": [
        {
          "name": "",
          "type": "bool"
        }
      ],
      "payable": false,
      "stateMutability": "view",
      "type": "function"
    },
    {
      "constant": true,
      "inputs": [],
      "name": "celerToken",
      "outputs": [
        {
          "name": "",
          "type": "address"
        }
      ],
      "payable": false,
      "stateMutability": "view",
      "type": "function"
    },
    {
      "constant": false,
      "inputs": [],
      "name": "renounceWhitelisted",
      "outputs": [],
      "payable": false,
      "stateMutability": "nonpayable",
      "type": "function"
    },
    {
      "constant": true,
      "inputs": [
        {
          "name": "dest",
          "type": "address"
        }
      ],
      "name": "payments",
      "outputs": [
        {
          "name": "",
          "type": "uint256"
        }
      ],
      "payable": false,
      "stateMutability": "view",
      "type": "function"
    },
    {
      "constant": false,
      "inputs": [
        {
          "name": "_tokenAddress",
          "type": "address"
        },
        {
          "name": "_supported",
          "type": "bool"
        }
      ],
      "name": "updateSupportedToken",
      "outputs": [],
      "payable": false,
      "stateMutability": "nonpayable",
      "type": "function"
    },
    {
      "constant": false,
      "inputs": [
        {
          "name": "newOwner",
          "type": "address"
        }
      ],
      "name": "transferOwnership",
      "outputs": [],
      "payable": false,
      "stateMutability": "nonpayable",
      "type": "function"
    },
    {
      "inputs": [
        {
          "name": "_celerTokenAddress",
          "type": "address"
        },
        {
          "name": "_polcAddress",
          "type": "address"
        },
        {
          "name": "_enableWhitelist",
          "type": "bool"
        }
      ],
      "payable": false,
      "stateMutability": "nonpayable",
      "type": "constructor"
    },
    {
      "payable": true,
      "stateMutability": "payable",
      "type": "fallback"
    },
    {
      "anonymous": false,
      "inputs": [
        {
          "indexed": false,
          "name": "auctionId",
          "type": "uint256"
        },
        {
          "indexed": false,
          "name": "asker",
          "type": "address"
        }
      ],
      "name": "NewAuction",
      "type": "event"
    },
    {
      "anonymous": false,
      "inputs": [
        {
          "indexed": false,
          "name": "auctionId",
          "type": "uint256"
        },
        {
          "indexed": true,
          "name": "bidder",
          "type": "address"
        }
      ],
      "name": "NewBid",
      "type": "event"
    },
    {
      "anonymous": false,
      "inputs": [
        {
          "indexed": false,
          "name": "auctionId",
          "type": "uint256"
        },
        {
          "indexed": false,
          "name": "bidder",
          "type": "address"
        }
      ],
      "name": "UpdateBid",
      "type": "event"
    },
    {
      "anonymous": false,
      "inputs": [
        {
          "indexed": true,
          "name": "auctionId",
          "type": "uint256"
        },
        {
          "indexed": false,
          "name": "bidder",
          "type": "address"
        }
      ],
      "name": "RevealBid",
      "type": "event"
    },
    {
      "anonymous": false,
      "inputs": [
        {
          "indexed": true,
          "name": "auctionId",
          "type": "uint256"
        },
        {
          "indexed": false,
          "name": "winners",
          "type": "address[]"
        }
      ],
      "name": "ClaimWinners",
      "type": "event"
    },
    {
      "anonymous": false,
      "inputs": [
        {
          "indexed": true,
          "name": "auctionId",
          "type": "uint256"
        },
        {
          "indexed": false,
          "name": "challenger",
          "type": "address"
        },
        {
          "indexed": false,
          "name": "winners",
          "type": "address[]"
        }
      ],
      "name": "ChallengeWinners",
      "type": "event"
    },
    {
      "anonymous": false,
      "inputs": [
        {
          "indexed": false,
          "name": "auctionId",
          "type": "uint256"
        }
      ],
      "name": "FinalizeAuction",
      "type": "event"
    },
    {
      "anonymous": false,
      "inputs": [
        {
          "indexed": false,
          "name": "auctionId",
          "type": "uint256"
        }
      ],
      "name": "RepayAuction",
      "type": "event"
    },
    {
      "anonymous": false,
      "inputs": [
        {
          "indexed": false,
          "name": "auctionId",
          "type": "uint256"
        },
        {
          "indexed": false,
          "name": "winner",
          "type": "address"
        }
      ],
      "name": "CollectCollateral",
      "type": "event"
    },
    {
      "anonymous": false,
      "inputs": [
        {
          "indexed": true,
          "name": "account",
          "type": "address"
        }
      ],
      "name": "WhitelistedAdded",
      "type": "event"
    },
    {
      "anonymous": false,
      "inputs": [
        {
          "indexed": true,
          "name": "account",
          "type": "address"
        }
      ],
      "name": "WhitelistedRemoved",
      "type": "event"
    },
    {
      "anonymous": false,
      "inputs": [
        {
          "indexed": true,
          "name": "account",
          "type": "address"
        }
      ],
      "name": "WhitelistAdminAdded",
      "type": "event"
    },
    {
      "anonymous": false,
      "inputs": [
        {
          "indexed": true,
          "name": "account",
          "type": "address"
        }
      ],
      "name": "WhitelistAdminRemoved",
      "type": "event"
    },
    {
      "anonymous": false,
      "inputs": [
        {
          "indexed": true,
          "name": "tokenAddress",
          "type": "address"
        },
        {
          "indexed": false,
          "name": "supported",
          "type": "bool"
        }
      ],
      "name": "UpdateSupportedToken",
      "type": "event"
    },
    {
      "anonymous": false,
      "inputs": [
        {
          "indexed": false,
          "name": "tokenAddress",
          "type": "address"
        },
        {
          "indexed": false,
          "name": "amount",
          "type": "uint256"
        }
      ],
      "name": "DrainToken",
      "type": "event"
    },
    {
      "anonymous": false,
      "inputs": [
        {
          "indexed": false,
          "name": "account",
          "type": "address"
        }
      ],
      "name": "Paused",
      "type": "event"
    },
    {
      "anonymous": false,
      "inputs": [
        {
          "indexed": false,
          "name": "account",
          "type": "address"
        }
      ],
      "name": "Unpaused",
      "type": "event"
    },
    {
      "anonymous": false,
      "inputs": [
        {
          "indexed": true,
          "name": "account",
          "type": "address"
        }
      ],
      "name": "PauserAdded",
      "type": "event"
    },
    {
      "anonymous": false,
      "inputs": [
        {
          "indexed": true,
          "name": "account",
          "type": "address"
        }
      ],
      "name": "PauserRemoved",
      "type": "event"
    },
    {
      "anonymous": false,
      "inputs": [
        {
          "indexed": true,
          "name": "previousOwner",
          "type": "address"
        },
        {
          "indexed": true,
          "name": "newOwner",
          "type": "address"
        }
      ],
      "name": "OwnershipTransferred",
      "type": "event"
    },
    {
      "constant": false,
      "inputs": [
        {
          "name": "_enable",
          "type": "bool"
        }
      ],
      "name": "updateEnableWhitelist",
      "outputs": [],
      "payable": false,
      "stateMutability": "nonpayable",
      "type": "function"
    },
    {
      "constant": false,
      "inputs": [
        {
          "name": "_tokenAddress",
          "type": "address"
        },
        {
          "name": "_bidDuration",
          "type": "uint256"
        },
        {
          "name": "_revealDuration",
          "type": "uint256"
        },
        {
          "name": "_claimDuration",
          "type": "uint256"
        },
        {
          "name": "_challengeDuration",
          "type": "uint256"
        },
        {
          "name": "_finalizeDuration",
          "type": "uint256"
        },
        {
          "name": "_value",
          "type": "uint256"
        },
        {
          "name": "_duration",
          "type": "uint256"
        },
        {
          "name": "_maxRate",
          "type": "uint256"
        },
        {
          "name": "_minValue",
          "type": "uint256"
        },
        {
          "name": "_collateralAddress",
          "type": "address"
        },
        {
          "name": "_collateralValue",
          "type": "uint256"
        }
      ],
      "name": "initAuction",
      "outputs": [],
      "payable": true,
      "stateMutability": "payable",
      "type": "function"
    },
    {
      "constant": false,
      "inputs": [
        {
          "name": "_auctionId",
          "type": "uint256"
        },
        {
          "name": "_hash",
          "type": "bytes32"
        },
        {
          "name": "_celerValue",
          "type": "uint256"
        }
      ],
      "name": "placeBid",
      "outputs": [],
      "payable": false,
      "stateMutability": "nonpayable",
      "type": "function"
    },
    {
      "constant": false,
      "inputs": [
        {
          "name": "_auctionId",
          "type": "uint256"
        },
        {
          "name": "_rate",
          "type": "uint256"
        },
        {
          "name": "_value",
          "type": "uint256"
        },
        {
          "name": "_celerValue",
          "type": "uint256"
        },
        {
          "name": "_salt",
          "type": "uint256"
        },
        {
          "name": "_commitmentId",
          "type": "uint256"
        }
      ],
      "name": "revealBid",
      "outputs": [],
      "payable": false,
      "stateMutability": "nonpayable",
      "type": "function"
    },
    {
      "constant": false,
      "inputs": [
        {
          "name": "_auctionId",
          "type": "uint256"
        },
        {
          "name": "_winners",
          "type": "address[]"
        }
      ],
      "name": "claimWinners",
      "outputs": [],
      "payable": false,
      "stateMutability": "nonpayable",
      "type": "function"
    },
    {
      "constant": false,
      "inputs": [
        {
          "name": "_auctionId",
          "type": "uint256"
        },
        {
          "name": "_winners",
          "type": "address[]"
        }
      ],
      "name": "challengeWinners",
      "outputs": [],
      "payable": false,
      "stateMutability": "nonpayable",
      "type": "function"
    },
    {
      "constant": false,
      "inputs": [
        {
          "name": "_auctionId",
          "type": "uint256"
        }
      ],
      "name": "finalizeAuction",
      "outputs": [],
      "payable": false,
      "stateMutability": "nonpayable",
      "type": "function"
    },
    {
      "constant": false,
      "inputs": [
        {
          "name": "_auctionId",
          "type": "uint256"
        }
      ],
      "name": "finalizeBid",
      "outputs": [],
      "payable": false,
      "stateMutability": "nonpayable",
      "type": "function"
    },
    {
      "constant": false,
      "inputs": [
        {
          "name": "_auctionId",
          "type": "uint256"
        }
      ],
      "name": "repayAuction",
      "outputs": [],
      "payable": true,
      "stateMutability": "payable",
      "type": "function"
    },
    {
      "constant": false,
      "inputs": [
        {
          "name": "_auctionId",
          "type": "uint256"
        }
      ],
      "name": "collectCollateral",
      "outputs": [],
      "payable": false,
      "stateMutability": "nonpayable",
      "type": "function"
    },
    {
      "constant": true,
      "inputs": [
        {
          "name": "_auctionId",
          "type": "uint256"
        }
      ],
      "name": "getAuction",
      "outputs": [
        {
          "name": "asker",
          "type": "address"
        },
        {
          "name": "tokenAddress",
          "type": "address"
        },
        {
          "name": "collateralAddress",
          "type": "address"
        },
        {
          "name": "collateraValue",
          "type": "uint256"
        },
        {
          "name": "value",
          "type": "uint256"
        },
        {
          "name": "duration",
          "type": "uint256"
        },
        {
          "name": "maxRate",
          "type": "uint256"
        },
        {
          "name": "minValue",
          "type": "uint256"
        }
      ],
      "payable": false,
      "stateMutability": "view",
      "type": "function"
    },
    {
      "constant": true,
      "inputs": [
        {
          "name": "_auctionId",
          "type": "uint256"
        }
      ],
      "name": "getAuctionPeriod",
      "outputs": [
        {
          "name": "bidEnd",
          "type": "uint256"
        },
        {
          "name": "revealEnd",
          "type": "uint256"
        },
        {
          "name": "claimEnd",
          "type": "uint256"
        },
        {
          "name": "challengeEnd",
          "type": "uint256"
        },
        {
          "name": "finalizeEnd",
          "type": "uint256"
        },
        {
          "name": "finalized",
          "type": "bool"
        }
      ],
      "payable": false,
      "stateMutability": "view",
      "type": "function"
    }
  ],
  "bytecode": "0x60806040523480156200001157600080fd5b50604051606080620065b0833981018060405260608110156200003357600080fd5b81019080805190602001909291908051906020019092919080519060200190929190505050336000806101000a81548173ffffffffffffffffffffffffffffffffffffffff021916908373ffffffffffffffffffffffffffffffffffffffff1602179055506000809054906101000a900473ffffffffffffffffffffffffffffffffffffffff1673ffffffffffffffffffffffffffffffffffffffff16600073ffffffffffffffffffffffffffffffffffffffff167f8be0079c531659141344cd1fd0a4f28419497f9722a3daafe3b4186f6b6457e060405160405180910390a36200012e33620002c8640100000000026401000000009004565b6000600260006101000a81548160ff02191690831515021790555062000153620004f4565b604051809103906000f08015801562000170573d6000803e3d6000fd5b50600460006101000a81548173ffffffffffffffffffffffffffffffffffffffff021916908373ffffffffffffffffffffffffffffffffffffffff160217905550620001cb3362000332640100000000026401000000009004565b82600960016101000a81548173ffffffffffffffffffffffffffffffffffffffff021916908373ffffffffffffffffffffffffffffffffffffffff16021790555081600760006101000a81548173ffffffffffffffffffffffffffffffffffffffff021916908373ffffffffffffffffffffffffffffffffffffffff16021790555080600960006101000a81548160ff0219169083151502179055506001600360008073ffffffffffffffffffffffffffffffffffffffff1673ffffffffffffffffffffffffffffffffffffffff16815260200190815260200160002060006101000a81548160ff02191690831515021790555050505062000505565b620002ec8160016200039c6401000000000262005619179091906401000000009004565b8073ffffffffffffffffffffffffffffffffffffffff167f6719d08c1888103bea251a4ed56406bd0c3e69723c8a1686e017e7bbe159b6f860405160405180910390a250565b620003568160056200039c6401000000000262005619179091906401000000009004565b8073ffffffffffffffffffffffffffffffffffffffff167f22380c05984257a1cb900161c713dd71d39e74820f1aea43bd3f1bdd2096129960405160405180910390a250565b600073ffffffffffffffffffffffffffffffffffffffff168173ffffffffffffffffffffffffffffffffffffffff1614151515620003d957600080fd5b620003f482826200045f640100000000026401000000009004565b1515156200040157600080fd5b60018260000160008373ffffffffffffffffffffffffffffffffffffffff1673ffffffffffffffffffffffffffffffffffffffff16815260200190815260200160002060006101000a81548160ff0219169083151502179055505050565b60008073ffffffffffffffffffffffffffffffffffffffff168273ffffffffffffffffffffffffffffffffffffffff16141515156200049d57600080fd5b8260000160008373ffffffffffffffffffffffffffffffffffffffff1673ffffffffffffffffffffffffffffffffffffffff16815260200190815260200160002060009054906101000a900460ff16905092915050565b6040516107cc8062005de483390190565b6158cf80620005156000396000f3fe6080604052600436106101c2576000357c0100000000000000000000000000000000000000000000000000000000900463ffffffff16806310154bad146101c4578063191780631461021557806323902d4a146102a5578063291d9549146103125780632cb57c481461036357806331b3eb94146103a057806338bc2f8e146103f15780633af32abf146104ba5780633f4ba83a14610523578063423bf7c81461053a57806346fbf68e146105895780634c5a628c146105f25780635c975abb14610609578063636f97661461063857806368c4ac26146106ae5780636ef8d66d14610717578063715018a61461072e5780637362d9c81461074557806378bd79351461079657806382dc1ec41461089a5780638456cb59146108eb5780638da5cb5b146109025780638f32d59b146109595780639d4323be14610988578063a0fdb395146109e3578063b9fe564b14610a6e578063bb5f747b14610a9c578063c6c21e9d14610b05578063cb6cbe8f14610b5c578063d6cd947314610b97578063e039529814610bae578063e2982c2114610c3e578063e71ef4fe14610ca3578063e73e35dd14610d00578063e808386314610d3b578063f2fde38b14610d76575b005b3480156101d057600080fd5b50610213600480360360208110156101e757600080fd5b81019080803573ffffffffffffffffffffffffffffffffffffffff169060200190929190505050610dc7565b005b34801561022157600080fd5b506102a36004803603604081101561023857600080fd5b81019080803590602001909291908035906020019064010000000081111561025f57600080fd5b82018360208201111561027157600080fd5b8035906020019184602083028401116401000000008311171561029357600080fd5b9091929391929390505050610de7565b005b3480156102b157600080fd5b50610310600480360360c08110156102c857600080fd5b81019080803590602001909291908035906020019092919080359060200190929190803590602001909291908035906020019092919080359060200190929190505050611059565b005b34801561031e57600080fd5b506103616004803603602081101561033557600080fd5b81019080803573ffffffffffffffffffffffffffffffffffffffff16906020019092919050505061164f565b005b34801561036f57600080fd5b5061039e6004803603602081101561038657600080fd5b8101908080351515906020019092919050505061166f565b005b3480156103ac57600080fd5b506103ef600480360360208110156103c357600080fd5b81019080803573ffffffffffffffffffffffffffffffffffffffff16906020019092919050505061169f565b005b6104b8600480360361018081101561040857600080fd5b81019080803573ffffffffffffffffffffffffffffffffffffffff169060200190929190803590602001909291908035906020019092919080359060200190929190803590602001909291908035906020019092919080359060200190929190803590602001909291908035906020019092919080359060200190929190803573ffffffffffffffffffffffffffffffffffffffff16906020019092919080359060200190929190505050611777565b005b3480156104c657600080fd5b50610509600480360360208110156104dd57600080fd5b81019080803573ffffffffffffffffffffffffffffffffffffffff169060200190929190505050612200565b604051808215151515815260200191505060405180910390f35b34801561052f57600080fd5b5061053861221d565b005b34801561054657600080fd5b506105876004803603606081101561055d57600080fd5b810190808035906020019092919080359060200190929190803590602001909291905050506122cc565b005b34801561059557600080fd5b506105d8600480360360208110156105ac57600080fd5b81019080803573ffffffffffffffffffffffffffffffffffffffff16906020019092919050505061256e565b604051808215151515815260200191505060405180910390f35b3480156105fe57600080fd5b5061060761258b565b005b34801561061557600080fd5b5061061e612596565b604051808215151515815260200191505060405180910390f35b34801561064457600080fd5b506106716004803603602081101561065b57600080fd5b81019080803590602001909291905050506125ad565b6040518087815260200186815260200185815260200184815260200183815260200182151515158152602001965050505050505060405180910390f35b3480156106ba57600080fd5b506106fd600480360360208110156106d157600080fd5b81019080803573ffffffffffffffffffffffffffffffffffffffff16906020019092919050505061260e565b604051808215151515815260200191505060405180910390f35b34801561072357600080fd5b5061072c61262e565b005b34801561073a57600080fd5b50610743612639565b005b34801561075157600080fd5b506107946004803603602081101561076857600080fd5b81019080803573ffffffffffffffffffffffffffffffffffffffff16906020019092919050505061270b565b005b3480156107a257600080fd5b506107cf600480360360208110156107b957600080fd5b810190808035906020019092919050505061272b565b604051808973ffffffffffffffffffffffffffffffffffffffff1673ffffffffffffffffffffffffffffffffffffffff1681526020018873ffffffffffffffffffffffffffffffffffffffff1673ffffffffffffffffffffffffffffffffffffffff1681526020018773ffffffffffffffffffffffffffffffffffffffff1673ffffffffffffffffffffffffffffffffffffffff1681526020018681526020018581526020018481526020018381526020018281526020019850505050505050505060405180910390f35b3480156108a657600080fd5b506108e9600480360360208110156108bd57600080fd5b81019080803573ffffffffffffffffffffffffffffffffffffffff1690602001909291905050506127f2565b005b3480156108f757600080fd5b50610900612812565b005b34801561090e57600080fd5b506109176128c2565b604051808273ffffffffffffffffffffffffffffffffffffffff1673ffffffffffffffffffffffffffffffffffffffff16815260200191505060405180910390f35b34801561096557600080fd5b5061096e6128eb565b604051808215151515815260200191505060405180910390f35b34801561099457600080fd5b506109e1600480360360408110156109ab57600080fd5b81019080803573ffffffffffffffffffffffffffffffffffffffff16906020019092919080359060200190929190505050612942565b005b3480156109ef57600080fd5b50610a3c60048036036040811015610a0657600080fd5b81019080803573ffffffffffffffffffffffffffffffffffffffff169060200190929190803590602001909291905050506129ea565b604051808681526020018581526020018481526020018381526020018281526020019550505050505060405180910390f35b610a9a60048036036020811015610a8457600080fd5b8101908080359060200190929190505050612a2d565b005b348015610aa857600080fd5b50610aeb60048036036020811015610abf57600080fd5b81019080803573ffffffffffffffffffffffffffffffffffffffff169060200190929190505050613430565b604051808215151515815260200191505060405180910390f35b348015610b1157600080fd5b50610b1a61344d565b604051808273ffffffffffffffffffffffffffffffffffffffff1673ffffffffffffffffffffffffffffffffffffffff16815260200191505060405180910390f35b348015610b6857600080fd5b50610b9560048036036020811015610b7f57600080fd5b8101908080359060200190929190505050613473565b005b348015610ba357600080fd5b50610bac6136f6565b005b348015610bba57600080fd5b50610c3c60048036036040811015610bd157600080fd5b810190808035906020019092919080359060200190640100000000811115610bf857600080fd5b820183602082011115610c0a57600080fd5b80359060200191846020830284011164010000000083111715610c2c57600080fd5b9091929391929390505050613701565b005b348015610c4a57600080fd5b50610c8d60048036036020811015610c6157600080fd5b81019080803573ffffffffffffffffffffffffffffffffffffffff1690602001909291905050506139ca565b6040518082815260200191505060405180910390f35b348015610caf57600080fd5b50610cfe60048036036040811015610cc657600080fd5b81019080803573ffffffffffffffffffffffffffffffffffffffff169060200190929190803515159060200190929190505050613ac9565b005b348015610d0c57600080fd5b50610d3960048036036020811015610d2357600080fd5b8101908080359060200190929190505050613c42565b005b348015610d4757600080fd5b50610d7460048036036020811015610d5e57600080fd5b810190808035906020019092919050505061401a565b005b348015610d8257600080fd5b50610dc560048036036020811015610d9957600080fd5b81019080803573ffffffffffffffffffffffffffffffffffffffff169060200190929190505050614679565b005b610dd033613430565b1515610ddb57600080fd5b610de481614698565b50565b600260009054906101000a900460ff16151515610e0357600080fd5b6000600a6000858152602001908152602001600020905080600e015443111515610e95576040517f08c379a000000000000000000000000000000000000000000000000000000000815260040180806020018281038252601d8152602001807f6d7573742062652077697468696e20636c61696d206475726174696f6e00000081525060200191505060405180910390fd5b80600f01544311151515610f11576040517f08c379a000000000000000000000000000000000000000000000000000000000815260040180806020018281038252601d8152602001807f6d7573742062652077697468696e20636c61696d206475726174696f6e00000081525060200191505060405180910390fd5b8060000160009054906101000a900473ffffffffffffffffffffffffffffffffffffffff1673ffffffffffffffffffffffffffffffffffffffff163373ffffffffffffffffffffffffffffffffffffffff16141515610fd8576040517f08c379a00000000000000000000000000000000000000000000000000000000081526004018080602001828103825260208152602001807f73656e646572206d757374206265207468652061756374696f6e2061736b657281525060200191505060405180910390fd5b828282600a019190610feb9291906157c0565b50837f78c60aae4ac6b336861d6c7c1abc4659430f4d6d5ff62300986875ce6f515a57848460405180806020018281038252848482818152602001925060200280828437600081840152601f19601f820116905080830192505050935050505060405180910390a250505050565b600260009054906101000a900460ff1615151561107557600080fd5b6000600a6000888152602001908152602001600020905080600d015443111515611107576040517f08c379a000000000000000000000000000000000000000000000000000000000815260040180806020018281038252601e8152602001807f6d7573742062652077697468696e2072657665616c206475726174696f6e000081525060200191505060405180910390fd5b80600e01544311151515611183576040517f08c379a000000000000000000000000000000000000000000000000000000000815260040180806020018281038252601e8152602001807f6d7573742062652077697468696e2072657665616c206475726174696f6e000081525060200191505060405180910390fd5b80600601548611151515611225576040517f08c379a00000000000000000000000000000000000000000000000000000000081526004018080602001828103825260218152602001807f72617465206d75737420626520736d616c6c6572207468616e206d617852617481526020017f650000000000000000000000000000000000000000000000000000000000000081525060400191505060405180910390fd5b806007015485101515156112c7576040517f08c379a00000000000000000000000000000000000000000000000000000000081526004018080602001828103825260228152602001807f76616c7565206d757374206265206c6172676572207468616e206d696e56616c81526020017f756500000000000000000000000000000000000000000000000000000000000081525060400191505060405180910390fd5b6000600b60003373ffffffffffffffffffffffffffffffffffffffff1673ffffffffffffffffffffffffffffffffffffffff16815260200190815260200160002060008981526020019081526020016000209050600087878787604051602001808581526020018481526020018381526020018281526020019450505050506040516020818303038152906040528051906020012090508160000154811415156113ff576040517f08c379a00000000000000000000000000000000000000000000000000000000081526004018080602001828103825260218152602001807f68617368206d7573742062652073616d6520617320746865206269642068617381526020017f680000000000000000000000000000000000000000000000000000000000000081525060400191505060405180910390fd5b60006114188784600401546146f290919063ffffffff16565b9050868360040181905550600081111561147a576114793382600960019054906101000a900473ffffffffffffffffffffffffffffffffffffffff1673ffffffffffffffffffffffffffffffffffffffff166147149092919063ffffffff16565b5b84836001018190555088836002018190555087836003018190555060006001028360000181905550600760009054906101000a900473ffffffffffffffffffffffffffffffffffffffff1673ffffffffffffffffffffffffffffffffffffffff1663657275ab33878760010160009054906101000a900473ffffffffffffffffffffffffffffffffffffffff168c6040518563ffffffff167c0100000000000000000000000000000000000000000000000000000000028152600401808573ffffffffffffffffffffffffffffffffffffffff1673ffffffffffffffffffffffffffffffffffffffff1681526020018481526020018373ffffffffffffffffffffffffffffffffffffffff1673ffffffffffffffffffffffffffffffffffffffff168152602001828152602001945050505050600060405180830381600087803b1580156115c757600080fd5b505af11580156115db573d6000803e3d6000fd5b50505050897fe2ea6de1801ba7490a1beaacfe87f2d1fdd7b2aedef9e7c4ab6b3d5b9d52c4f733604051808273ffffffffffffffffffffffffffffffffffffffff1673ffffffffffffffffffffffffffffffffffffffff16815260200191505060405180910390a250505050505050505050565b61165833613430565b151561166357600080fd5b61166c81614802565b50565b6116776128eb565b151561168257600080fd5b80600960006101000a81548160ff02191690831515021790555050565b600460009054906101000a900473ffffffffffffffffffffffffffffffffffffffff1673ffffffffffffffffffffffffffffffffffffffff166351cff8d9826040518263ffffffff167c0100000000000000000000000000000000000000000000000000000000028152600401808273ffffffffffffffffffffffffffffffffffffffff1673ffffffffffffffffffffffffffffffffffffffff168152602001915050600060405180830381600087803b15801561175c57600080fd5b505af1158015611770573d6000803e3d6000fd5b5050505050565b600260009054906101000a900460ff1615151561179357600080fd5b600960009054906101000a900460ff161561184c576117b133612200565b151561184b576040517f08c379a000000000000000000000000000000000000000000000000000000000815260040180806020018281038252603a8152602001807f57686974656c6973746564526f6c653a2063616c6c657220646f6573206e6f7481526020017f2068617665207468652057686974656c697374656420726f6c6500000000000081525060400191505060405180910390fd5b5b8181600360008373ffffffffffffffffffffffffffffffffffffffff1673ffffffffffffffffffffffffffffffffffffffff16815260200190815260200160002060009054906101000a900460ff16151561190f576040517f08c379a000000000000000000000000000000000000000000000000000000000815260040180806020018281038252601f8152602001807f746f6b656e2061646472657373206d75737420626520737570706f727465640081525060200191505060405180910390fd5b600073ffffffffffffffffffffffffffffffffffffffff168273ffffffffffffffffffffffffffffffffffffffff1614156119c05734811415156119bb576040517f08c379a000000000000000000000000000000000000000000000000000000000815260040180806020018281038252601d8152602001807f76616c7565206d75737420626520657175616c206d73672076616c756500000081525060200191505060405180910390fd5b611a39565b600034141515611a38576040517f08c379a00000000000000000000000000000000000000000000000000000000081526004018080602001828103825260168152602001807f6d73672076616c7565206d757374206265207a65726f0000000000000000000081525060200191505060405180910390fd5b5b600360008f73ffffffffffffffffffffffffffffffffffffffff1673ffffffffffffffffffffffffffffffffffffffff16815260200190815260200160002060009054906101000a900460ff161515611afa576040517f08c379a000000000000000000000000000000000000000000000000000000000815260040180806020018281038252601f8152602001807f746f6b656e2061646472657373206d75737420626520737570706f727465640081525060200191505060405180910390fd5b60008d111515611b98576040517f08c379a00000000000000000000000000000000000000000000000000000000081526004018080602001828103825260258152602001807f626964206475726174696f6e206d757374206265206c6172676572207468616e81526020017f207a65726f00000000000000000000000000000000000000000000000000000081525060400191505060405180910390fd5b60008c111515611c36576040517f08c379a00000000000000000000000000000000000000000000000000000000081526004018080602001828103825260288152602001807f72657665616c206475726174696f6e206d757374206265206c6172676572207481526020017f68616e207a65726f00000000000000000000000000000000000000000000000081525060400191505060405180910390fd5b60008b111515611cd4576040517f08c379a00000000000000000000000000000000000000000000000000000000081526004018080602001828103825260278152602001807f636c61696d206475726174696f6e206d757374206265206c617267657220746881526020017f616e207a65726f0000000000000000000000000000000000000000000000000081525060400191505060405180910390fd5b60008a111515611d72576040517f08c379a000000000000000000000000000000000000000000000000000000000815260040180806020018281038252602b8152602001807f6368616c6c656e6765206475726174696f6e206d757374206265206c6172676581526020017f72207468616e207a65726f00000000000000000000000000000000000000000081525060400191505060405180910390fd5b600089111515611e10576040517f08c379a000000000000000000000000000000000000000000000000000000000815260040180806020018281038252602a8152602001807f66696e616c697a65206475726174696f6e206d757374206265206c617267657281526020017f207468616e207a65726f0000000000000000000000000000000000000000000081525060400191505060405180910390fd5b600088111515611e88576040517f08c379a000000000000000000000000000000000000000000000000000000000815260040180806020018281038252601e8152602001807f76616c7565206d757374206265206c6172676572207468616e207a65726f000081525060200191505060405180910390fd5b600087111515611f26576040517f08c379a00000000000000000000000000000000000000000000000000000000081526004018080602001828103825260218152602001807f6475726174696f6e206d757374206265206c6172676572207468616e207a657281526020017f6f0000000000000000000000000000000000000000000000000000000000000081525060400191505060405180910390fd5b600073ffffffffffffffffffffffffffffffffffffffff168473ffffffffffffffffffffffffffffffffffffffff16141515611f8a57611f893330858773ffffffffffffffffffffffffffffffffffffffff1661485c909392919063ffffffff16565b5b6000600a600060085481526020019081526020016000209050338160000160006101000a81548173ffffffffffffffffffffffffffffffffffffffff021916908373ffffffffffffffffffffffffffffffffffffffff1602179055508e8160010160006101000a81548173ffffffffffffffffffffffffffffffffffffffff021916908373ffffffffffffffffffffffffffffffffffffffff160217905550848160020160006101000a81548173ffffffffffffffffffffffffffffffffffffffff021916908373ffffffffffffffffffffffffffffffffffffffff1602179055508381600301819055508a81600b01819055508981600c01819055508881600401819055508781600501819055508681600601819055508581600701819055506120be8e4361497f90919063ffffffff16565b81600d01819055506120dd8d82600d015461497f90919063ffffffff16565b81600e01819055506120fc8c82600e015461497f90919063ffffffff16565b81600f018190555061211b8b82600f015461497f90919063ffffffff16565b816010018190555061213a8a826010015461497f90919063ffffffff16565b81601101819055507f70cc9a54dba93435423ae6e31b4603f6b94f0db76f9d0aeecb990abb118794186008548260000160009054906101000a900473ffffffffffffffffffffffffffffffffffffffff16604051808381526020018273ffffffffffffffffffffffffffffffffffffffff1673ffffffffffffffffffffffffffffffffffffffff1681526020019250505060405180910390a16121e9600160085461497f90919063ffffffff16565b600881905550505050505050505050505050505050565b60006122168260066149a090919063ffffffff16565b9050919050565b6122263361256e565b151561223157600080fd5b600260009054906101000a900460ff16151561224c57600080fd5b6000600260006101000a81548160ff0219169083151502179055507f5db9ee0a495bf2e6ff9c91a7834c1ba4fdd244a5e8aa4e537bd38aeae4b073aa33604051808273ffffffffffffffffffffffffffffffffffffffff1673ffffffffffffffffffffffffffffffffffffffff16815260200191505060405180910390a1565b600260009054906101000a900460ff161515156122e857600080fd5b6000600a6000858152602001908152602001600020905080600d0154431115151561237b576040517f08c379a000000000000000000000000000000000000000000000000000000000815260040180806020018281038252601b8152602001807f6d7573742062652077697468696e20626964206475726174696f6e000000000081525060200191505060405180910390fd5b6000600b60003373ffffffffffffffffffffffffffffffffffffffff1673ffffffffffffffffffffffffffffffffffffffff1681526020019081526020016000206000868152602001908152602001600020905060006001028160000154141561249a57816009013390806001815401808255809150509060018203906000526020600020016000909192909190916101000a81548173ffffffffffffffffffffffffffffffffffffffff021916908373ffffffffffffffffffffffffffffffffffffffff160217905550503373ffffffffffffffffffffffffffffffffffffffff167f45401769c1d58f70bd6b63e1a66bfc17d712ce0dc4ffb8d2dd0ad7177d56a386866040518082815260200191505060405180910390a2612506565b7f31780e3ce440b5efdf2d87f18af70c1ebc1f4aee829175d3b772c9e4f65b09898533604051808381526020018273ffffffffffffffffffffffffffffffffffffffff1673ffffffffffffffffffffffffffffffffffffffff1681526020019250505060405180910390a15b838160000181905550828160040181905550612567333085600960019054906101000a900473ffffffffffffffffffffffffffffffffffffffff1673ffffffffffffffffffffffffffffffffffffffff1661485c909392919063ffffffff16565b5050505050565b60006125848260016149a090919063ffffffff16565b9050919050565b61259433614a34565b565b6000600260009054906101000a900460ff16905090565b6000806000806000806000600a6000898152602001908152602001600020905080600d0154965080600e0154955080600f0154945080601001549350806011015492508060080160009054906101000a900460ff1691505091939550919395565b60036020528060005260406000206000915054906101000a900460ff1681565b61263733614a8e565b565b6126416128eb565b151561264c57600080fd5b600073ffffffffffffffffffffffffffffffffffffffff166000809054906101000a900473ffffffffffffffffffffffffffffffffffffffff1673ffffffffffffffffffffffffffffffffffffffff167f8be0079c531659141344cd1fd0a4f28419497f9722a3daafe3b4186f6b6457e060405160405180910390a360008060006101000a81548173ffffffffffffffffffffffffffffffffffffffff021916908373ffffffffffffffffffffffffffffffffffffffff160217905550565b61271433613430565b151561271f57600080fd5b61272881614ae8565b50565b6000806000806000806000806000600a60008b815260200190815260200160002090508060000160009054906101000a900473ffffffffffffffffffffffffffffffffffffffff1698508060010160009054906101000a900473ffffffffffffffffffffffffffffffffffffffff1697508060020160009054906101000a900473ffffffffffffffffffffffffffffffffffffffff169650806003015495508060040154945080600501549350806006015492508060070154915050919395975091939597565b6127fb3361256e565b151561280657600080fd5b61280f81614b42565b50565b61281b3361256e565b151561282657600080fd5b600260009054906101000a900460ff1615151561284257600080fd5b6001600260006101000a81548160ff0219169083151502179055507f62e78cea01bee320cd4e420270b5ea74000d11b0c9f74754ebdbfc544b05a25833604051808273ffffffffffffffffffffffffffffffffffffffff1673ffffffffffffffffffffffffffffffffffffffff16815260200191505060405180910390a1565b60008060009054906101000a900473ffffffffffffffffffffffffffffffffffffffff16905090565b60008060009054906101000a900473ffffffffffffffffffffffffffffffffffffffff1673ffffffffffffffffffffffffffffffffffffffff163373ffffffffffffffffffffffffffffffffffffffff1614905090565b600260009054906101000a900460ff16151561295d57600080fd5b6129656128eb565b151561297057600080fd5b61297b823383614b9c565b7fac6572a44b29fc3e82672a2d68efd9bd694204ee2274bc37ee5c4cebcf3fa1ef8282604051808373ffffffffffffffffffffffffffffffffffffffff1673ffffffffffffffffffffffffffffffffffffffff1681526020018281526020019250505060405180910390a15050565b600b602052816000526040600020602052806000526040600020600091509150508060000154908060010154908060020154908060030154908060040154905085565b600260009054906101000a900460ff16151515612a4957600080fd5b6000600a600083815260200190815260200160002090508060080160009054906101000a900460ff161515612ae6576040517f08c379a00000000000000000000000000000000000000000000000000000000081526004018080602001828103825260198152602001807f61756374696f6e206d7573742062652066696e616c697a65640000000000000081525060200191505060405180910390fd5b8060000160009054906101000a900473ffffffffffffffffffffffffffffffffffffffff1673ffffffffffffffffffffffffffffffffffffffff163373ffffffffffffffffffffffffffffffffffffffff16141515612bad576040517f08c379a00000000000000000000000000000000000000000000000000000000081526004018080602001828103825260208152602001807f73656e646572206d757374206265207468652061756374696f6e2061736b657281525060200191505060405180910390fd5b612bdd612bca620151808360050154614d2890919063ffffffff16565b826012015461497f90919063ffffffff16565b4211151515612c7a576040517f08c379a00000000000000000000000000000000000000000000000000000000081526004018080602001828103825260278152602001807f6d7573742062652077697468696e2061756374696f6e206c656e64696e67206481526020017f75726174696f6e0000000000000000000000000000000000000000000000000081525060400191505060405180910390fd5b60008073ffffffffffffffffffffffffffffffffffffffff168260010160009054906101000a900473ffffffffffffffffffffffffffffffffffffffff1673ffffffffffffffffffffffffffffffffffffffff1614905060008260010160009054906101000a900473ffffffffffffffffffffffffffffffffffffffff16905060003490506000612d2d62015180612d1f8760120154426146f290919063ffffffff16565b614d6690919063ffffffff16565b9050600085600a01905060008090505b81805490508110156131515760008282815481101515612d5957fe5b9060005260206000200160009054906101000a900473ffffffffffffffffffffffffffffffffffffffff1690506000600b60008373ffffffffffffffffffffffffffffffffffffffff1673ffffffffffffffffffffffffffffffffffffffff16815260200190815260200160002060008b815260200190815260200160002090506000816003015490506000612e23620186a0612e1589612e07876002015487614d2890919063ffffffff16565b614d2890919063ffffffff16565b614d6690919063ffffffff16565b9050600083600301819055508915612fad57612e5a81612e4c848b6146f290919063ffffffff16565b6146f290919063ffffffff16565b9750600760009054906101000a900473ffffffffffffffffffffffffffffffffffffffff1673ffffffffffffffffffffffffffffffffffffffff1663e090d045838686600101548f60000160009054906101000a900473ffffffffffffffffffffffffffffffffffffffff16876040518663ffffffff167c0100000000000000000000000000000000000000000000000000000000028152600401808573ffffffffffffffffffffffffffffffffffffffff1673ffffffffffffffffffffffffffffffffffffffff1681526020018481526020018373ffffffffffffffffffffffffffffffffffffffff1673ffffffffffffffffffffffffffffffffffffffff1681526020018281526020019450505050506000604051808303818588803b158015612f8557600080fd5b505af1158015612f99573d6000803e3d6000fd5b5050505050612fa88482614d90565b613140565b600760009054906101000a900473ffffffffffffffffffffffffffffffffffffffff1673ffffffffffffffffffffffffffffffffffffffff1663e090d0458585600101548e60000160009054906101000a900473ffffffffffffffffffffffffffffffffffffffff16866040518563ffffffff167c0100000000000000000000000000000000000000000000000000000000028152600401808573ffffffffffffffffffffffffffffffffffffffff1673ffffffffffffffffffffffffffffffffffffffff1681526020018481526020018373ffffffffffffffffffffffffffffffffffffffff1673ffffffffffffffffffffffffffffffffffffffff168152602001828152602001945050505050600060405180830381600087803b1580156130d657600080fd5b505af11580156130ea573d6000803e3d6000fd5b5050505061313f8b60000160009054906101000a900473ffffffffffffffffffffffffffffffffffffffff1685838c73ffffffffffffffffffffffffffffffffffffffff1661485c909392919063ffffffff16565b5b505050508080600101915050612d3d565b506000866003015411156131b7576131b68660020160009054906101000a900473ffffffffffffffffffffffffffffffffffffffff168760000160009054906101000a900473ffffffffffffffffffffffffffffffffffffffff168860030154614b9c565b5b6000600760009054906101000a900473ffffffffffffffffffffffffffffffffffffffff1673ffffffffffffffffffffffffffffffffffffffff166301f2e9a88860010160009054906101000a900473ffffffffffffffffffffffffffffffffffffffff1686866040518463ffffffff167c0100000000000000000000000000000000000000000000000000000000028152600401808473ffffffffffffffffffffffffffffffffffffffff1673ffffffffffffffffffffffffffffffffffffffff168152602001838152602001828152602001935050505060206040518083038186803b1580156132a857600080fd5b505afa1580156132bc573d6000803e3d6000fd5b505050506040513d60208110156132d257600080fd5b8101908080519060200190929190505050905061335a8760000160009054906101000a900473ffffffffffffffffffffffffffffffffffffffff168860130154600960019054906101000a900473ffffffffffffffffffffffffffffffffffffffff1673ffffffffffffffffffffffffffffffffffffffff166147149092919063ffffffff16565b6133ef8760000160009054906101000a900473ffffffffffffffffffffffffffffffffffffffff16600760009054906101000a900473ffffffffffffffffffffffffffffffffffffffff1683600960019054906101000a900473ffffffffffffffffffffffffffffffffffffffff1673ffffffffffffffffffffffffffffffffffffffff1661485c909392919063ffffffff16565b7f1bcb6cd336f3258c0b58f390ff189e85a575119e00b32868045249b45b4032f4886040518082815260200191505060405180910390a15050505050505050565b60006134468260056149a090919063ffffffff16565b9050919050565b600960019054906101000a900473ffffffffffffffffffffffffffffffffffffffff1681565b600260009054906101000a900460ff1615151561348f57600080fd5b60008090506000600a600084815260200190815260200160002090508060080160009054906101000a900460ff16156134d4576134cc8333614e6a565b1591506134de565b8060110154431191505b811515613579576040517f08c379a00000000000000000000000000000000000000000000000000000000081526004018080602001828103825260298152602001807f796f7520617265206e6f7420616c6c6f77656420746f2077697468647261772081526020017f63757272656e746c79000000000000000000000000000000000000000000000081525060400191505060405180910390fd5b6000600b60003373ffffffffffffffffffffffffffffffffffffffff1673ffffffffffffffffffffffffffffffffffffffff1681526020019081526020016000206000858152602001908152602001600020905060008160030154111515613649576040517f08c379a00000000000000000000000000000000000000000000000000000000081526004018080602001828103825260198152602001807f796f7520646f206e6f7420686176652076616c6964206269640000000000000081525060200191505060405180910390fd5b6136818260010160009054906101000a900473ffffffffffffffffffffffffffffffffffffffff163383600101548460030154614f2f565b6136d2338260040154600960019054906101000a900473ffffffffffffffffffffffffffffffffffffffff1673ffffffffffffffffffffffffffffffffffffffff166147149092919063ffffffff16565b60008160040181905550600081600201819055506000816003018190555050505050565b6136ff33614802565b565b600260009054906101000a900460ff1615151561371d57600080fd5b6000600a6000858152602001908152602001600020905080600f0154431115156137af576040517f08c379a00000000000000000000000000000000000000000000000000000000081526004018080602001828103825260188152602001807f6d7573742062652077697468696e206368616c6c656e6765000000000000000081525060200191505060405180910390fd5b80601001544311151515613851576040517f08c379a00000000000000000000000000000000000000000000000000000000081526004018080602001828103825260218152602001807f6d7573742062652077697468696e206368616c6c656e6765206475726174696f81526020017f6e0000000000000000000000000000000000000000000000000000000000000081525060400191505060405180910390fd5b61385b84336152a9565b15156138cf576040517f08c379a000000000000000000000000000000000000000000000000000000000815260040180806020018281038252601a8152602001807f6d75737420626520612076616c6964206368616c6c656e67657200000000000081525060200191505060405180910390fd5b828282600a0191906138e29291906157c0565b506138fe81600b0154826010015461497f90919063ffffffff16565b816010018190555061392181600c0154826010015461497f90919063ffffffff16565b8160110181905550837ff982cf5dd10f9d5f49b94ade11c1c17106e83e3df9a273c6de11746e6aa36ee4338585604051808473ffffffffffffffffffffffffffffffffffffffff1673ffffffffffffffffffffffffffffffffffffffff168152602001806020018281038252848482818152602001925060200280828437600081840152601f19601f82011690508083019250505094505050505060405180910390a250505050565b6000600460009054906101000a900473ffffffffffffffffffffffffffffffffffffffff1673ffffffffffffffffffffffffffffffffffffffff1663e3a9db1a836040518263ffffffff167c0100000000000000000000000000000000000000000000000000000000028152600401808273ffffffffffffffffffffffffffffffffffffffff1673ffffffffffffffffffffffffffffffffffffffff16815260200191505060206040518083038186803b158015613a8757600080fd5b505afa158015613a9b573d6000803e3d6000fd5b505050506040513d6020811015613ab157600080fd5b81019080805190602001909291905050509050919050565b613ad16128eb565b1515613adc57600080fd5b613afb8273ffffffffffffffffffffffffffffffffffffffff1661550c565b1515613b95576040517f08c379a00000000000000000000000000000000000000000000000000000000081526004018080602001828103825260268152602001807f746f6b656e2061646472657373206d75737420626520636f6e7472616374206181526020017f646472657373000000000000000000000000000000000000000000000000000081525060400191505060405180910390fd5b80600360008473ffffffffffffffffffffffffffffffffffffffff1673ffffffffffffffffffffffffffffffffffffffff16815260200190815260200160002060006101000a81548160ff0219169083151502179055508173ffffffffffffffffffffffffffffffffffffffff167fd71e43dae5ba4386463c0ef49b6f19fc82aea6a936b4242ef04b99730c0ed4c382604051808215151515815260200191505060405180910390a25050565b600260009054906101000a900460ff16151515613c5e57600080fd5b6000600a600083815260200190815260200160002090508060080160009054906101000a900460ff161515613cfb576040517f08c379a00000000000000000000000000000000000000000000000000000000081526004018080602001828103825260198152602001807f61756374696f6e206d7573742062652066696e616c697a65640000000000000081525060200191505060405180910390fd5b613d2b613d18620151808360050154614d2890919063ffffffff16565b826012015461497f90919063ffffffff16565b43111515613dc7576040517f08c379a00000000000000000000000000000000000000000000000000000000081526004018080602001828103825260228152602001807f6d75737420706173732061756374696f6e206c656e64696e672064757261746981526020017f6f6e00000000000000000000000000000000000000000000000000000000000081525060400191505060405180910390fd5b613dd18233614e6a565b1515613e45576040517f08c379a00000000000000000000000000000000000000000000000000000000081526004018080602001828103825260178152602001807f73656e646572206d75737420626520612077696e6e657200000000000000000081525060200191505060405180910390fd5b6000600b60003373ffffffffffffffffffffffffffffffffffffffff1673ffffffffffffffffffffffffffffffffffffffff1681526020019081526020016000206000848152602001908152602001600020905060008160030154111515613f3b576040517f08c379a00000000000000000000000000000000000000000000000000000000081526004018080602001828103825260228152602001807f6269642076616c7565206d757374206265206c6172676572207468616e207a6581526020017f726f00000000000000000000000000000000000000000000000000000000000081525060400191505060405180910390fd5b6000613f6e8360040154613f6084600301548660030154614d2890919063ffffffff16565b614d6690919063ffffffff16565b905060008260030181905550613fa98360020160009054906101000a900473ffffffffffffffffffffffffffffffffffffffff163383614b9c565b7f8996516a5fb708155f021fb9e400552fd89c461805c8ef6f5cc988c76e2d73408433604051808381526020018273ffffffffffffffffffffffffffffffffffffffff1673ffffffffffffffffffffffffffffffffffffffff1681526020019250505060405180910390a150505050565b600260009054906101000a900460ff1615151561403657600080fd5b6000600a600083815260200190815260200160002090508060100154431115156140c8576040517f08c379a00000000000000000000000000000000000000000000000000000000081526004018080602001828103825260208152602001807f6d7573742062652077697468696e2066696e616c697a65206475726174696f6e81525060200191505060405180910390fd5b80601101544311151515614144576040517f08c379a00000000000000000000000000000000000000000000000000000000081526004018080602001828103825260208152602001807f6d7573742062652077697468696e2066696e616c697a65206475726174696f6e81525060200191505060405180910390fd5b8060080160009054906101000a900460ff161515156141cb576040517f08c379a000000000000000000000000000000000000000000000000000000000815260040180806020018281038252601d8152602001807f61756374696f6e206d757374206e6f742062652066696e616c697a656400000081525060200191505060405180910390fd5b60018160080160006101000a81548160ff021916908315150217905550600081600a0190506000809050600080905060008090505b8380549050811015614432576000848281548110151561421c57fe5b9060005260206000200160009054906101000a900473ffffffffffffffffffffffffffffffffffffffff1690506000600b60008373ffffffffffffffffffffffffffffffffffffffff1673ffffffffffffffffffffffffffffffffffffffff168152602001908152602001600020600089815260200190815260200160002090506142b481600301548661497f90919063ffffffff16565b9450614398600760009054906101000a900473ffffffffffffffffffffffffffffffffffffffff1673ffffffffffffffffffffffffffffffffffffffff1663d2d7231f83600101546040518263ffffffff167c010000000000000000000000000000000000000000000000000000000002815260040180828152602001915050602060405180830381600087803b15801561434e57600080fd5b505af1158015614362573d6000803e3d6000fd5b505050506040513d602081101561437857600080fd5b81019080805190602001909291905050508561497f90919063ffffffff16565b935086600401548511156144235760006143bf8860040154876146f290919063ffffffff16565b90506143f58860010160009054906101000a900473ffffffffffffffffffffffffffffffffffffffff1684846001015484614f2f565b61440c8183600301546146f290919063ffffffff16565b826003018190555087600401549550505050614432565b50508080600101915050614200565b5b8380549050811015614586576000848281548110151561444f57fe5b9060005260206000200160009054906101000a900473ffffffffffffffffffffffffffffffffffffffff1690506000600b60008373ffffffffffffffffffffffffffffffffffffffff1673ffffffffffffffffffffffffffffffffffffffff168152602001908152602001600020600089815260200190815260200160002090506145088760010160009054906101000a900473ffffffffffffffffffffffffffffffffffffffff168383600101548460030154614f2f565b614559828260040154600960019054906101000a900473ffffffffffffffffffffffffffffffffffffffff1673ffffffffffffffffffffffffffffffffffffffff166147149092919063ffffffff16565b60008160040181905550600081600201819055506000816003018190555050508080600101915050614433565b6145d5333084600960019054906101000a900473ffffffffffffffffffffffffffffffffffffffff1673ffffffffffffffffffffffffffffffffffffffff1661485c909392919063ffffffff16565b6146288560010160009054906101000a900473ffffffffffffffffffffffffffffffffffffffff168660000160009054906101000a900473ffffffffffffffffffffffffffffffffffffffff1685614b9c565b4285601201819055508185601301819055507fb6ef3d4ebcd3039be8832ad856398d49f705465e36b6ac4478eacf0424caecc9866040518082815260200191505060405180910390a1505050505050565b6146816128eb565b151561468c57600080fd5b6146958161551f565b50565b6146ac81600661561990919063ffffffff16565b8073ffffffffffffffffffffffffffffffffffffffff167fee1504a83b6d4a361f4c1dc78ab59bfa30d6a3b6612c403e86bb01ef2984295f60405160405180910390a250565b600082821115151561470357600080fd5b600082840390508091505092915050565b8273ffffffffffffffffffffffffffffffffffffffff1663a9059cbb83836040518363ffffffff167c0100000000000000000000000000000000000000000000000000000000028152600401808373ffffffffffffffffffffffffffffffffffffffff1673ffffffffffffffffffffffffffffffffffffffff16815260200182815260200192505050602060405180830381600087803b1580156147b757600080fd5b505af11580156147cb573d6000803e3d6000fd5b505050506040513d60208110156147e157600080fd5b810190808051906020019092919050505015156147fd57600080fd5b505050565b6148168160066156c990919063ffffffff16565b8073ffffffffffffffffffffffffffffffffffffffff167f270d9b30cf5b0793bbfd54c9d5b94aeb49462b8148399000265144a8722da6b660405160405180910390a250565b8373ffffffffffffffffffffffffffffffffffffffff166323b872dd8484846040518463ffffffff167c0100000000000000000000000000000000000000000000000000000000028152600401808473ffffffffffffffffffffffffffffffffffffffff1673ffffffffffffffffffffffffffffffffffffffff1681526020018373ffffffffffffffffffffffffffffffffffffffff1673ffffffffffffffffffffffffffffffffffffffff1681526020018281526020019350505050602060405180830381600087803b15801561493357600080fd5b505af1158015614947573d6000803e3d6000fd5b505050506040513d602081101561495d57600080fd5b8101908080519060200190929190505050151561497957600080fd5b50505050565b600080828401905083811015151561499657600080fd5b8091505092915050565b60008073ffffffffffffffffffffffffffffffffffffffff168273ffffffffffffffffffffffffffffffffffffffff16141515156149dd57600080fd5b8260000160008373ffffffffffffffffffffffffffffffffffffffff1673ffffffffffffffffffffffffffffffffffffffff16815260200190815260200160002060009054906101000a900460ff16905092915050565b614a488160056156c990919063ffffffff16565b8073ffffffffffffffffffffffffffffffffffffffff167f0a8eb35e5ca14b3d6f28e4abf2f128dbab231a58b56e89beb5d636115001e16560405160405180910390a250565b614aa28160016156c990919063ffffffff16565b8073ffffffffffffffffffffffffffffffffffffffff167fcd265ebaf09df2871cc7bd4133404a235ba12eff2041bb89d9c714a2621c7c7e60405160405180910390a250565b614afc81600561561990919063ffffffff16565b8073ffffffffffffffffffffffffffffffffffffffff167f22380c05984257a1cb900161c713dd71d39e74820f1aea43bd3f1bdd2096129960405160405180910390a250565b614b5681600161561990919063ffffffff16565b8073ffffffffffffffffffffffffffffffffffffffff167f6719d08c1888103bea251a4ed56406bd0c3e69723c8a1686e017e7bbe159b6f860405160405180910390a250565b600073ffffffffffffffffffffffffffffffffffffffff168273ffffffffffffffffffffffffffffffffffffffff1614151515614c67576040517f08c379a00000000000000000000000000000000000000000000000000000000081526004018080602001828103825260248152602001807f7472616e7366657220746f2061646472657373206d757374206e6f742062652081526020017f7a65726f0000000000000000000000000000000000000000000000000000000081525060400191505060405180910390fd5b6000811415614c7557614d23565b600073ffffffffffffffffffffffffffffffffffffffff168373ffffffffffffffffffffffffffffffffffffffff161415614cf6578173ffffffffffffffffffffffffffffffffffffffff166108fc829081150290604051600060405180830381858888f19350505050158015614cf0573d6000803e3d6000fd5b50614d22565b614d2182828573ffffffffffffffffffffffffffffffffffffffff166147149092919063ffffffff16565b5b5b505050565b600080831415614d3b5760009050614d60565b60008284029050828482811515614d4e57fe5b04141515614d5b57600080fd5b809150505b92915050565b60008082111515614d7657600080fd5b60008284811515614d8357fe5b0490508091505092915050565b600460009054906101000a900473ffffffffffffffffffffffffffffffffffffffff1673ffffffffffffffffffffffffffffffffffffffff1663f340fa0182846040518363ffffffff167c0100000000000000000000000000000000000000000000000000000000028152600401808273ffffffffffffffffffffffffffffffffffffffff1673ffffffffffffffffffffffffffffffffffffffff1681526020019150506000604051808303818588803b158015614e4d57600080fd5b505af1158015614e61573d6000803e3d6000fd5b50505050505050565b600080600a60008581526020019081526020016000209050600081600a01905060008090505b8180549050811015614f21578473ffffffffffffffffffffffffffffffffffffffff168282815481101515614ec157fe5b9060005260206000200160009054906101000a900473ffffffffffffffffffffffffffffffffffffffff1673ffffffffffffffffffffffffffffffffffffffff161415614f145760019350505050614f29565b8080600101915050614e90565b506000925050505b92915050565b60008073ffffffffffffffffffffffffffffffffffffffff168573ffffffffffffffffffffffffffffffffffffffff16149050801561508757600760009054906101000a900473ffffffffffffffffffffffffffffffffffffffff1673ffffffffffffffffffffffffffffffffffffffff1663e090d04583868630876040518663ffffffff167c0100000000000000000000000000000000000000000000000000000000028152600401808573ffffffffffffffffffffffffffffffffffffffff1673ffffffffffffffffffffffffffffffffffffffff1681526020018481526020018373ffffffffffffffffffffffffffffffffffffffff1673ffffffffffffffffffffffffffffffffffffffff1681526020018281526020019450505050506000604051808303818588803b15801561506957600080fd5b505af115801561507d573d6000803e3d6000fd5b50505050506152a2565b8473ffffffffffffffffffffffffffffffffffffffff1663095ea7b3600760009054906101000a900473ffffffffffffffffffffffffffffffffffffffff16846040518363ffffffff167c0100000000000000000000000000000000000000000000000000000000028152600401808373ffffffffffffffffffffffffffffffffffffffff1673ffffffffffffffffffffffffffffffffffffffff16815260200182815260200192505050602060405180830381600087803b15801561514c57600080fd5b505af1158015615160573d6000803e3d6000fd5b505050506040513d602081101561517657600080fd5b810190808051906020019092919050505050600760009054906101000a900473ffffffffffffffffffffffffffffffffffffffff1673ffffffffffffffffffffffffffffffffffffffff1663e090d045858530866040518563ffffffff167c0100000000000000000000000000000000000000000000000000000000028152600401808573ffffffffffffffffffffffffffffffffffffffff1673ffffffffffffffffffffffffffffffffffffffff1681526020018481526020018373ffffffffffffffffffffffffffffffffffffffff1673ffffffffffffffffffffffffffffffffffffffff168152602001828152602001945050505050600060405180830381600087803b15801561528957600080fd5b505af115801561529d573d6000803e3d6000fd5b505050505b5050505050565b600080600b60008473ffffffffffffffffffffffffffffffffffffffff1673ffffffffffffffffffffffffffffffffffffffff168152602001908152602001600020600085815260200190815260200160002090506000816003015411151561537a576040517f08c379a00000000000000000000000000000000000000000000000000000000081526004018080602001828103825260118152602001807f6d7573742062652076616c69642062696400000000000000000000000000000081525060200191505060405180910390fd5b6000600a60008681526020019081526020016000209050600081600a0190506000809050600080905060008090505b83805490508110156154fc57600084828154811015156153c557fe5b9060005260206000200160009054906101000a900473ffffffffffffffffffffffffffffffffffffffff1690506000600b60008373ffffffffffffffffffffffffffffffffffffffff1673ffffffffffffffffffffffffffffffffffffffff16815260200190815260200160002060008c815260200190815260200160002090508660040154841015801561545d5750858054905083105b1561547357600198505050505050505050615506565b61548a81600301548561497f90919063ffffffff16565b93508973ffffffffffffffffffffffffffffffffffffffff168273ffffffffffffffffffffffffffffffffffffffff1614156154d157600098505050505050505050615506565b8415156154ed576154e28882615778565b156154ec57600194505b5b505080806001019150506153a9565b5081955050505050505b92915050565b600080823b905060008111915050919050565b600073ffffffffffffffffffffffffffffffffffffffff168173ffffffffffffffffffffffffffffffffffffffff161415151561555b57600080fd5b8073ffffffffffffffffffffffffffffffffffffffff166000809054906101000a900473ffffffffffffffffffffffffffffffffffffffff1673ffffffffffffffffffffffffffffffffffffffff167f8be0079c531659141344cd1fd0a4f28419497f9722a3daafe3b4186f6b6457e060405160405180910390a3806000806101000a81548173ffffffffffffffffffffffffffffffffffffffff021916908373ffffffffffffffffffffffffffffffffffffffff16021790555050565b600073ffffffffffffffffffffffffffffffffffffffff168173ffffffffffffffffffffffffffffffffffffffff161415151561565557600080fd5b61565f82826149a0565b15151561566b57600080fd5b60018260000160008373ffffffffffffffffffffffffffffffffffffffff1673ffffffffffffffffffffffffffffffffffffffff16815260200190815260200160002060006101000a81548160ff0219169083151502179055505050565b600073ffffffffffffffffffffffffffffffffffffffff168173ffffffffffffffffffffffffffffffffffffffff161415151561570557600080fd5b61570f82826149a0565b151561571a57600080fd5b60008260000160008373ffffffffffffffffffffffffffffffffffffffff1673ffffffffffffffffffffffffffffffffffffffff16815260200190815260200160002060006101000a81548160ff0219169083151502179055505050565b600081600201548360020154111561579357600090506157ba565b8160020154836002015410156157ac57600190506157ba565b816004015483600401541190505b92915050565b82805482825590600052602060002090810192821561584f579160200282015b8281111561584e57823573ffffffffffffffffffffffffffffffffffffffff168260006101000a81548173ffffffffffffffffffffffffffffffffffffffff021916908373ffffffffffffffffffffffffffffffffffffffff160217905550916020019190600101906157e0565b5b50905061585c9190615860565b5090565b6158a091905b8082111561589c57600081816101000a81549073ffffffffffffffffffffffffffffffffffffffff021916905550600101615866565b5090565b9056fea165627a7a723058208f8e269834d1366a03f6af68d33e735472435f7ddc66b2a37ad608c8ee7d7f0f00296080604052336000806101000a81548173ffffffffffffffffffffffffffffffffffffffff021916908373ffffffffffffffffffffffffffffffffffffffff1602179055507f4101e71e974f68df5e9730cc223280b41654676bbb052cdcc735c3337e64d2d96000809054906101000a900473ffffffffffffffffffffffffffffffffffffffff16604051808273ffffffffffffffffffffffffffffffffffffffff1673ffffffffffffffffffffffffffffffffffffffff16815260200191505060405180910390a16106f5806100d76000396000f3fe60806040526004361061006d576000357c0100000000000000000000000000000000000000000000000000000000900463ffffffff1680632348238c1461007257806351cff8d9146100c3578063c6dbdf6114610114578063e3a9db1a1461016b578063f340fa01146101d0575b600080fd5b34801561007e57600080fd5b506100c16004803603602081101561009557600080fd5b81019080803573ffffffffffffffffffffffffffffffffffffffff169060200190929190505050610214565b005b3480156100cf57600080fd5b50610112600480360360208110156100e657600080fd5b81019080803573ffffffffffffffffffffffffffffffffffffffff169060200190929190505050610372565b005b34801561012057600080fd5b506101296104ef565b604051808273ffffffffffffffffffffffffffffffffffffffff1673ffffffffffffffffffffffffffffffffffffffff16815260200191505060405180910390f35b34801561017757600080fd5b506101ba6004803603602081101561018e57600080fd5b81019080803573ffffffffffffffffffffffffffffffffffffffff169060200190929190505050610518565b6040518082815260200191505060405180910390f35b610212600480360360208110156101e657600080fd5b81019080803573ffffffffffffffffffffffffffffffffffffffff169060200190929190505050610561565b005b6000809054906101000a900473ffffffffffffffffffffffffffffffffffffffff1673ffffffffffffffffffffffffffffffffffffffff163373ffffffffffffffffffffffffffffffffffffffff1614151561026f57600080fd5b600073ffffffffffffffffffffffffffffffffffffffff168173ffffffffffffffffffffffffffffffffffffffff16141515156102ab57600080fd5b806000806101000a81548173ffffffffffffffffffffffffffffffffffffffff021916908373ffffffffffffffffffffffffffffffffffffffff1602179055507f4101e71e974f68df5e9730cc223280b41654676bbb052cdcc735c3337e64d2d96000809054906101000a900473ffffffffffffffffffffffffffffffffffffffff16604051808273ffffffffffffffffffffffffffffffffffffffff1673ffffffffffffffffffffffffffffffffffffffff16815260200191505060405180910390a150565b6000809054906101000a900473ffffffffffffffffffffffffffffffffffffffff1673ffffffffffffffffffffffffffffffffffffffff163373ffffffffffffffffffffffffffffffffffffffff161415156103cd57600080fd5b6000600160008373ffffffffffffffffffffffffffffffffffffffff1673ffffffffffffffffffffffffffffffffffffffff1681526020019081526020016000205490506000600160008473ffffffffffffffffffffffffffffffffffffffff1673ffffffffffffffffffffffffffffffffffffffff168152602001908152602001600020819055508173ffffffffffffffffffffffffffffffffffffffff166108fc829081150290604051600060405180830381858888f1935050505015801561049c573d6000803e3d6000fd5b508173ffffffffffffffffffffffffffffffffffffffff167f7084f5476618d8e60b11ef0d7d3f06914655adb8793e28ff7f018d4c76d505d5826040518082815260200191505060405180910390a25050565b60008060009054906101000a900473ffffffffffffffffffffffffffffffffffffffff16905090565b6000600160008373ffffffffffffffffffffffffffffffffffffffff1673ffffffffffffffffffffffffffffffffffffffff168152602001908152602001600020549050919050565b6000809054906101000a900473ffffffffffffffffffffffffffffffffffffffff1673ffffffffffffffffffffffffffffffffffffffff163373ffffffffffffffffffffffffffffffffffffffff161415156105bc57600080fd5b600034905061061381600160008573ffffffffffffffffffffffffffffffffffffffff1673ffffffffffffffffffffffffffffffffffffffff168152602001908152602001600020546106a890919063ffffffff16565b600160008473ffffffffffffffffffffffffffffffffffffffff1673ffffffffffffffffffffffffffffffffffffffff168152602001908152602001600020819055508173ffffffffffffffffffffffffffffffffffffffff167f2da466a7b24304f47e87fa2e1e5a81b9831ce54fec19055ce277ca2f39ba42c4826040518082815260200191505060405180910390a25050565b60008082840190508381101515156106bf57600080fd5b809150509291505056fea165627a7a72305820e333f68c23b9cc6e27cb443d78317ad386e93f32ff14992dc8287d08f6854cd70029",
  "source": "pragma solidity ^0.5.0;\n\nimport \"./lib/IPoLC.sol\";\nimport \"./lib/TokenUtil.sol\";\nimport \"openzeppelin-solidity/contracts/math/SafeMath.sol\";\nimport \"openzeppelin-solidity/contracts/token/ERC20/IERC20.sol\";\nimport \"openzeppelin-solidity/contracts/token/ERC20/SafeERC20.sol\";\nimport \"openzeppelin-solidity/contracts/payment/PullPayment.sol\";\nimport \"openzeppelin-solidity/contracts/access/roles/WhitelistedRole.sol\";\nimport \"openzeppelin-solidity/contracts/lifecycle/Pausable.sol\";\nimport \"openzeppelin-solidity/contracts/ownership/Ownable.sol\";\n\n/**\n * @title LiBA\n * @notice Contract allows service providers to send assets stored in PoLC through auction.\n */\ncontract LiBA is Ownable, Pausable, TokenUtil, PullPayment, WhitelistedRole {\n    using SafeERC20 for IERC20;\n    using SafeMath for uint;\n\n    struct Bid {\n        bytes32 hash;\n        uint commitmentId;\n        uint rate;\n        uint value;\n        uint celerValue;\n    }\n\n    struct Auction {\n        address payable asker;\n        address tokenAddress;\n        address collateralAddress;\n        uint collateraValue;\n        uint value;\n        uint duration;\n        uint maxRate;\n        uint minValue;\n        bool finalized;\n        address[] bidders;\n        address[] winners;\n        uint challengeDuration;\n        uint finalizeDuration;\n        uint bidEnd;\n        uint revealEnd;\n        uint claimEnd;\n        uint challengeEnd;\n        uint finalizeEnd;\n        uint lendingStart; // The timestamp when lending starts\n        uint feeDeposit;\n    }\n\n    uint constant private RATE_PRECISION = 100000;\n\n    IPoLC private polc;\n    uint private auctionCount;\n    bool private enableWhitelist;\n    IERC20 public celerToken;\n    mapping(uint => Auction) private auctions;\n    mapping(address => mapping(uint => Bid)) public bidsByUser;\n\n    event NewAuction(uint auctionId, address asker);\n    event NewBid(uint auctionId, address indexed bidder);\n    event UpdateBid(uint auctionId, address bidder);\n    event RevealBid(uint indexed auctionId, address bidder);\n    event ClaimWinners(uint indexed auctionId, address[] winners);\n    event ChallengeWinners(uint indexed auctionId, address challenger, address[] winners);\n    event FinalizeAuction(uint auctionId);\n    event RepayAuction(uint auctionId);\n    event CollectCollateral(uint auctionId, address winner);\n\n    constructor(\n        address _celerTokenAddress,\n        address _polcAddress,\n        bool _enableWhitelist\n    )\n        public\n    {\n        celerToken = IERC20(_celerTokenAddress);\n        polc = IPoLC(_polcAddress);\n        enableWhitelist = _enableWhitelist;\n\n        // Enable eth support by default\n        supportedTokens[address(0)] = true;\n    }\n\n    /**\n     * @notice Check if the sender is in the whitelist\n     */\n    modifier libaWhitelistCheck() {\n        if (enableWhitelist) {\n            require(\n                isWhitelisted(msg.sender),\n                \"WhitelistedRole: caller does not have the Whitelisted role\"\n            );\n        }\n        _;\n    }\n\n    function() external payable { }\n\n    function updateEnableWhitelist(bool _enable) external onlyOwner {\n        enableWhitelist = _enable;\n    }\n\n    /**\n     * @notice Launch a new auction\n     * @param _tokenAddress Token address to borrow\n     * @param _bidDuration Duration for bidding\n     * @param _revealDuration Duration for revealing\n     * @param _claimDuration Duration for claiming\n     * @param _challengeDuration Duration for challenging\n     * @param _finalizeDuration Duration for finalizing\n     * @param _value Total value asked\n     * @param _duration Duration for the lending\n     * @param _maxRate Maximum rate accepted\n     * @param _minValue Minimum value accepted\n     * @param _collateralAddress Collateral token address\n     * @param _collateralValue Collateral value\n     */\n    function initAuction(\n        address _tokenAddress,\n        uint _bidDuration,\n        uint _revealDuration,\n        uint _claimDuration,\n        uint _challengeDuration,\n        uint _finalizeDuration,\n        uint _value,\n        uint _duration,\n        uint _maxRate,\n        uint _minValue,\n        address _collateralAddress,\n        uint _collateralValue\n    )\n        external\n        payable\n        whenNotPaused\n        libaWhitelistCheck\n        validateToken(_collateralAddress, _collateralValue)\n    {\n        require(supportedTokens[_tokenAddress], \"token address must be supported\");\n        require(_bidDuration > 0, \"bid duration must be larger than zero\");\n        require(_revealDuration > 0, \"reveal duration must be larger than zero\");\n        require(_claimDuration > 0, \"claim duration must be larger than zero\");\n        require(_challengeDuration > 0, \"challenge duration must be larger than zero\");\n        require(_finalizeDuration > 0, \"finalize duration must be larger than zero\");\n        require(_value > 0, \"value must be larger than zero\");\n        require(_duration > 0, \"duration must be larger than zero\");\n\n        if (_collateralAddress != address(0)) {\n            IERC20(_collateralAddress).safeTransferFrom(msg.sender, address(this), _collateralValue);\n        }\n\n        Auction storage auction = auctions[auctionCount];\n        auction.asker = msg.sender;\n        auction.tokenAddress = _tokenAddress;\n        auction.collateralAddress = _collateralAddress;\n        auction.collateraValue = _collateralValue;\n        auction.challengeDuration = _challengeDuration;\n        auction.finalizeDuration = _finalizeDuration;\n        auction.value = _value;\n        auction.duration = _duration;\n        auction.maxRate = _maxRate;\n        auction.minValue = _minValue;\n        auction.bidEnd = block.number.add(_bidDuration);\n        auction.revealEnd = auction.bidEnd.add(_revealDuration);\n        auction.claimEnd = auction.revealEnd.add(_claimDuration);\n        auction.challengeEnd = auction.claimEnd.add(_challengeDuration);\n        auction.finalizeEnd = auction.challengeEnd.add(_finalizeDuration);\n\n        emit NewAuction(auctionCount, auction.asker);\n        auctionCount = auctionCount.add(1);\n    }\n\n    /**\n     * @notice Bid for an auction during the bidding period. If called more than once,\n     * it will update the existing bid for the sender. However, when the bid is updated,\n     * the previous Celer value will be forfeited\n     * @param _auctionId Id of the auction\n     * @param _hash Hash calculated from desired rate, value, celerValue and salt\n     * @param _celerValue Potential celer value for bidding, it can be larger than actual celer value\n     */\n    function placeBid(\n        uint _auctionId,\n        bytes32 _hash,\n        uint _celerValue\n    )\n        external\n        whenNotPaused\n    {\n        Auction storage auction = auctions[_auctionId];\n        require(block.number <= auction.bidEnd, \"must be within bid duration\");\n\n        Bid storage bid = bidsByUser[msg.sender][_auctionId];\n\n        if (bid.hash == 0) {\n            auction.bidders.push(msg.sender);\n            emit NewBid(_auctionId, msg.sender);\n        } else {\n            emit UpdateBid(_auctionId, msg.sender);\n        }\n\n        bid.hash = _hash;\n        bid.celerValue = _celerValue;\n        // Previous celer token will be forfeited if update bid\n        celerToken.safeTransferFrom(msg.sender, address(this), _celerValue);\n    }\n\n    /**\n     * @notice Reveal the bid of current user for an auction during the revealing period.\n     * It will calculate hash based on rate, value, celer value, and salt,\n     * and check if it is same as the hash provided in the bidding period.\n     * It will also check if commitment in PoLC has enough fund\n     * @param _auctionId Id of the auction\n     * @param _rate Interest rate for bidding\n     * @param _value Value for bidding\n     * @param _celerValue Celer value for bidding\n     * @param _salt A random value used for hash\n     * @param _commitmentId Commitment Id in PoLC belong to the sender\n     */\n    function revealBid(\n        uint _auctionId,\n        uint _rate,\n        uint _value,\n        uint _celerValue,\n        uint _salt,\n        uint _commitmentId\n    )\n        external\n        whenNotPaused\n    {\n        Auction storage auction = auctions[_auctionId];\n        require(block.number > auction.bidEnd, \"must be within reveal duration\");\n        require(block.number <= auction.revealEnd, \"must be within reveal duration\");\n        require(_rate <= auction.maxRate, \"rate must be smaller than maxRate\");\n        require(_value >= auction.minValue, \"value must be larger than minValue\");\n\n        Bid storage bid = bidsByUser[msg.sender][_auctionId];\n        bytes32 hash = keccak256(abi.encodePacked(_rate, _value, _celerValue, _salt));\n        require(hash == bid.hash, \"hash must be same as the bid hash\");\n\n        uint celerRefund = bid.celerValue.sub(_celerValue);\n        bid.celerValue = _celerValue;\n        if (celerRefund > 0) {\n            celerToken.safeTransfer(msg.sender, celerRefund);\n        }\n\n        bid.commitmentId = _commitmentId;\n        bid.rate = _rate;\n        bid.value = _value;\n        bid.hash = bytes32(0);\n        polc.lendCommitment(msg.sender, _commitmentId, auction.tokenAddress, _value);\n\n        emit RevealBid(_auctionId, msg.sender);\n    }\n\n    /**\n     * @notice The auction asker claims winners for the auction during the claim period\n     * @param _auctionId Id of the auction\n     * @param _winners A list of winner addresses\n     */\n    function claimWinners(\n        uint _auctionId,\n        address[] calldata _winners\n    )\n        external\n        whenNotPaused\n    {\n        Auction storage auction = auctions[_auctionId];\n        require(block.number > auction.revealEnd, \"must be within claim duration\");\n        require(block.number <= auction.claimEnd, \"must be within claim duration\");\n        require(msg.sender == auction.asker, \"sender must be the auction asker\");\n\n        auction.winners = _winners;\n        emit ClaimWinners(_auctionId, _winners);\n    }\n\n    /**\n     * @notice A potential winner, who is not claimed as one of the winners,\n     * is able to challenge the auction during the challenge period\n     * @param _auctionId Id of the auction\n     * @param _winners A list of winner addresses\n     */\n    function challengeWinners(\n        uint _auctionId,\n        address[] calldata _winners\n    )\n        external\n        whenNotPaused\n    {\n        Auction storage auction = auctions[_auctionId];\n        require(block.number > auction.claimEnd, \"must be within challenge\");\n        require(block.number <= auction.challengeEnd, \"must be within challenge duration\");\n        require(_validateChallenger(_auctionId, msg.sender), \"must be a valid challenger\");\n\n        auction.winners = _winners;\n        auction.challengeEnd = auction.challengeEnd.add(auction.challengeDuration);\n        auction.finalizeEnd = auction.challengeEnd.add(auction.finalizeDuration);\n\n        emit ChallengeWinners(_auctionId, msg.sender, _winners);\n    }\n\n    /**\n     * @notice Finalize the auction by withdrawing money from PoLC commitments during finalize period\n     * @param _auctionId Id of the auction\n     */\n    function finalizeAuction(uint _auctionId) external whenNotPaused {\n        Auction storage auction = auctions[_auctionId];\n        require(block.number > auction.challengeEnd,  \"must be within finalize duration\");\n        require(block.number <= auction.finalizeEnd,  \"must be within finalize duration\");\n        require(!auction.finalized, \"auction must not be finalized\");\n\n        auction.finalized = true;\n        address[] storage winners = auction.winners;\n        uint value = 0;\n        uint feeDeposit = 0;\n\n        uint i = 0;\n        // calculating the exact auction value from winner bids\n        for (; i < winners.length; i++) {\n            address winner = winners[i];\n            Bid storage winnerBid = bidsByUser[winner][_auctionId];\n            value = value.add(winnerBid.value);\n            feeDeposit = feeDeposit.add(polc.calculateReward(winnerBid.commitmentId));\n\n            if (value > auction.value) {\n                uint repayValue = value.sub(auction.value);\n                _repayCommitment(auction.tokenAddress, winner, winnerBid.commitmentId, repayValue);\n                winnerBid.value = winnerBid.value.sub(repayValue);\n                value = auction.value;\n                break;\n            }\n        }\n\n        // return rest of winners fund\n        for (; i < winners.length; i++) {\n            address winner = winners[i];\n            Bid storage winnerBid = bidsByUser[winner][_auctionId];\n            _repayCommitment(auction.tokenAddress, winner, winnerBid.commitmentId, winnerBid.value);\n            celerToken.safeTransfer(winner, winnerBid.celerValue);\n            winnerBid.celerValue = 0;\n            winnerBid.rate = 0;\n            winnerBid.value = 0;\n        }\n\n        celerToken.safeTransferFrom(msg.sender, address(this), feeDeposit);\n        _transfer(auction.tokenAddress, auction.asker, value);\n        auction.lendingStart = block.timestamp;\n        auction.feeDeposit = feeDeposit;\n\n        emit FinalizeAuction(_auctionId);\n    }\n\n    /**\n     * @notice Finalize the bid for bidders, who are not selected as winners,\n     * or the asker fails to finalize the auction before finalize period\n     * @param _auctionId Id of the auction\n     */\n    function finalizeBid(uint _auctionId) external whenNotPaused {\n        bool allowWithdraw = false;\n        Auction storage auction = auctions[_auctionId];\n\n        if (auction.finalized) {\n            allowWithdraw = !_checkWinner(_auctionId, msg.sender);\n        } else {\n            allowWithdraw = block.number > auction.finalizeEnd;\n        }\n        require(allowWithdraw, \"you are not allowed to withdraw currently\");\n\n        Bid storage bid = bidsByUser[msg.sender][_auctionId];\n        require(bid.value > 0, \"you do not have valid bid\");\n\n        _repayCommitment(auction.tokenAddress, msg.sender, bid.commitmentId, bid.value);\n        celerToken.safeTransfer(msg.sender, bid.celerValue);\n        bid.celerValue = 0;\n        bid.rate = 0;\n        bid.value = 0;\n    }\n\n    /**\n     * @notice Repay the auction with original assets and interests after lending ends\n     * It will send collateral back to asker if there is any\n     * @param _auctionId Id of the auction\n     */\n    function repayAuction(uint _auctionId) external payable whenNotPaused {\n        Auction storage auction = auctions[_auctionId];\n        require(auction.finalized, \"auction must be finalized\");\n        require(msg.sender == auction.asker, \"sender must be the auction asker\");\n        require(block.timestamp <= auction.lendingStart.add(auction.duration.mul(1 days)),  \"must be within auction lending duration\");\n\n        bool isEth = auction.tokenAddress == address(0);\n        IERC20 token = IERC20(auction.tokenAddress);\n        uint value = msg.value;\n        uint actualDuration = block.timestamp.sub(auction.lendingStart).div(1 days);\n\n        address[] storage winners = auction.winners;\n        for (uint i = 0; i < winners.length; i++) {\n            address winner = winners[i];\n            Bid storage winnerBid = bidsByUser[winner][_auctionId];\n            uint bidValue = winnerBid.value;\n            uint interest = bidValue.mul(winnerBid.rate).mul(actualDuration).div(RATE_PRECISION);\n            winnerBid.value = 0;\n\n            if (isEth) {\n                value = value.sub(bidValue).sub(interest);\n                polc.repayCommitment.value(bidValue)(winner, winnerBid.commitmentId, auction.asker, bidValue);\n                _asyncTransfer(winner, interest);\n            } else {\n                polc.repayCommitment(winner, winnerBid.commitmentId, auction.asker, bidValue);\n                token.safeTransferFrom(auction.asker, winner, interest);\n            }\n        }\n\n        if (auction.collateraValue > 0) {\n            _transfer(auction.collateralAddress, auction.asker, auction.collateraValue);\n        }\n\n        uint borrowFee = polc.calculateAuctionFee(auction.tokenAddress, value, actualDuration);\n        celerToken.safeTransfer(auction.asker, auction.feeDeposit);\n        celerToken.safeTransferFrom(auction.asker, address(polc), borrowFee);\n        emit RepayAuction(_auctionId);\n    }\n\n    /**\n     * @notice Collect the collateral of the auction if lending is not repaid\n     * @param _auctionId Id of the auction\n     */\n    function collectCollateral(uint _auctionId) external whenNotPaused {\n        Auction storage auction = auctions[_auctionId];\n        require(auction.finalized, \"auction must be finalized\");\n        require(block.number > auction.lendingStart.add(auction.duration.mul(1 days)),  \"must pass auction lending duration\");\n        require(_checkWinner(_auctionId, msg.sender), \"sender must be a winner\");\n\n        Bid storage winnerBid = bidsByUser[msg.sender][_auctionId];\n        require(winnerBid.value > 0, \"bid value must be larger than zero\");\n\n        uint collateralReward = auction.collateraValue.mul(winnerBid.value).div(auction.value);\n        winnerBid.value = 0;\n        _transfer(auction.collateralAddress, msg.sender, collateralReward);\n        emit CollectCollateral(_auctionId, msg.sender);\n    }\n\n    /**\n     * @notice Get auction info\n     * @param _auctionId Id of the auction\n     */\n    function getAuction(\n        uint _auctionId\n    )\n        external\n        view\n        returns (\n            address asker,\n            address tokenAddress,\n            address collateralAddress,\n            uint collateraValue,\n            uint value,\n            uint duration,\n            uint maxRate,\n            uint minValue\n        )\n    {\n        Auction storage auction = auctions[_auctionId];\n\n        asker = auction.asker;\n        tokenAddress = auction.tokenAddress;\n        collateralAddress = auction.collateralAddress;\n        collateraValue = auction.collateraValue;\n        value = auction.value;\n        duration = auction.duration;\n        maxRate = auction.maxRate;\n        minValue = auction.minValue;\n    }\n\n    /**\n     * @notice Get auction period\n     * @param _auctionId Id of the auction\n     */\n    function getAuctionPeriod(\n        uint _auctionId\n    )\n        external\n        view\n        returns (\n            uint bidEnd,\n            uint revealEnd,\n            uint claimEnd,\n            uint challengeEnd,\n            uint finalizeEnd,\n            bool finalized\n        )\n    {\n        Auction storage auction = auctions[_auctionId];\n\n        bidEnd = auction.bidEnd;\n        revealEnd = auction.revealEnd;\n        claimEnd = auction.claimEnd;\n        challengeEnd = auction.challengeEnd;\n        finalizeEnd = auction.finalizeEnd;\n        finalized = auction.finalized;\n    }\n\n    /**\n     * @notice Validate if challenger is valid one\n     * @param _auctionId Id of the auction\n     * @param _challenger Address for challenger, who may have higher score than current winners\n     */\n    function _validateChallenger(\n        uint _auctionId,\n        address _challenger\n    )\n        private\n        view\n        returns(bool)\n    {\n        Bid storage challengerBid = bidsByUser[_challenger][_auctionId];\n        require(challengerBid.value > 0, \"must be valid bid\");\n\n        Auction storage auction = auctions[_auctionId];\n        address[] storage winners = auction.winners;\n        bool isHigherRank = false;\n        uint totalValue = 0;\n\n        for (uint i = 0; i < winners.length; i++) {\n            address winner = winners[i];\n            Bid storage winnerBid = bidsByUser[winner][_auctionId];\n\n            if (totalValue >= auction.value && i < winners.length) {\n                return true;\n            }\n            totalValue = totalValue.add(winnerBid.value);\n\n            if (winner == _challenger) {\n                return false;\n            }\n\n            if (!isHigherRank) {\n                if (_hasHigherRank(challengerBid, winnerBid)) {\n                    isHigherRank = true;\n                }\n            }\n        }\n\n        return isHigherRank;\n    }\n\n    /**\n     * @notice Compare bids of corresponding bidders, return true if bidder0 has a higher rank\n     * @param _bid0  A bid\n     * @param _bid1 A bid\n     */\n    function _hasHigherRank(\n        Bid storage _bid0,\n        Bid storage _bid1\n    )\n        private\n        view\n        returns(bool)\n    {\n        if (_bid0.rate > _bid1.rate) {\n            return false;\n        }\n\n        if (_bid0.rate < _bid1.rate) {\n            return true;\n        }\n\n        return _bid0.celerValue > _bid1.celerValue;\n    }\n\n    /**\n     * @notice Check if the bidder is winner\n     * @param _auctionId Id of the auction\n     * @param _bidder a bidder address\n     */\n    function _checkWinner(\n        uint _auctionId,\n        address _bidder\n    )\n        private\n        view\n        returns(bool)\n    {\n        Auction storage auction = auctions[_auctionId];\n        address[] storage winners = auction.winners;\n\n        for (uint i = 0; i < winners.length; i++) {\n            if (winners[i] == _bidder) {\n                return true;\n            }\n        }\n\n        return false;\n    }\n\n    /**\n     * @notice Helper function to repay the fund in commitment\n     * @param _tokenAddress Token address\n     * @param _user Owner of the commitment\n     * @param _commitmentId Commitment ID\n     * @param _value Value to repay\n     */\n    function _repayCommitment(\n        address _tokenAddress,\n        address _user,\n        uint _commitmentId,\n        uint _value\n    )\n        private\n    {\n        bool isEth = _tokenAddress == address(0);\n\n        if (isEth) {\n            polc.repayCommitment.value(_value)(_user, _commitmentId, address(this), _value);\n        } else {\n            IERC20(_tokenAddress).approve(address(polc), _value);\n            polc.repayCommitment(_user, _commitmentId, address(this), _value);\n        }\n    }\n}\n",
  "sourcePath": "/Users/zhuxuefeng/mygit/celer/cEconomy/contracts/LiBA.sol",
  "compiler": {
    "name": "solc",
    "version": "0.5.0+commit.1d4f565a.Emscripten.clang"
  },
  "schemaVersion": "3.0.1",
  "updatedAt": "2019-10-01T19:21:58.123Z",
  "devdoc": {
    "methods": {
      "challengeWinners(uint256,address[])": {
        "params": {
          "_auctionId": "Id of the auction",
          "_winners": "A list of winner addresses"
        }
      },
      "claimWinners(uint256,address[])": {
        "params": {
          "_auctionId": "Id of the auction",
          "_winners": "A list of winner addresses"
        }
      },
      "collectCollateral(uint256)": {
        "params": {
          "_auctionId": "Id of the auction"
        }
      },
      "drainToken(address,uint256)": {
        "details": "This is for emergency situations.",
        "params": {
          "_amount": "drained token amount",
          "_tokenAddress": "address of token to drain"
        }
      },
      "finalizeAuction(uint256)": {
        "params": {
          "_auctionId": "Id of the auction"
        }
      },
      "finalizeBid(uint256)": {
        "params": {
          "_auctionId": "Id of the auction"
        }
      },
      "getAuction(uint256)": {
        "params": {
          "_auctionId": "Id of the auction"
        }
      },
      "getAuctionPeriod(uint256)": {
        "params": {
          "_auctionId": "Id of the auction"
        }
      },
      "initAuction(address,uint256,uint256,uint256,uint256,uint256,uint256,uint256,uint256,uint256,address,uint256)": {
        "params": {
          "_bidDuration": "Duration for bidding",
          "_challengeDuration": "Duration for challenging",
          "_claimDuration": "Duration for claiming",
          "_collateralAddress": "Collateral token address",
          "_collateralValue": "Collateral value",
          "_duration": "Duration for the lending",
          "_finalizeDuration": "Duration for finalizing",
          "_maxRate": "Maximum rate accepted",
          "_minValue": "Minimum value accepted",
          "_revealDuration": "Duration for revealing",
          "_tokenAddress": "Token address to borrow",
          "_value": "Total value asked"
        }
      },
      "isOwner()": {
        "return": "true if `msg.sender` is the owner of the contract."
      },
      "owner()": {
        "return": "the address of the owner."
      },
      "pause()": {
        "details": "called by the owner to pause, triggers stopped state"
      },
      "paused()": {
        "return": "true if the contract is paused, false otherwise."
      },
      "payments(address)": {
        "details": "Returns the credit owed to an address.",
        "params": {
          "dest": "The creditor's address."
        }
      },
      "placeBid(uint256,bytes32,uint256)": {
        "params": {
          "_auctionId": "Id of the auction",
          "_celerValue": "Potential celer value for bidding, it can be larger than actual celer value",
          "_hash": "Hash calculated from desired rate, value, celerValue and salt"
        }
      },
      "renounceOwnership()": {
        "details": "Allows the current owner to relinquish control of the contract."
      },
      "repayAuction(uint256)": {
        "params": {
          "_auctionId": "Id of the auction"
        }
      },
      "revealBid(uint256,uint256,uint256,uint256,uint256,uint256)": {
        "params": {
          "_auctionId": "Id of the auction",
          "_celerValue": "Celer value for bidding",
          "_commitmentId": "Commitment Id in PoLC belong to the sender",
          "_rate": "Interest rate for bidding",
          "_salt": "A random value used for hash",
          "_value": "Value for bidding"
        }
      },
      "transferOwnership(address)": {
        "details": "Allows the current owner to transfer control of the contract to a newOwner.",
        "params": {
          "newOwner": "The address to transfer ownership to."
        }
      },
      "unpause()": {
        "details": "called by the owner to unpause, returns to normal state"
      },
      "updateSupportedToken(address,bool)": {
        "params": {
          "_supported": "If the token is supported",
          "_tokenAddress": "Token address"
        }
      },
      "withdrawPayments(address)": {
        "details": "Withdraw accumulated balance.",
        "params": {
          "payee": "Whose balance will be withdrawn."
        }
      }
    },
    "title": "LiBA"
  },
  "userdoc": {
    "methods": {
      "challengeWinners(uint256,address[])": {
        "notice": "A potential winner, who is not claimed as one of the winners, is able to challenge the auction during the challenge period"
      },
      "claimWinners(uint256,address[])": {
        "notice": "The auction asker claims winners for the auction during the claim period"
      },
      "collectCollateral(uint256)": {
        "notice": "Collect the collateral of the auction if lending is not repaid"
      },
      "drainToken(address,uint256)": {
        "notice": "Onwer drains one type of tokens when the contract is paused"
      },
      "finalizeAuction(uint256)": {
        "notice": "Finalize the auction by withdrawing money from PoLC commitments during finalize period"
      },
      "finalizeBid(uint256)": {
        "notice": "Finalize the bid for bidders, who are not selected as winners, or the asker fails to finalize the auction before finalize period"
      },
      "getAuction(uint256)": {
        "notice": "Get auction info"
      },
      "getAuctionPeriod(uint256)": {
        "notice": "Get auction period"
      },
      "initAuction(address,uint256,uint256,uint256,uint256,uint256,uint256,uint256,uint256,uint256,address,uint256)": {
        "notice": "Launch a new auction"
      },
      "placeBid(uint256,bytes32,uint256)": {
        "notice": "Bid for an auction during the bidding period. If called more than once, it will update the existing bid for the sender. However, when the bid is updated, the previous Celer value will be forfeited"
      },
      "renounceOwnership()": {
        "notice": "Renouncing to ownership will leave the contract without an owner. It will not be possible to call the functions with the `onlyOwner` modifier anymore."
      },
      "repayAuction(uint256)": {
        "notice": "Repay the auction with original assets and interests after lending ends It will send collateral back to asker if there is any"
      },
      "revealBid(uint256,uint256,uint256,uint256,uint256,uint256)": {
        "notice": "Reveal the bid of current user for an auction during the revealing period. It will calculate hash based on rate, value, celer value, and salt, and check if it is same as the hash provided in the bidding period. It will also check if commitment in PoLC has enough fund"
      },
      "updateSupportedToken(address,bool)": {
        "notice": "Update a token in the supported list"
      }
    },
    "notice": "Contract allows service providers to send assets stored in PoLC through auction."
  }
}