{
  "contractName": "LiBA",
  "abi": [
    {
      "constant": false,
      "inputs": [
        {
          "name": "account",
          "type": "address"
        }
      ],
      "name": "addWhitelisted",
      "outputs": [],
      "payable": false,
      "stateMutability": "nonpayable",
      "type": "function"
    },
    {
      "constant": false,
      "inputs": [
        {
          "name": "account",
          "type": "address"
        }
      ],
      "name": "removeWhitelisted",
      "outputs": [],
      "payable": false,
      "stateMutability": "nonpayable",
      "type": "function"
    },
    {
      "constant": false,
      "inputs": [
        {
          "name": "payee",
          "type": "address"
        }
      ],
      "name": "withdrawPayments",
      "outputs": [],
      "payable": false,
      "stateMutability": "nonpayable",
      "type": "function"
    },
    {
      "constant": true,
      "inputs": [
        {
          "name": "account",
          "type": "address"
        }
      ],
      "name": "isWhitelisted",
      "outputs": [
        {
          "name": "",
          "type": "bool"
        }
      ],
      "payable": false,
      "stateMutability": "view",
      "type": "function"
    },
    {
      "constant": false,
      "inputs": [],
      "name": "unpause",
      "outputs": [],
      "payable": false,
      "stateMutability": "nonpayable",
      "type": "function"
    },
    {
      "constant": true,
      "inputs": [
        {
          "name": "account",
          "type": "address"
        }
      ],
      "name": "isPauser",
      "outputs": [
        {
          "name": "",
          "type": "bool"
        }
      ],
      "payable": false,
      "stateMutability": "view",
      "type": "function"
    },
    {
      "constant": false,
      "inputs": [],
      "name": "renounceWhitelistAdmin",
      "outputs": [],
      "payable": false,
      "stateMutability": "nonpayable",
      "type": "function"
    },
    {
      "constant": true,
      "inputs": [],
      "name": "paused",
      "outputs": [
        {
          "name": "",
          "type": "bool"
        }
      ],
      "payable": false,
      "stateMutability": "view",
      "type": "function"
    },
    {
      "constant": true,
      "inputs": [
        {
          "name": "",
          "type": "address"
        }
      ],
      "name": "supportedTokens",
      "outputs": [
        {
          "name": "",
          "type": "bool"
        }
      ],
      "payable": false,
      "stateMutability": "view",
      "type": "function"
    },
    {
      "constant": false,
      "inputs": [],
      "name": "renouncePauser",
      "outputs": [],
      "payable": false,
      "stateMutability": "nonpayable",
      "type": "function"
    },
    {
      "constant": false,
      "inputs": [],
      "name": "renounceOwnership",
      "outputs": [],
      "payable": false,
      "stateMutability": "nonpayable",
      "type": "function"
    },
    {
      "constant": false,
      "inputs": [
        {
          "name": "account",
          "type": "address"
        }
      ],
      "name": "addWhitelistAdmin",
      "outputs": [],
      "payable": false,
      "stateMutability": "nonpayable",
      "type": "function"
    },
    {
      "constant": false,
      "inputs": [
        {
          "name": "account",
          "type": "address"
        }
      ],
      "name": "addPauser",
      "outputs": [],
      "payable": false,
      "stateMutability": "nonpayable",
      "type": "function"
    },
    {
      "constant": false,
      "inputs": [],
      "name": "pause",
      "outputs": [],
      "payable": false,
      "stateMutability": "nonpayable",
      "type": "function"
    },
    {
      "constant": true,
      "inputs": [],
      "name": "owner",
      "outputs": [
        {
          "name": "",
          "type": "address"
        }
      ],
      "payable": false,
      "stateMutability": "view",
      "type": "function"
    },
    {
      "constant": true,
      "inputs": [],
      "name": "isOwner",
      "outputs": [
        {
          "name": "",
          "type": "bool"
        }
      ],
      "payable": false,
      "stateMutability": "view",
      "type": "function"
    },
    {
      "constant": false,
      "inputs": [
        {
          "name": "_tokenAddress",
          "type": "address"
        },
        {
          "name": "_amount",
          "type": "uint256"
        }
      ],
      "name": "drainToken",
      "outputs": [],
      "payable": false,
      "stateMutability": "nonpayable",
      "type": "function"
    },
    {
      "constant": true,
      "inputs": [
        {
          "name": "",
          "type": "address"
        },
        {
          "name": "",
          "type": "uint256"
        }
      ],
      "name": "bidsByUser",
      "outputs": [
        {
          "name": "hash",
          "type": "bytes32"
        },
        {
          "name": "commitmentId",
          "type": "uint256"
        },
        {
          "name": "rate",
          "type": "uint256"
        },
        {
          "name": "value",
          "type": "uint256"
        },
        {
          "name": "celerValue",
          "type": "uint256"
        }
      ],
      "payable": false,
      "stateMutability": "view",
      "type": "function"
    },
    {
      "constant": true,
      "inputs": [
        {
          "name": "account",
          "type": "address"
        }
      ],
      "name": "isWhitelistAdmin",
      "outputs": [
        {
          "name": "",
          "type": "bool"
        }
      ],
      "payable": false,
      "stateMutability": "view",
      "type": "function"
    },
    {
      "constant": true,
      "inputs": [],
      "name": "celerToken",
      "outputs": [
        {
          "name": "",
          "type": "address"
        }
      ],
      "payable": false,
      "stateMutability": "view",
      "type": "function"
    },
    {
      "constant": false,
      "inputs": [],
      "name": "renounceWhitelisted",
      "outputs": [],
      "payable": false,
      "stateMutability": "nonpayable",
      "type": "function"
    },
    {
      "constant": true,
      "inputs": [
        {
          "name": "dest",
          "type": "address"
        }
      ],
      "name": "payments",
      "outputs": [
        {
          "name": "",
          "type": "uint256"
        }
      ],
      "payable": false,
      "stateMutability": "view",
      "type": "function"
    },
    {
      "constant": false,
      "inputs": [
        {
          "name": "_tokenAddress",
          "type": "address"
        },
        {
          "name": "_supported",
          "type": "bool"
        }
      ],
      "name": "updateSupportedToken",
      "outputs": [],
      "payable": false,
      "stateMutability": "nonpayable",
      "type": "function"
    },
    {
      "constant": false,
      "inputs": [
        {
          "name": "newOwner",
          "type": "address"
        }
      ],
      "name": "transferOwnership",
      "outputs": [],
      "payable": false,
      "stateMutability": "nonpayable",
      "type": "function"
    },
    {
      "inputs": [
        {
          "name": "_celerTokenAddress",
          "type": "address"
        },
        {
          "name": "_polcAddress",
          "type": "address"
        },
        {
          "name": "_enableWhitelist",
          "type": "bool"
        }
      ],
      "payable": false,
      "stateMutability": "nonpayable",
      "type": "constructor"
    },
    {
      "payable": true,
      "stateMutability": "payable",
      "type": "fallback"
    },
    {
      "anonymous": false,
      "inputs": [
        {
          "indexed": false,
          "name": "auctionId",
          "type": "uint256"
        },
        {
          "indexed": false,
          "name": "asker",
          "type": "address"
        }
      ],
      "name": "NewAuction",
      "type": "event"
    },
    {
      "anonymous": false,
      "inputs": [
        {
          "indexed": false,
          "name": "auctionId",
          "type": "uint256"
        },
        {
          "indexed": true,
          "name": "bidder",
          "type": "address"
        }
      ],
      "name": "NewBid",
      "type": "event"
    },
    {
      "anonymous": false,
      "inputs": [
        {
          "indexed": false,
          "name": "auctionId",
          "type": "uint256"
        },
        {
          "indexed": false,
          "name": "bidder",
          "type": "address"
        }
      ],
      "name": "UpdateBid",
      "type": "event"
    },
    {
      "anonymous": false,
      "inputs": [
        {
          "indexed": true,
          "name": "auctionId",
          "type": "uint256"
        },
        {
          "indexed": false,
          "name": "bidder",
          "type": "address"
        }
      ],
      "name": "RevealBid",
      "type": "event"
    },
    {
      "anonymous": false,
      "inputs": [
        {
          "indexed": true,
          "name": "auctionId",
          "type": "uint256"
        },
        {
          "indexed": false,
          "name": "winners",
          "type": "address[]"
        },
        {
          "indexed": false,
          "name": "topLoser",
          "type": "address"
        }
      ],
      "name": "ClaimWinners",
      "type": "event"
    },
    {
      "anonymous": false,
      "inputs": [
        {
          "indexed": true,
          "name": "auctionId",
          "type": "uint256"
        },
        {
          "indexed": false,
          "name": "challenger",
          "type": "address"
        },
        {
          "indexed": false,
          "name": "winners",
          "type": "address[]"
        },
        {
          "indexed": false,
          "name": "topLoser",
          "type": "address"
        }
      ],
      "name": "ChallengeWinners",
      "type": "event"
    },
    {
      "anonymous": false,
      "inputs": [
        {
          "indexed": false,
          "name": "auctionId",
          "type": "uint256"
        }
      ],
      "name": "FinalizeAuction",
      "type": "event"
    },
    {
      "anonymous": false,
      "inputs": [
        {
          "indexed": false,
          "name": "auctionId",
          "type": "uint256"
        },
        {
          "indexed": false,
          "name": "bidder",
          "type": "address"
        }
      ],
      "name": "FinalizeBid",
      "type": "event"
    },
    {
      "anonymous": false,
      "inputs": [
        {
          "indexed": false,
          "name": "auctionId",
          "type": "uint256"
        }
      ],
      "name": "RepayAuction",
      "type": "event"
    },
    {
      "anonymous": false,
      "inputs": [
        {
          "indexed": false,
          "name": "auctionId",
          "type": "uint256"
        },
        {
          "indexed": false,
          "name": "winner",
          "type": "address"
        }
      ],
      "name": "CollectCollateral",
      "type": "event"
    },
    {
      "anonymous": false,
      "inputs": [
        {
          "indexed": true,
          "name": "account",
          "type": "address"
        }
      ],
      "name": "WhitelistedAdded",
      "type": "event"
    },
    {
      "anonymous": false,
      "inputs": [
        {
          "indexed": true,
          "name": "account",
          "type": "address"
        }
      ],
      "name": "WhitelistedRemoved",
      "type": "event"
    },
    {
      "anonymous": false,
      "inputs": [
        {
          "indexed": true,
          "name": "account",
          "type": "address"
        }
      ],
      "name": "WhitelistAdminAdded",
      "type": "event"
    },
    {
      "anonymous": false,
      "inputs": [
        {
          "indexed": true,
          "name": "account",
          "type": "address"
        }
      ],
      "name": "WhitelistAdminRemoved",
      "type": "event"
    },
    {
      "anonymous": false,
      "inputs": [
        {
          "indexed": true,
          "name": "tokenAddress",
          "type": "address"
        },
        {
          "indexed": false,
          "name": "supported",
          "type": "bool"
        }
      ],
      "name": "UpdateSupportedToken",
      "type": "event"
    },
    {
      "anonymous": false,
      "inputs": [
        {
          "indexed": false,
          "name": "tokenAddress",
          "type": "address"
        },
        {
          "indexed": false,
          "name": "amount",
          "type": "uint256"
        }
      ],
      "name": "DrainToken",
      "type": "event"
    },
    {
      "anonymous": false,
      "inputs": [
        {
          "indexed": false,
          "name": "account",
          "type": "address"
        }
      ],
      "name": "Paused",
      "type": "event"
    },
    {
      "anonymous": false,
      "inputs": [
        {
          "indexed": false,
          "name": "account",
          "type": "address"
        }
      ],
      "name": "Unpaused",
      "type": "event"
    },
    {
      "anonymous": false,
      "inputs": [
        {
          "indexed": true,
          "name": "account",
          "type": "address"
        }
      ],
      "name": "PauserAdded",
      "type": "event"
    },
    {
      "anonymous": false,
      "inputs": [
        {
          "indexed": true,
          "name": "account",
          "type": "address"
        }
      ],
      "name": "PauserRemoved",
      "type": "event"
    },
    {
      "anonymous": false,
      "inputs": [
        {
          "indexed": true,
          "name": "previousOwner",
          "type": "address"
        },
        {
          "indexed": true,
          "name": "newOwner",
          "type": "address"
        }
      ],
      "name": "OwnershipTransferred",
      "type": "event"
    },
    {
      "constant": false,
      "inputs": [
        {
          "name": "_enable",
          "type": "bool"
        }
      ],
      "name": "updateEnableWhitelist",
      "outputs": [],
      "payable": false,
      "stateMutability": "nonpayable",
      "type": "function"
    },
    {
      "constant": false,
      "inputs": [
        {
          "name": "_tokenAddress",
          "type": "address"
        },
        {
          "name": "_bidDuration",
          "type": "uint256"
        },
        {
          "name": "_revealDuration",
          "type": "uint256"
        },
        {
          "name": "_claimDuration",
          "type": "uint256"
        },
        {
          "name": "_challengeDuration",
          "type": "uint256"
        },
        {
          "name": "_finalizeDuration",
          "type": "uint256"
        },
        {
          "name": "_value",
          "type": "uint256"
        },
        {
          "name": "_duration",
          "type": "uint256"
        },
        {
          "name": "_maxRate",
          "type": "uint256"
        },
        {
          "name": "_minValue",
          "type": "uint256"
        },
        {
          "name": "_collateralAddress",
          "type": "address"
        },
        {
          "name": "_collateralValue",
          "type": "uint256"
        }
      ],
      "name": "initAuction",
      "outputs": [],
      "payable": true,
      "stateMutability": "payable",
      "type": "function"
    },
    {
      "constant": false,
      "inputs": [
        {
          "name": "_auctionId",
          "type": "uint256"
        },
        {
          "name": "_hash",
          "type": "bytes32"
        },
        {
          "name": "_celerValue",
          "type": "uint256"
        }
      ],
      "name": "placeBid",
      "outputs": [],
      "payable": false,
      "stateMutability": "nonpayable",
      "type": "function"
    },
    {
      "constant": false,
      "inputs": [
        {
          "name": "_auctionId",
          "type": "uint256"
        },
        {
          "name": "_rate",
          "type": "uint256"
        },
        {
          "name": "_value",
          "type": "uint256"
        },
        {
          "name": "_celerValue",
          "type": "uint256"
        },
        {
          "name": "_salt",
          "type": "uint256"
        },
        {
          "name": "_commitmentId",
          "type": "uint256"
        }
      ],
      "name": "revealBid",
      "outputs": [],
      "payable": false,
      "stateMutability": "nonpayable",
      "type": "function"
    },
    {
      "constant": false,
      "inputs": [
        {
          "name": "_auctionId",
          "type": "uint256"
        },
        {
          "name": "_winners",
          "type": "address[]"
        },
        {
          "name": "_topLoser",
          "type": "address"
        }
      ],
      "name": "claimWinners",
      "outputs": [],
      "payable": false,
      "stateMutability": "nonpayable",
      "type": "function"
    },
    {
      "constant": false,
      "inputs": [
        {
          "name": "_auctionId",
          "type": "uint256"
        },
        {
          "name": "_winners",
          "type": "address[]"
        },
        {
          "name": "_topLoser",
          "type": "address"
        }
      ],
      "name": "challengeWinners",
      "outputs": [],
      "payable": false,
      "stateMutability": "nonpayable",
      "type": "function"
    },
    {
      "constant": false,
      "inputs": [
        {
          "name": "_auctionId",
          "type": "uint256"
        }
      ],
      "name": "finalizeAuction",
      "outputs": [],
      "payable": false,
      "stateMutability": "nonpayable",
      "type": "function"
    },
    {
      "constant": false,
      "inputs": [
        {
          "name": "_auctionId",
          "type": "uint256"
        }
      ],
      "name": "finalizeBid",
      "outputs": [],
      "payable": false,
      "stateMutability": "nonpayable",
      "type": "function"
    },
    {
      "constant": false,
      "inputs": [
        {
          "name": "_auctionId",
          "type": "uint256"
        }
      ],
      "name": "repayAuction",
      "outputs": [],
      "payable": true,
      "stateMutability": "payable",
      "type": "function"
    },
    {
      "constant": false,
      "inputs": [
        {
          "name": "_auctionId",
          "type": "uint256"
        }
      ],
      "name": "collectCollateral",
      "outputs": [],
      "payable": false,
      "stateMutability": "nonpayable",
      "type": "function"
    },
    {
      "constant": true,
      "inputs": [
        {
          "name": "_auctionId",
          "type": "uint256"
        }
      ],
      "name": "getAuction",
      "outputs": [
        {
          "name": "asker",
          "type": "address"
        },
        {
          "name": "tokenAddress",
          "type": "address"
        },
        {
          "name": "collateralAddress",
          "type": "address"
        },
        {
          "name": "collateraValue",
          "type": "uint256"
        },
        {
          "name": "value",
          "type": "uint256"
        },
        {
          "name": "duration",
          "type": "uint256"
        },
        {
          "name": "maxRate",
          "type": "uint256"
        },
        {
          "name": "minValue",
          "type": "uint256"
        }
      ],
      "payable": false,
      "stateMutability": "view",
      "type": "function"
    },
    {
      "constant": true,
      "inputs": [
        {
          "name": "_auctionId",
          "type": "uint256"
        }
      ],
      "name": "getAuctionPeriod",
      "outputs": [
        {
          "name": "bidEnd",
          "type": "uint256"
        },
        {
          "name": "revealEnd",
          "type": "uint256"
        },
        {
          "name": "claimEnd",
          "type": "uint256"
        },
        {
          "name": "challengeEnd",
          "type": "uint256"
        },
        {
          "name": "finalizeEnd",
          "type": "uint256"
        },
        {
          "name": "finalized",
          "type": "bool"
        }
      ],
      "payable": false,
      "stateMutability": "view",
      "type": "function"
    }
  ],
  "bytecode": "0x60806040523480156200001157600080fd5b5060405160608062005727833981018060405260608110156200003357600080fd5b81019080805190602001909291908051906020019092919080519060200190929190505050336000806101000a81548173ffffffffffffffffffffffffffffffffffffffff021916908373ffffffffffffffffffffffffffffffffffffffff1602179055506000809054906101000a900473ffffffffffffffffffffffffffffffffffffffff1673ffffffffffffffffffffffffffffffffffffffff16600073ffffffffffffffffffffffffffffffffffffffff167f8be0079c531659141344cd1fd0a4f28419497f9722a3daafe3b4186f6b6457e060405160405180910390a36200012533620002ba60201b60201c565b6000600260006101000a81548160ff0219169083151502179055506040516200014e90620004c5565b604051809103906000f0801580156200016b573d6000803e3d6000fd5b50600460006101000a81548173ffffffffffffffffffffffffffffffffffffffff021916908373ffffffffffffffffffffffffffffffffffffffff160217905550620001bd336200031b60201b60201c565b82600960016101000a81548173ffffffffffffffffffffffffffffffffffffffff021916908373ffffffffffffffffffffffffffffffffffffffff16021790555081600760006101000a81548173ffffffffffffffffffffffffffffffffffffffff021916908373ffffffffffffffffffffffffffffffffffffffff16021790555080600960006101000a81548160ff0219169083151502179055506001600360008073ffffffffffffffffffffffffffffffffffffffff1673ffffffffffffffffffffffffffffffffffffffff16815260200190815260200160002060006101000a81548160ff021916908315150217905550505050620004d3565b620002d58160016200037c60201b620046891790919060201c565b8073ffffffffffffffffffffffffffffffffffffffff167f6719d08c1888103bea251a4ed56406bd0c3e69723c8a1686e017e7bbe159b6f860405160405180910390a250565b620003368160056200037c60201b620046891790919060201c565b8073ffffffffffffffffffffffffffffffffffffffff167f22380c05984257a1cb900161c713dd71d39e74820f1aea43bd3f1bdd2096129960405160405180910390a250565b600073ffffffffffffffffffffffffffffffffffffffff168173ffffffffffffffffffffffffffffffffffffffff161415620003b757600080fd5b620003c982826200043260201b60201c565b15620003d457600080fd5b60018260000160008373ffffffffffffffffffffffffffffffffffffffff1673ffffffffffffffffffffffffffffffffffffffff16815260200190815260200160002060006101000a81548160ff0219169083151502179055505050565b60008073ffffffffffffffffffffffffffffffffffffffff168273ffffffffffffffffffffffffffffffffffffffff1614156200046e57600080fd5b8260000160008373ffffffffffffffffffffffffffffffffffffffff1673ffffffffffffffffffffffffffffffffffffffff16815260200190815260200160002060009054906101000a900460ff16905092915050565b61079f8062004f8883390190565b614aa580620004e36000396000f3fe60806040526004361061020f5760003560e01c80637362d9c811610118578063bb5f747b116100a0578063e2982c211161006f578063e2982c2114610ccb578063e71ef4fe14610d30578063e73e35dd14610d8d578063e808386314610dc8578063f2fde38b14610e035761020f565b8063bb5f747b14610bb9578063c6c21e9d14610c22578063cb6cbe8f14610c79578063d6cd947314610cb45761020f565b80638da5cb5b116100e75780638da5cb5b14610a1f5780638f32d59b14610a765780639d4323be14610aa5578063a0fdb39514610b00578063b9fe564b14610b8b5761020f565b80637362d9c81461086257806378bd7935146108b357806382dc1ec4146109b75780638456cb5914610a085761020f565b80633f4ba83a1161019b5780635c975abb1161016a5780635c975abb14610726578063636f97661461075557806368c4ac26146107cb5780636ef8d66d14610834578063715018a61461084b5761020f565b80633f4ba83a14610640578063423bf7c81461065757806346fbf68e146106a65780634c5a628c1461070f5761020f565b80632b7a9bb1116101e25780632b7a9bb1146103d05780632cb57c481461048057806331b3eb94146104bd57806338bc2f8e1461050e5780633af32abf146105d75761020f565b80630231b09d1461021157806310154bad146102c157806323902d4a14610312578063291d95491461037f575b005b34801561021d57600080fd5b506102bf6004803603606081101561023457600080fd5b81019080803590602001909291908035906020019064010000000081111561025b57600080fd5b82018360208201111561026d57600080fd5b8035906020019184602083028401116401000000008311171561028f57600080fd5b9091929391929390803573ffffffffffffffffffffffffffffffffffffffff169060200190929190505050610e54565b005b3480156102cd57600080fd5b50610310600480360360208110156102e457600080fd5b81019080803573ffffffffffffffffffffffffffffffffffffffff16906020019092919050505061124d565b005b34801561031e57600080fd5b5061037d600480360360c081101561033557600080fd5b8101908080359060200190929190803590602001909291908035906020019092919080359060200190929190803590602001909291908035906020019092919050505061126b565b005b34801561038b57600080fd5b506103ce600480360360208110156103a257600080fd5b81019080803573ffffffffffffffffffffffffffffffffffffffff1690602001909291905050506114a3565b005b3480156103dc57600080fd5b5061047e600480360360608110156103f357600080fd5b81019080803590602001909291908035906020019064010000000081111561041a57600080fd5b82018360208201111561042c57600080fd5b8035906020019184602083028401116401000000008311171561044e57600080fd5b9091929391929390803573ffffffffffffffffffffffffffffffffffffffff1690602001909291905050506114c1565b005b34801561048c57600080fd5b506104bb600480360360208110156104a357600080fd5b81019080803515159060200190929190505050611668565b005b3480156104c957600080fd5b5061050c600480360360208110156104e057600080fd5b81019080803573ffffffffffffffffffffffffffffffffffffffff169060200190929190505050611696565b005b6105d5600480360361018081101561052557600080fd5b81019080803573ffffffffffffffffffffffffffffffffffffffff169060200190929190803590602001909291908035906020019092919080359060200190929190803590602001909291908035906020019092919080359060200190929190803590602001909291908035906020019092919080359060200190929190803573ffffffffffffffffffffffffffffffffffffffff16906020019092919080359060200190929190505050611752565b005b3480156105e357600080fd5b50610626600480360360208110156105fa57600080fd5b81019080803573ffffffffffffffffffffffffffffffffffffffff169060200190929190505050611fea565b604051808215151515815260200191505060405180910390f35b34801561064c57600080fd5b50610655612007565b005b34801561066357600080fd5b506106a46004803603606081101561067a57600080fd5b810190808035906020019092919080359060200190929190803590602001909291905050506120b2565b005b3480156106b257600080fd5b506106f5600480360360208110156106c957600080fd5b81019080803573ffffffffffffffffffffffffffffffffffffffff16906020019092919050505061234b565b604051808215151515815260200191505060405180910390f35b34801561071b57600080fd5b50610724612368565b005b34801561073257600080fd5b5061073b612373565b604051808215151515815260200191505060405180910390f35b34801561076157600080fd5b5061078e6004803603602081101561077857600080fd5b810190808035906020019092919050505061238a565b6040518087815260200186815260200185815260200184815260200183815260200182151515158152602001965050505050505060405180910390f35b3480156107d757600080fd5b5061081a600480360360208110156107ee57600080fd5b81019080803573ffffffffffffffffffffffffffffffffffffffff1690602001909291905050506123eb565b604051808215151515815260200191505060405180910390f35b34801561084057600080fd5b5061084961240b565b005b34801561085757600080fd5b50610860612416565b005b34801561086e57600080fd5b506108b16004803603602081101561088557600080fd5b81019080803573ffffffffffffffffffffffffffffffffffffffff1690602001909291905050506124e6565b005b3480156108bf57600080fd5b506108ec600480360360208110156108d657600080fd5b8101908080359060200190929190505050612504565b604051808973ffffffffffffffffffffffffffffffffffffffff1673ffffffffffffffffffffffffffffffffffffffff1681526020018873ffffffffffffffffffffffffffffffffffffffff1673ffffffffffffffffffffffffffffffffffffffff1681526020018773ffffffffffffffffffffffffffffffffffffffff1673ffffffffffffffffffffffffffffffffffffffff1681526020018681526020018581526020018481526020018381526020018281526020019850505050505050505060405180910390f35b3480156109c357600080fd5b50610a06600480360360208110156109da57600080fd5b81019080803573ffffffffffffffffffffffffffffffffffffffff1690602001909291905050506125cb565b005b348015610a1457600080fd5b50610a1d6125e9565b005b348015610a2b57600080fd5b50610a34612695565b604051808273ffffffffffffffffffffffffffffffffffffffff1673ffffffffffffffffffffffffffffffffffffffff16815260200191505060405180910390f35b348015610a8257600080fd5b50610a8b6126be565b604051808215151515815260200191505060405180910390f35b348015610ab157600080fd5b50610afe60048036036040811015610ac857600080fd5b81019080803573ffffffffffffffffffffffffffffffffffffffff16906020019092919080359060200190929190505050612715565b005b348015610b0c57600080fd5b50610b5960048036036040811015610b2357600080fd5b81019080803573ffffffffffffffffffffffffffffffffffffffff169060200190929190803590602001909291905050506127b9565b604051808681526020018581526020018481526020018381526020018281526020019550505050505060405180910390f35b610bb760048036036020811015610ba157600080fd5b81019080803590602001909291905050506127fc565b005b348015610bc557600080fd5b50610c0860048036036020811015610bdc57600080fd5b81019080803573ffffffffffffffffffffffffffffffffffffffff169060200190929190505050613222565b604051808215151515815260200191505060405180910390f35b348015610c2e57600080fd5b50610c3761323f565b604051808273ffffffffffffffffffffffffffffffffffffffff1673ffffffffffffffffffffffffffffffffffffffff16815260200191505060405180910390f35b348015610c8557600080fd5b50610cb260048036036020811015610c9c57600080fd5b8101908080359060200190929190505050613265565b005b348015610cc057600080fd5b50610cc9613477565b005b348015610cd757600080fd5b50610d1a60048036036020811015610cee57600080fd5b81019080803573ffffffffffffffffffffffffffffffffffffffff169060200190929190505050613482565b6040518082815260200191505060405180910390f35b348015610d3c57600080fd5b50610d8b60048036036040811015610d5357600080fd5b81019080803573ffffffffffffffffffffffffffffffffffffffff169060200190929190803515159060200190929190505050613565565b005b348015610d9957600080fd5b50610dc660048036036020811015610db057600080fd5b8101908080359060200190929190505050613697565b005b348015610dd457600080fd5b50610e0160048036036020811015610deb57600080fd5b8101908080359060200190929190505050613854565b005b348015610e0f57600080fd5b50610e5260048036036020811015610e2657600080fd5b81019080803573ffffffffffffffffffffffffffffffffffffffff169060200190929190505050613a90565b005b600260009054906101000a900460ff1615610e6e57600080fd5b6000600a6000868152602001908152602001600020905080601001544311610efe576040517f08c379a00000000000000000000000000000000000000000000000000000000081526004018080602001828103825260188152602001807f6d7573742062652077697468696e206368616c6c656e6765000000000000000081525060200191505060405180910390fd5b8060110154431115610f5b576040517f08c379a00000000000000000000000000000000000000000000000000000000081526004018080602001828103825260218152602001806149376021913960400191505060405180910390fd5b610f658533613aad565b610fd7576040517f08c379a000000000000000000000000000000000000000000000000000000000815260040180806020018281038252601a8152602001807f6d75737420626520612076616c6964206368616c6c656e67657200000000000081525060200191505060405180910390fd5b6110ab8160090180548060200260200160405190810160405280929190818152602001828054801561105e57602002820191906000526020600020905b8160009054906101000a900473ffffffffffffffffffffffffffffffffffffffff1673ffffffffffffffffffffffffffffffffffffffff1681526020019060010190808311611014575b5050505050858580806020026020016040519081016040528093929190818152602001838360200280828437600081840152601f19601f8201169050808301925050505050505084613ce9565b61111d576040517f08c379a00000000000000000000000000000000000000000000000000000000081526004018080602001828103825260118152602001807f696e76616c696420746f70206c6f73657200000000000000000000000000000081525060200191505060405180910390fd5b838382600a0191906111309291906147e0565b5061114c81600c01548260110154613d9490919063ffffffff16565b816011018190555061116f81600d01548260110154613d9490919063ffffffff16565b8160120181905550847f4885058c6c60dcb140cb69c8dcc9ea4c73ba0ff2fcd8dd700bb51fbf95a6105233868686604051808573ffffffffffffffffffffffffffffffffffffffff1673ffffffffffffffffffffffffffffffffffffffff168152602001806020018373ffffffffffffffffffffffffffffffffffffffff1673ffffffffffffffffffffffffffffffffffffffff1681526020018281038252858582818152602001925060200280828437600081840152601f19601f8201169050808301925050509550505050505060405180910390a25050505050565b61125633613222565b61125f57600080fd5b61126881613db3565b50565b600260009054906101000a900460ff161561128557600080fd5b6000600a600088815260200190815260200160002090506000600b60003373ffffffffffffffffffffffffffffffffffffffff1673ffffffffffffffffffffffffffffffffffffffff168152602001908152602001600020600089815260200190815260200160002090508173__LiBABidder____________________________632e7ed5f7909183600760009054906101000a900473ffffffffffffffffffffffffffffffffffffffff16600960019054906101000a900473ffffffffffffffffffffffffffffffffffffffff168c8c8c8c8c6040518a63ffffffff1660e01b8152600401808a81526020018981526020018873ffffffffffffffffffffffffffffffffffffffff1673ffffffffffffffffffffffffffffffffffffffff1681526020018773ffffffffffffffffffffffffffffffffffffffff1673ffffffffffffffffffffffffffffffffffffffff168152602001868152602001858152602001848152602001838152602001828152602001995050505050505050505060006040518083038186803b15801561141d57600080fd5b505af4158015611431573d6000803e3d6000fd5b50505050877fe2ea6de1801ba7490a1beaacfe87f2d1fdd7b2aedef9e7c4ab6b3d5b9d52c4f733604051808273ffffffffffffffffffffffffffffffffffffffff1673ffffffffffffffffffffffffffffffffffffffff16815260200191505060405180910390a25050505050505050565b6114ac33613222565b6114b557600080fd5b6114be81613e0d565b50565b600260009054906101000a900460ff16156114db57600080fd5b6000600a600086815260200190815260200160002090508073__LiBAAsker_____________________________6308f8564590918686866040518563ffffffff1660e01b815260040180858152602001806020018373ffffffffffffffffffffffffffffffffffffffff1673ffffffffffffffffffffffffffffffffffffffff1681526020018281038252858582818152602001925060200280828437600081840152601f19601f8201169050808301925050509550505050505060006040518083038186803b1580156115ae57600080fd5b505af41580156115c2573d6000803e3d6000fd5b50505050847f674af3ce1d137983de1b36c797c080e56f5022a446472dd3753923bb3166ce7185858560405180806020018373ffffffffffffffffffffffffffffffffffffffff1673ffffffffffffffffffffffffffffffffffffffff1681526020018281038252858582818152602001925060200280828437600081840152601f19601f82011690508083019250505094505050505060405180910390a25050505050565b6116706126be565b61167957600080fd5b80600960006101000a81548160ff02191690831515021790555050565b600460009054906101000a900473ffffffffffffffffffffffffffffffffffffffff1673ffffffffffffffffffffffffffffffffffffffff166351cff8d9826040518263ffffffff1660e01b8152600401808273ffffffffffffffffffffffffffffffffffffffff1673ffffffffffffffffffffffffffffffffffffffff168152602001915050600060405180830381600087803b15801561173757600080fd5b505af115801561174b573d6000803e3d6000fd5b5050505050565b600260009054906101000a900460ff161561176c57600080fd5b600960009054906101000a900460ff16156117e05761178a33611fea565b6117df576040517f08c379a000000000000000000000000000000000000000000000000000000000815260040180806020018281038252603a8152602001806149f6603a913960400191505060405180910390fd5b5b8181600360008373ffffffffffffffffffffffffffffffffffffffff1673ffffffffffffffffffffffffffffffffffffffff16815260200190815260200160002060009054906101000a900460ff166118a1576040517f08c379a000000000000000000000000000000000000000000000000000000000815260040180806020018281038252601f8152602001807f746f6b656e2061646472657373206d75737420626520737570706f727465640081525060200191505060405180910390fd5b600073ffffffffffffffffffffffffffffffffffffffff168273ffffffffffffffffffffffffffffffffffffffff1614156119505734811461194b576040517f08c379a000000000000000000000000000000000000000000000000000000000815260040180806020018281038252601d8152602001807f76616c7565206d75737420626520657175616c206d73672076616c756500000081525060200191505060405180910390fd5b6119c7565b600034146119c6576040517f08c379a00000000000000000000000000000000000000000000000000000000081526004018080602001828103825260168152602001807f6d73672076616c7565206d757374206265207a65726f0000000000000000000081525060200191505060405180910390fd5b5b600360008f73ffffffffffffffffffffffffffffffffffffffff1673ffffffffffffffffffffffffffffffffffffffff16815260200190815260200160002060009054906101000a900460ff16611a86576040517f08c379a000000000000000000000000000000000000000000000000000000000815260040180806020018281038252601f8152602001807f746f6b656e2061646472657373206d75737420626520737570706f727465640081525060200191505060405180910390fd5b60008d11611adf576040517f08c379a00000000000000000000000000000000000000000000000000000000081526004018080602001828103825260258152602001806149586025913960400191505060405180910390fd5b60008c11611b38576040517f08c379a00000000000000000000000000000000000000000000000000000000081526004018080602001828103825260288152602001806148c46028913960400191505060405180910390fd5b60008b11611b91576040517f08c379a00000000000000000000000000000000000000000000000000000000081526004018080602001828103825260278152602001806149a46027913960400191505060405180910390fd5b60008a11611bea576040517f08c379a000000000000000000000000000000000000000000000000000000000815260040180806020018281038252602b8152602001806149cb602b913960400191505060405180910390fd5b60008911611c43576040517f08c379a000000000000000000000000000000000000000000000000000000000815260040180806020018281038252602a8152602001806148ec602a913960400191505060405180910390fd5b60008811611cb9576040517f08c379a000000000000000000000000000000000000000000000000000000000815260040180806020018281038252601e8152602001807f76616c7565206d757374206265206c6172676572207468616e207a65726f000081525060200191505060405180910390fd5b60008711611d12576040517f08c379a00000000000000000000000000000000000000000000000000000000081526004018080602001828103825260218152602001806149166021913960400191505060405180910390fd5b600073ffffffffffffffffffffffffffffffffffffffff168473ffffffffffffffffffffffffffffffffffffffff1614611d7457611d733330858773ffffffffffffffffffffffffffffffffffffffff16613e67909392919063ffffffff16565b5b6000600a600060085481526020019081526020016000209050338160000160006101000a81548173ffffffffffffffffffffffffffffffffffffffff021916908373ffffffffffffffffffffffffffffffffffffffff1602179055508e8160010160006101000a81548173ffffffffffffffffffffffffffffffffffffffff021916908373ffffffffffffffffffffffffffffffffffffffff160217905550848160020160006101000a81548173ffffffffffffffffffffffffffffffffffffffff021916908373ffffffffffffffffffffffffffffffffffffffff1602179055508381600301819055508a81600c01819055508981600d0181905550888160040181905550878160050181905550868160060181905550858160070181905550611ea88e43613d9490919063ffffffff16565b81600e0181905550611ec78d82600e0154613d9490919063ffffffff16565b81600f0181905550611ee68c82600f0154613d9490919063ffffffff16565b8160100181905550611f058b8260100154613d9490919063ffffffff16565b8160110181905550611f248a8260110154613d9490919063ffffffff16565b81601201819055507f70cc9a54dba93435423ae6e31b4603f6b94f0db76f9d0aeecb990abb118794186008548260000160009054906101000a900473ffffffffffffffffffffffffffffffffffffffff16604051808381526020018273ffffffffffffffffffffffffffffffffffffffff1673ffffffffffffffffffffffffffffffffffffffff1681526020019250505060405180910390a1611fd36001600854613d9490919063ffffffff16565b600881905550505050505050505050505050505050565b6000612000826006613f6c90919063ffffffff16565b9050919050565b6120103361234b565b61201957600080fd5b600260009054906101000a900460ff1661203257600080fd5b6000600260006101000a81548160ff0219169083151502179055507f5db9ee0a495bf2e6ff9c91a7834c1ba4fdd244a5e8aa4e537bd38aeae4b073aa33604051808273ffffffffffffffffffffffffffffffffffffffff1673ffffffffffffffffffffffffffffffffffffffff16815260200191505060405180910390a1565b600260009054906101000a900460ff16156120cc57600080fd5b6000600a600085815260200190815260200160002090506000600b60003373ffffffffffffffffffffffffffffffffffffffff1673ffffffffffffffffffffffffffffffffffffffff168152602001908152602001600020600086815260200190815260200160002090506000801b8160000154141561220157816009013390806001815401808255809150509060018203906000526020600020016000909192909190916101000a81548173ffffffffffffffffffffffffffffffffffffffff021916908373ffffffffffffffffffffffffffffffffffffffff160217905550503373ffffffffffffffffffffffffffffffffffffffff167f45401769c1d58f70bd6b63e1a66bfc17d712ce0dc4ffb8d2dd0ad7177d56a386866040518082815260200191505060405180910390a261226d565b7f31780e3ce440b5efdf2d87f18af70c1ebc1f4aee829175d3b772c9e4f65b09898533604051808381526020018273ffffffffffffffffffffffffffffffffffffffff1673ffffffffffffffffffffffffffffffffffffffff1681526020019250505060405180910390a15b8173__LiBABidder____________________________63ec8725e7909183600960019054906101000a900473ffffffffffffffffffffffffffffffffffffffff1688886040518663ffffffff1660e01b8152600401808681526020018581526020018473ffffffffffffffffffffffffffffffffffffffff1673ffffffffffffffffffffffffffffffffffffffff1681526020018381526020018281526020019550505050505060006040518083038186803b15801561232c57600080fd5b505af4158015612340573d6000803e3d6000fd5b505050505050505050565b6000612361826001613f6c90919063ffffffff16565b9050919050565b61237133613ffe565b565b6000600260009054906101000a900460ff16905090565b6000806000806000806000600a6000898152602001908152602001600020905080600e0154965080600f015495508060100154945080601101549350806012015492508060080160009054906101000a900460ff1691505091939550919395565b60036020528060005260406000206000915054906101000a900460ff1681565b61241433614058565b565b61241e6126be565b61242757600080fd5b600073ffffffffffffffffffffffffffffffffffffffff166000809054906101000a900473ffffffffffffffffffffffffffffffffffffffff1673ffffffffffffffffffffffffffffffffffffffff167f8be0079c531659141344cd1fd0a4f28419497f9722a3daafe3b4186f6b6457e060405160405180910390a360008060006101000a81548173ffffffffffffffffffffffffffffffffffffffff021916908373ffffffffffffffffffffffffffffffffffffffff160217905550565b6124ef33613222565b6124f857600080fd5b612501816140b2565b50565b6000806000806000806000806000600a60008b815260200190815260200160002090508060000160009054906101000a900473ffffffffffffffffffffffffffffffffffffffff1698508060010160009054906101000a900473ffffffffffffffffffffffffffffffffffffffff1697508060020160009054906101000a900473ffffffffffffffffffffffffffffffffffffffff169650806003015495508060040154945080600501549350806006015492508060070154915050919395975091939597565b6125d43361234b565b6125dd57600080fd5b6125e68161410c565b50565b6125f23361234b565b6125fb57600080fd5b600260009054906101000a900460ff161561261557600080fd5b6001600260006101000a81548160ff0219169083151502179055507f62e78cea01bee320cd4e420270b5ea74000d11b0c9f74754ebdbfc544b05a25833604051808273ffffffffffffffffffffffffffffffffffffffff1673ffffffffffffffffffffffffffffffffffffffff16815260200191505060405180910390a1565b60008060009054906101000a900473ffffffffffffffffffffffffffffffffffffffff16905090565b60008060009054906101000a900473ffffffffffffffffffffffffffffffffffffffff1673ffffffffffffffffffffffffffffffffffffffff163373ffffffffffffffffffffffffffffffffffffffff1614905090565b600260009054906101000a900460ff1661272e57600080fd5b6127366126be565b61273f57600080fd5b61274a823383614166565b7fac6572a44b29fc3e82672a2d68efd9bd694204ee2274bc37ee5c4cebcf3fa1ef8282604051808373ffffffffffffffffffffffffffffffffffffffff1673ffffffffffffffffffffffffffffffffffffffff1681526020018281526020019250505060405180910390a15050565b600b602052816000526040600020602052806000526040600020600091509150508060000154908060010154908060020154908060030154908060040154905085565b600260009054906101000a900460ff161561281657600080fd5b6000600a600083815260200190815260200160002090508060080160009054906101000a900460ff166128b1576040517f08c379a00000000000000000000000000000000000000000000000000000000081526004018080602001828103825260198152602001807f61756374696f6e206d7573742062652066696e616c697a65640000000000000081525060200191505060405180910390fd5b8060000160009054906101000a900473ffffffffffffffffffffffffffffffffffffffff1673ffffffffffffffffffffffffffffffffffffffff163373ffffffffffffffffffffffffffffffffffffffff1614612976576040517f08c379a00000000000000000000000000000000000000000000000000000000081526004018080602001828103825260208152602001807f73656e646572206d757374206265207468652061756374696f6e2061736b657281525060200191505060405180910390fd5b6129a66129936201518083600501546142ad90919063ffffffff16565b8260130154613d9490919063ffffffff16565b4211156129fe576040517f08c379a000000000000000000000000000000000000000000000000000000000815260040180806020018281038252602781526020018061497d6027913960400191505060405180910390fd5b60008160010160009054906101000a900473ffffffffffffffffffffffffffffffffffffffff169050600034905060008090506000612a5f62015180612a518760130154426142e790919063ffffffff16565b61430790919063ffffffff16565b90506000600b600087600b0160009054906101000a900473ffffffffffffffffffffffffffffffffffffffff1673ffffffffffffffffffffffffffffffffffffffff1673ffffffffffffffffffffffffffffffffffffffff1681526020019081526020016000206000888152602001908152602001600020905060008090505b86600a0180549050811015612f3c57600087600a018281548110612aff57fe5b9060005260206000200160009054906101000a900473ffffffffffffffffffffffffffffffffffffffff1690506000600b60008373ffffffffffffffffffffffffffffffffffffffff1673ffffffffffffffffffffffffffffffffffffffff16815260200190815260200160002060008b815260200190815260200160002090506000816003015490506000811415612b9a57505050612f3c565b6000612bda620186a0612bcc89612bbe8a60020154876142ad90919063ffffffff16565b6142ad90919063ffffffff16565b61430790919063ffffffff16565b905060008360030181905550612bfd836004015489613d9490919063ffffffff16565b9750600073ffffffffffffffffffffffffffffffffffffffff168b60010160009054906101000a900473ffffffffffffffffffffffffffffffffffffffff1673ffffffffffffffffffffffffffffffffffffffff161415612db457612c7d81612c6f848c6142e790919063ffffffff16565b6142e790919063ffffffff16565b9850600760009054906101000a900473ffffffffffffffffffffffffffffffffffffffff1673ffffffffffffffffffffffffffffffffffffffff1663e090d045838686600101548f60000160009054906101000a900473ffffffffffffffffffffffffffffffffffffffff16876040518663ffffffff1660e01b8152600401808573ffffffffffffffffffffffffffffffffffffffff1673ffffffffffffffffffffffffffffffffffffffff1681526020018481526020018373ffffffffffffffffffffffffffffffffffffffff1673ffffffffffffffffffffffffffffffffffffffff1681526020018281526020019450505050506000604051808303818588803b158015612d8c57600080fd5b505af1158015612da0573d6000803e3d6000fd5b5050505050612daf848261432d565b612f2b565b600760009054906101000a900473ffffffffffffffffffffffffffffffffffffffff1673ffffffffffffffffffffffffffffffffffffffff1663e090d0458585600101548e60000160009054906101000a900473ffffffffffffffffffffffffffffffffffffffff16866040518563ffffffff1660e01b8152600401808573ffffffffffffffffffffffffffffffffffffffff1673ffffffffffffffffffffffffffffffffffffffff1681526020018481526020018373ffffffffffffffffffffffffffffffffffffffff1673ffffffffffffffffffffffffffffffffffffffff168152602001828152602001945050505050600060405180830381600087803b158015612ec157600080fd5b505af1158015612ed5573d6000803e3d6000fd5b50505050612f2a8b60000160009054906101000a900473ffffffffffffffffffffffffffffffffffffffff1685838d73ffffffffffffffffffffffffffffffffffffffff16613e67909392919063ffffffff16565b5b505050508080600101915050612adf565b50600086600301541115612fac57612fa18660020160009054906101000a900473ffffffffffffffffffffffffffffffffffffffff168760000160009054906101000a900473ffffffffffffffffffffffffffffffffffffffff168860030154614166565b600086600301819055505b6000600760009054906101000a900473ffffffffffffffffffffffffffffffffffffffff1673ffffffffffffffffffffffffffffffffffffffff166301f2e9a88860010160009054906101000a900473ffffffffffffffffffffffffffffffffffffffff168960040154866040518463ffffffff1660e01b8152600401808473ffffffffffffffffffffffffffffffffffffffff1673ffffffffffffffffffffffffffffffffffffffff168152602001838152602001828152602001935050505060206040518083038186803b15801561308557600080fd5b505afa158015613099573d6000803e3d6000fd5b505050506040513d60208110156130af57600080fd5b810190808051906020019092919050505090506130d584826142e790919063ffffffff16565b905061314c8760000160009054906101000a900473ffffffffffffffffffffffffffffffffffffffff168860140154600960019054906101000a900473ffffffffffffffffffffffffffffffffffffffff1673ffffffffffffffffffffffffffffffffffffffff166143eb9092919063ffffffff16565b6131e18760000160009054906101000a900473ffffffffffffffffffffffffffffffffffffffff16600760009054906101000a900473ffffffffffffffffffffffffffffffffffffffff1683600960019054906101000a900473ffffffffffffffffffffffffffffffffffffffff1673ffffffffffffffffffffffffffffffffffffffff16613e67909392919063ffffffff16565b7f1bcb6cd336f3258c0b58f390ff189e85a575119e00b32868045249b45b4032f4886040518082815260200191505060405180910390a15050505050505050565b6000613238826005613f6c90919063ffffffff16565b9050919050565b600960019054906101000a900473ffffffffffffffffffffffffffffffffffffffff1681565b600260009054906101000a900460ff161561327f57600080fd5b6000600a600083815260200190815260200160002090506000600b60003373ffffffffffffffffffffffffffffffffffffffff1673ffffffffffffffffffffffffffffffffffffffff168152602001908152602001600020600084815260200190815260200160002090508173__LiBABidder____________________________63e7c759c5909183600960019054906101000a900473ffffffffffffffffffffffffffffffffffffffff16600760009054906101000a900473ffffffffffffffffffffffffffffffffffffffff166040518563ffffffff1660e01b8152600401808581526020018481526020018373ffffffffffffffffffffffffffffffffffffffff1673ffffffffffffffffffffffffffffffffffffffff1681526020018273ffffffffffffffffffffffffffffffffffffffff1673ffffffffffffffffffffffffffffffffffffffff16815260200194505050505060006040518083038186803b1580156133ef57600080fd5b505af4158015613403573d6000803e3d6000fd5b505050507ff53b31b6993014e4a698a5a80a49dcc38074ce468ebf6531035ad640add2cc098333604051808381526020018273ffffffffffffffffffffffffffffffffffffffff1673ffffffffffffffffffffffffffffffffffffffff1681526020019250505060405180910390a1505050565b61348033613e0d565b565b6000600460009054906101000a900473ffffffffffffffffffffffffffffffffffffffff1673ffffffffffffffffffffffffffffffffffffffff1663e3a9db1a836040518263ffffffff1660e01b8152600401808273ffffffffffffffffffffffffffffffffffffffff1673ffffffffffffffffffffffffffffffffffffffff16815260200191505060206040518083038186803b15801561352357600080fd5b505afa158015613537573d6000803e3d6000fd5b505050506040513d602081101561354d57600080fd5b81019080805190602001909291905050509050919050565b61356d6126be565b61357657600080fd5b6135958273ffffffffffffffffffffffffffffffffffffffff166144bb565b6135ea576040517f08c379a0000000000000000000000000000000000000000000000000000000008152600401808060200182810382526026815260200180614a546026913960400191505060405180910390fd5b80600360008473ffffffffffffffffffffffffffffffffffffffff1673ffffffffffffffffffffffffffffffffffffffff16815260200190815260200160002060006101000a81548160ff0219169083151502179055508173ffffffffffffffffffffffffffffffffffffffff167fd71e43dae5ba4386463c0ef49b6f19fc82aea6a936b4242ef04b99730c0ed4c382604051808215151515815260200191505060405180910390a25050565b600260009054906101000a900460ff16156136b157600080fd5b6000600a600083815260200190815260200160002090506000600b60003373ffffffffffffffffffffffffffffffffffffffff1673ffffffffffffffffffffffffffffffffffffffff1681526020019081526020016000206000848152602001908152602001600020905060008273__LiBABidder____________________________6381a156cb9091846040518363ffffffff1660e01b8152600401808381526020018281526020019250505060206040518083038186803b15801561377757600080fd5b505af415801561378b573d6000803e3d6000fd5b505050506040513d60208110156137a157600080fd5b810190808051906020019092919050505090506137e38360020160009054906101000a900473ffffffffffffffffffffffffffffffffffffffff163383614166565b7f8996516a5fb708155f021fb9e400552fd89c461805c8ef6f5cc988c76e2d73408433604051808381526020018273ffffffffffffffffffffffffffffffffffffffff1673ffffffffffffffffffffffffffffffffffffffff1681526020019250505060405180910390a150505050565b600260009054906101000a900460ff161561386e57600080fd5b6000600a600083815260200190815260200160002090508073__LiBAAsker_____________________________6345867bed9091600b600760009054906101000a900473ffffffffffffffffffffffffffffffffffffffff16600960019054906101000a900473ffffffffffffffffffffffffffffffffffffffff16876040518663ffffffff1660e01b8152600401808681526020018581526020018473ffffffffffffffffffffffffffffffffffffffff1673ffffffffffffffffffffffffffffffffffffffff1681526020018373ffffffffffffffffffffffffffffffffffffffff1673ffffffffffffffffffffffffffffffffffffffff1681526020018281526020019550505050505060006040518083038186803b15801561399357600080fd5b505af41580156139a7573d6000803e3d6000fd5b505050506139fe33308360140154600960019054906101000a900473ffffffffffffffffffffffffffffffffffffffff1673ffffffffffffffffffffffffffffffffffffffff16613e67909392919063ffffffff16565b613a558160010160009054906101000a900473ffffffffffffffffffffffffffffffffffffffff168260000160009054906101000a900473ffffffffffffffffffffffffffffffffffffffff168360040154614166565b7fb6ef3d4ebcd3039be8832ad856398d49f705465e36b6ac4478eacf0424caecc9826040518082815260200191505060405180910390a15050565b613a986126be565b613aa157600080fd5b613aaa816144ce565b50565b600080600b60008473ffffffffffffffffffffffffffffffffffffffff1673ffffffffffffffffffffffffffffffffffffffff16815260200190815260200160002060008581526020019081526020016000209050600081600301541415613b19576000915050613ce3565b6000600a60008681526020019081526020016000209050600081600a01905060008090506000809050600080905060008090505b8480549050811015613ca8576000858281548110613b6757fe5b9060005260206000200160009054906101000a900473ffffffffffffffffffffffffffffffffffffffff1690506000600b60008373ffffffffffffffffffffffffffffffffffffffff1673ffffffffffffffffffffffffffffffffffffffff16815260200190815260200160002060008d8152602001908152602001600020905087600401548410158015613bff5750868054905083105b15613c165760019950505050505050505050613ce3565b613c2d816003015485613d9490919063ffffffff16565b93508a73ffffffffffffffffffffffffffffffffffffffff168273ffffffffffffffffffffffffffffffffffffffff161415613c6857600194505b85613c9957613c7789826145c6565b15613c985784613c935760019950505050505050505050613ce3565b600195505b5b50508080600101915050613b4d565b508115613cbe5760009650505050505050613ce3565b8460040154811015613cd95760019650505050505050613ce3565b8296505050505050505b92915050565b60008073ffffffffffffffffffffffffffffffffffffffff168273ffffffffffffffffffffffffffffffffffffffff161415613d285760009050613d8d565b835183511415613d7f578173ffffffffffffffffffffffffffffffffffffffff1683600185510381518110613d5957fe5b602002602001015173ffffffffffffffffffffffffffffffffffffffff16149050613d8d565b613d89838361460e565b1590505b9392505050565b600080828401905083811015613da957600080fd5b8091505092915050565b613dc781600661468990919063ffffffff16565b8073ffffffffffffffffffffffffffffffffffffffff167fee1504a83b6d4a361f4c1dc78ab59bfa30d6a3b6612c403e86bb01ef2984295f60405160405180910390a250565b613e2181600661473590919063ffffffff16565b8073ffffffffffffffffffffffffffffffffffffffff167f270d9b30cf5b0793bbfd54c9d5b94aeb49462b8148399000265144a8722da6b660405160405180910390a250565b8373ffffffffffffffffffffffffffffffffffffffff166323b872dd8484846040518463ffffffff1660e01b8152600401808473ffffffffffffffffffffffffffffffffffffffff1673ffffffffffffffffffffffffffffffffffffffff1681526020018373ffffffffffffffffffffffffffffffffffffffff1673ffffffffffffffffffffffffffffffffffffffff1681526020018281526020019350505050602060405180830381600087803b158015613f2257600080fd5b505af1158015613f36573d6000803e3d6000fd5b505050506040513d6020811015613f4c57600080fd5b8101908080519060200190929190505050613f6657600080fd5b50505050565b60008073ffffffffffffffffffffffffffffffffffffffff168273ffffffffffffffffffffffffffffffffffffffff161415613fa757600080fd5b8260000160008373ffffffffffffffffffffffffffffffffffffffff1673ffffffffffffffffffffffffffffffffffffffff16815260200190815260200160002060009054906101000a900460ff16905092915050565b61401281600561473590919063ffffffff16565b8073ffffffffffffffffffffffffffffffffffffffff167f0a8eb35e5ca14b3d6f28e4abf2f128dbab231a58b56e89beb5d636115001e16560405160405180910390a250565b61406c81600161473590919063ffffffff16565b8073ffffffffffffffffffffffffffffffffffffffff167fcd265ebaf09df2871cc7bd4133404a235ba12eff2041bb89d9c714a2621c7c7e60405160405180910390a250565b6140c681600561468990919063ffffffff16565b8073ffffffffffffffffffffffffffffffffffffffff167f22380c05984257a1cb900161c713dd71d39e74820f1aea43bd3f1bdd2096129960405160405180910390a250565b61412081600161468990919063ffffffff16565b8073ffffffffffffffffffffffffffffffffffffffff167f6719d08c1888103bea251a4ed56406bd0c3e69723c8a1686e017e7bbe159b6f860405160405180910390a250565b600073ffffffffffffffffffffffffffffffffffffffff168273ffffffffffffffffffffffffffffffffffffffff1614156141ec576040517f08c379a0000000000000000000000000000000000000000000000000000000008152600401808060200182810382526024815260200180614a306024913960400191505060405180910390fd5b60008114156141fa576142a8565b600073ffffffffffffffffffffffffffffffffffffffff168373ffffffffffffffffffffffffffffffffffffffff16141561427b578173ffffffffffffffffffffffffffffffffffffffff166108fc829081150290604051600060405180830381858888f19350505050158015614275573d6000803e3d6000fd5b506142a7565b6142a682828573ffffffffffffffffffffffffffffffffffffffff166143eb9092919063ffffffff16565b5b5b505050565b6000808314156142c057600090506142e1565b60008284029050828482816142d157fe5b04146142dc57600080fd5b809150505b92915050565b6000828211156142f657600080fd5b600082840390508091505092915050565b600080821161431557600080fd5b600082848161432057fe5b0490508091505092915050565b600460009054906101000a900473ffffffffffffffffffffffffffffffffffffffff1673ffffffffffffffffffffffffffffffffffffffff1663f340fa0182846040518363ffffffff1660e01b8152600401808273ffffffffffffffffffffffffffffffffffffffff1673ffffffffffffffffffffffffffffffffffffffff1681526020019150506000604051808303818588803b1580156143ce57600080fd5b505af11580156143e2573d6000803e3d6000fd5b50505050505050565b8273ffffffffffffffffffffffffffffffffffffffff1663a9059cbb83836040518363ffffffff1660e01b8152600401808373ffffffffffffffffffffffffffffffffffffffff1673ffffffffffffffffffffffffffffffffffffffff16815260200182815260200192505050602060405180830381600087803b15801561447257600080fd5b505af1158015614486573d6000803e3d6000fd5b505050506040513d602081101561449c57600080fd5b81019080805190602001909291905050506144b657600080fd5b505050565b600080823b905060008111915050919050565b600073ffffffffffffffffffffffffffffffffffffffff168173ffffffffffffffffffffffffffffffffffffffff16141561450857600080fd5b8073ffffffffffffffffffffffffffffffffffffffff166000809054906101000a900473ffffffffffffffffffffffffffffffffffffffff1673ffffffffffffffffffffffffffffffffffffffff167f8be0079c531659141344cd1fd0a4f28419497f9722a3daafe3b4186f6b6457e060405160405180910390a3806000806101000a81548173ffffffffffffffffffffffffffffffffffffffff021916908373ffffffffffffffffffffffffffffffffffffffff16021790555050565b60008160020154836002015411156145e15760009050614608565b8160020154836002015410156145fa5760019050614608565b816004015483600401541190505b92915050565b600080600090505b835181101561467d578273ffffffffffffffffffffffffffffffffffffffff1684828151811061464257fe5b602002602001015173ffffffffffffffffffffffffffffffffffffffff161415614670576001915050614683565b8080600101915050614616565b50600090505b92915050565b600073ffffffffffffffffffffffffffffffffffffffff168173ffffffffffffffffffffffffffffffffffffffff1614156146c357600080fd5b6146cd8282613f6c565b156146d757600080fd5b60018260000160008373ffffffffffffffffffffffffffffffffffffffff1673ffffffffffffffffffffffffffffffffffffffff16815260200190815260200160002060006101000a81548160ff0219169083151502179055505050565b600073ffffffffffffffffffffffffffffffffffffffff168173ffffffffffffffffffffffffffffffffffffffff16141561476f57600080fd5b6147798282613f6c565b61478257600080fd5b60008260000160008373ffffffffffffffffffffffffffffffffffffffff1673ffffffffffffffffffffffffffffffffffffffff16815260200190815260200160002060006101000a81548160ff0219169083151502179055505050565b82805482825590600052602060002090810192821561486f579160200282015b8281111561486e57823573ffffffffffffffffffffffffffffffffffffffff168260006101000a81548173ffffffffffffffffffffffffffffffffffffffff021916908373ffffffffffffffffffffffffffffffffffffffff16021790555091602001919060010190614800565b5b50905061487c9190614880565b5090565b6148c091905b808211156148bc57600081816101000a81549073ffffffffffffffffffffffffffffffffffffffff021916905550600101614886565b5090565b9056fe72657665616c206475726174696f6e206d757374206265206c6172676572207468616e207a65726f66696e616c697a65206475726174696f6e206d757374206265206c6172676572207468616e207a65726f6475726174696f6e206d757374206265206c6172676572207468616e207a65726f6d7573742062652077697468696e206368616c6c656e6765206475726174696f6e626964206475726174696f6e206d757374206265206c6172676572207468616e207a65726f6d7573742062652077697468696e2061756374696f6e206c656e64696e67206475726174696f6e636c61696d206475726174696f6e206d757374206265206c6172676572207468616e207a65726f6368616c6c656e6765206475726174696f6e206d757374206265206c6172676572207468616e207a65726f57686974656c6973746564526f6c653a2063616c6c657220646f6573206e6f742068617665207468652057686974656c697374656420726f6c657472616e7366657220746f2061646472657373206d757374206e6f74206265207a65726f746f6b656e2061646472657373206d75737420626520636f6e74726163742061646472657373a165627a7a723058203620329af3618a2692365382320ef6a2f398b704fd2dfea28b4f4d9233da8ac700296080604052336000806101000a81548173ffffffffffffffffffffffffffffffffffffffff021916908373ffffffffffffffffffffffffffffffffffffffff1602179055507f4101e71e974f68df5e9730cc223280b41654676bbb052cdcc735c3337e64d2d96000809054906101000a900473ffffffffffffffffffffffffffffffffffffffff16604051808273ffffffffffffffffffffffffffffffffffffffff1673ffffffffffffffffffffffffffffffffffffffff16815260200191505060405180910390a16106c8806100d76000396000f3fe60806040526004361061004a5760003560e01c80632348238c1461004f57806351cff8d9146100a0578063c6dbdf61146100f1578063e3a9db1a14610148578063f340fa01146101ad575b600080fd5b34801561005b57600080fd5b5061009e6004803603602081101561007257600080fd5b81019080803573ffffffffffffffffffffffffffffffffffffffff1690602001909291905050506101f1565b005b3480156100ac57600080fd5b506100ef600480360360208110156100c357600080fd5b81019080803573ffffffffffffffffffffffffffffffffffffffff16906020019092919050505061034b565b005b3480156100fd57600080fd5b506101066104c6565b604051808273ffffffffffffffffffffffffffffffffffffffff1673ffffffffffffffffffffffffffffffffffffffff16815260200191505060405180910390f35b34801561015457600080fd5b506101976004803603602081101561016b57600080fd5b81019080803573ffffffffffffffffffffffffffffffffffffffff1690602001909291905050506104ef565b6040518082815260200191505060405180910390f35b6101ef600480360360208110156101c357600080fd5b81019080803573ffffffffffffffffffffffffffffffffffffffff169060200190929190505050610538565b005b6000809054906101000a900473ffffffffffffffffffffffffffffffffffffffff1673ffffffffffffffffffffffffffffffffffffffff163373ffffffffffffffffffffffffffffffffffffffff161461024a57600080fd5b600073ffffffffffffffffffffffffffffffffffffffff168173ffffffffffffffffffffffffffffffffffffffff16141561028457600080fd5b806000806101000a81548173ffffffffffffffffffffffffffffffffffffffff021916908373ffffffffffffffffffffffffffffffffffffffff1602179055507f4101e71e974f68df5e9730cc223280b41654676bbb052cdcc735c3337e64d2d96000809054906101000a900473ffffffffffffffffffffffffffffffffffffffff16604051808273ffffffffffffffffffffffffffffffffffffffff1673ffffffffffffffffffffffffffffffffffffffff16815260200191505060405180910390a150565b6000809054906101000a900473ffffffffffffffffffffffffffffffffffffffff1673ffffffffffffffffffffffffffffffffffffffff163373ffffffffffffffffffffffffffffffffffffffff16146103a457600080fd5b6000600160008373ffffffffffffffffffffffffffffffffffffffff1673ffffffffffffffffffffffffffffffffffffffff1681526020019081526020016000205490506000600160008473ffffffffffffffffffffffffffffffffffffffff1673ffffffffffffffffffffffffffffffffffffffff168152602001908152602001600020819055508173ffffffffffffffffffffffffffffffffffffffff166108fc829081150290604051600060405180830381858888f19350505050158015610473573d6000803e3d6000fd5b508173ffffffffffffffffffffffffffffffffffffffff167f7084f5476618d8e60b11ef0d7d3f06914655adb8793e28ff7f018d4c76d505d5826040518082815260200191505060405180910390a25050565b60008060009054906101000a900473ffffffffffffffffffffffffffffffffffffffff16905090565b6000600160008373ffffffffffffffffffffffffffffffffffffffff1673ffffffffffffffffffffffffffffffffffffffff168152602001908152602001600020549050919050565b6000809054906101000a900473ffffffffffffffffffffffffffffffffffffffff1673ffffffffffffffffffffffffffffffffffffffff163373ffffffffffffffffffffffffffffffffffffffff161461059157600080fd5b60003490506105e881600160008573ffffffffffffffffffffffffffffffffffffffff1673ffffffffffffffffffffffffffffffffffffffff1681526020019081526020016000205461067d90919063ffffffff16565b600160008473ffffffffffffffffffffffffffffffffffffffff1673ffffffffffffffffffffffffffffffffffffffff168152602001908152602001600020819055508173ffffffffffffffffffffffffffffffffffffffff167f2da466a7b24304f47e87fa2e1e5a81b9831ce54fec19055ce277ca2f39ba42c4826040518082815260200191505060405180910390a25050565b60008082840190508381101561069257600080fd5b809150509291505056fea165627a7a723058206ff3f4624636dade308dec72df0f9ef152a5e6c1e6d0c5b7d63716b4f32996440029",
  "source": "pragma solidity ^0.5.0;\n\nimport \"./lib/IPoLC.sol\";\nimport \"./lib/TokenUtil.sol\";\nimport \"./lib/LiBA/Struct.sol\";\nimport \"./lib/LiBA/Asker.sol\";\nimport \"./lib/LiBA/Bidder.sol\";\nimport \"./lib/LiBA/Util.sol\";\nimport \"openzeppelin-solidity/contracts/math/SafeMath.sol\";\nimport \"openzeppelin-solidity/contracts/token/ERC20/IERC20.sol\";\nimport \"openzeppelin-solidity/contracts/token/ERC20/SafeERC20.sol\";\nimport \"openzeppelin-solidity/contracts/payment/PullPayment.sol\";\nimport \"openzeppelin-solidity/contracts/access/roles/WhitelistedRole.sol\";\nimport \"openzeppelin-solidity/contracts/lifecycle/Pausable.sol\";\nimport \"openzeppelin-solidity/contracts/ownership/Ownable.sol\";\n\n/**\n * @title LiBA\n * @notice Contract allows service providers to send assets stored in PoLC through auction.\n */\ncontract LiBA is Ownable, Pausable, TokenUtil, PullPayment, WhitelistedRole {\n    using SafeERC20 for IERC20;\n    using SafeMath for uint;\n    using LiBABidder for LiBAStruct.Auction;\n    using LiBAAsker for LiBAStruct.Auction;\n\n    uint constant private RATE_PRECISION = 100000;\n\n    IPoLC private polc;\n    uint private auctionCount;\n    bool private enableWhitelist;\n    IERC20 public celerToken;\n    mapping(uint => LiBAStruct.Auction) private auctions;\n    mapping(address => mapping(uint => LiBAStruct.Bid)) public bidsByUser;\n\n    event NewAuction(uint auctionId, address asker);\n    event NewBid(uint auctionId, address indexed bidder);\n    event UpdateBid(uint auctionId, address bidder);\n    event RevealBid(uint indexed auctionId, address bidder);\n    event ClaimWinners(uint indexed auctionId, address[] winners, address topLoser);\n    event ChallengeWinners(uint indexed auctionId, address challenger, address[] winners, address topLoser);\n    event FinalizeAuction(uint auctionId);\n    event FinalizeBid(uint auctionId, address bidder);\n    event RepayAuction(uint auctionId);\n    event CollectCollateral(uint auctionId, address winner);\n\n    constructor(\n        address _celerTokenAddress,\n        address _polcAddress,\n        bool _enableWhitelist\n    )\n        public\n    {\n        celerToken = IERC20(_celerTokenAddress);\n        polc = IPoLC(_polcAddress);\n        enableWhitelist = _enableWhitelist;\n\n        // Enable eth support by default\n        supportedTokens[address(0)] = true;\n    }\n\n    /**\n     * @notice Check if the sender is in the whitelist\n     */\n    modifier libaWhitelistCheck() {\n        if (enableWhitelist) {\n            require(\n                isWhitelisted(msg.sender),\n                \"WhitelistedRole: caller does not have the Whitelisted role\"\n            );\n        }\n        _;\n    }\n\n    function() external payable { }\n\n    function updateEnableWhitelist(bool _enable) external onlyOwner {\n        enableWhitelist = _enable;\n    }\n\n    /**\n     * @notice Launch a new auction\n     * @param _tokenAddress Token address to borrow\n     * @param _bidDuration Duration for bidding\n     * @param _revealDuration Duration for revealing\n     * @param _claimDuration Duration for claiming\n     * @param _challengeDuration Duration for challenging\n     * @param _finalizeDuration Duration for finalizing\n     * @param _value Total value asked\n     * @param _duration Duration for the lending\n     * @param _maxRate Maximum rate accepted\n     * @param _minValue Minimum value accepted\n     * @param _collateralAddress Collateral token address\n     * @param _collateralValue Collateral value\n     */\n    function initAuction(\n        address _tokenAddress,\n        uint _bidDuration,\n        uint _revealDuration,\n        uint _claimDuration,\n        uint _challengeDuration,\n        uint _finalizeDuration,\n        uint _value,\n        uint _duration,\n        uint _maxRate,\n        uint _minValue,\n        address _collateralAddress,\n        uint _collateralValue\n    )\n        external\n        payable\n        whenNotPaused\n        libaWhitelistCheck\n        validateToken(_collateralAddress, _collateralValue)\n    {\n        require(supportedTokens[_tokenAddress], \"token address must be supported\");\n        require(_bidDuration > 0, \"bid duration must be larger than zero\");\n        require(_revealDuration > 0, \"reveal duration must be larger than zero\");\n        require(_claimDuration > 0, \"claim duration must be larger than zero\");\n        require(_challengeDuration > 0, \"challenge duration must be larger than zero\");\n        require(_finalizeDuration > 0, \"finalize duration must be larger than zero\");\n        require(_value > 0, \"value must be larger than zero\");\n        require(_duration > 0, \"duration must be larger than zero\");\n\n        if (_collateralAddress != address(0)) {\n            IERC20(_collateralAddress).safeTransferFrom(msg.sender, address(this), _collateralValue);\n        }\n\n        LiBAStruct.Auction storage auction = auctions[auctionCount];\n        auction.asker = msg.sender;\n        auction.tokenAddress = _tokenAddress;\n        auction.collateralAddress = _collateralAddress;\n        auction.collateraValue = _collateralValue;\n        auction.challengeDuration = _challengeDuration;\n        auction.finalizeDuration = _finalizeDuration;\n        auction.value = _value;\n        auction.duration = _duration;\n        auction.maxRate = _maxRate;\n        auction.minValue = _minValue;\n        auction.bidEnd = block.number.add(_bidDuration);\n        auction.revealEnd = auction.bidEnd.add(_revealDuration);\n        auction.claimEnd = auction.revealEnd.add(_claimDuration);\n        auction.challengeEnd = auction.claimEnd.add(_challengeDuration);\n        auction.finalizeEnd = auction.challengeEnd.add(_finalizeDuration);\n\n        emit NewAuction(auctionCount, auction.asker);\n        auctionCount = auctionCount.add(1);\n    }\n\n    /**\n     * @notice Bid for an auction during the bidding period. If called more than once,\n     * it will update the existing bid for the sender. However, when the bid is updated,\n     * the previous Celer value will be forfeited\n     * @param _auctionId Id of the auction\n     * @param _hash Hash calculated from desired rate, value, celerValue and salt\n     * @param _celerValue Potential celer value for bidding, it can be larger than actual celer value\n     */\n    function placeBid(\n        uint _auctionId,\n        bytes32 _hash,\n        uint _celerValue\n    )\n        external\n        whenNotPaused\n    {\n        LiBAStruct.Auction storage auction = auctions[_auctionId];\n        LiBAStruct.Bid storage bid = bidsByUser[msg.sender][_auctionId];\n\n        if (bid.hash == 0) {\n            auction.bidders.push(msg.sender);\n            emit NewBid(_auctionId, msg.sender);\n        } else {\n            emit UpdateBid(_auctionId, msg.sender);\n        }\n\n        auction.placeBid(bid, celerToken, _hash, _celerValue);\n    }\n\n    /**\n     * @notice Reveal the bid of current user for an auction during the revealing period.\n     * It will calculate hash based on rate, value, celer value, and salt,\n     * and check if it is same as the hash provided in the bidding period.\n     * It will also check if commitment in PoLC has enough fund\n     * @param _auctionId Id of the auction\n     * @param _rate Interest rate for bidding\n     * @param _value Value for bidding\n     * @param _celerValue Celer value for bidding\n     * @param _salt A random value used for hash\n     * @param _commitmentId Commitment Id in PoLC belong to the sender\n     */\n    function revealBid(\n        uint _auctionId,\n        uint _rate,\n        uint _value,\n        uint _celerValue,\n        uint _salt,\n        uint _commitmentId\n    )\n        external\n        whenNotPaused\n    {\n        LiBAStruct.Auction storage auction = auctions[_auctionId];\n        LiBAStruct.Bid storage bid = bidsByUser[msg.sender][_auctionId];\n\n        auction.revealBid(bid, polc, celerToken, _rate, _value, _celerValue, _salt, _commitmentId);\n        emit RevealBid(_auctionId, msg.sender);\n    }\n\n    /**\n     * @notice The auction asker claims winners for the auction during the claim period\n     * @param _auctionId Id of the auction\n     * @param _winners A list of winner addresses\n     * @param _topLoser The loser who has the highest rank\n     */\n    function claimWinners(\n        uint _auctionId,\n        address[] calldata _winners,\n        address _topLoser\n    )\n        external\n        whenNotPaused\n    {\n        LiBAStruct.Auction storage auction = auctions[_auctionId];\n\n        auction.claimWinners(_winners, _topLoser);\n        emit ClaimWinners(_auctionId, _winners, _topLoser);\n    }\n\n    /**\n     * @notice A potential winner, who is not claimed as one of the winners,\n     * is able to challenge the auction during the challenge period\n     * @param _auctionId Id of the auction\n     * @param _winners A list of winner addresses\n     * @param _topLoser The loser who has the highest rank\n     */\n    function challengeWinners(\n        uint _auctionId,\n        address[] calldata _winners,\n        address _topLoser\n    )\n        external\n        whenNotPaused\n    {\n        LiBAStruct.Auction storage auction = auctions[_auctionId];\n        require(block.number > auction.claimEnd, \"must be within challenge\");\n        require(block.number <= auction.challengeEnd, \"must be within challenge duration\");\n        require(_validateChallenger(_auctionId, msg.sender), \"must be a valid challenger\");\n        require(LiBAUtil._validateTopLoser(auction.bidders ,_winners, _topLoser), \"invalid top loser\");\n\n        auction.winners = _winners;\n        auction.challengeEnd = auction.challengeEnd.add(auction.challengeDuration);\n        auction.finalizeEnd = auction.challengeEnd.add(auction.finalizeDuration);\n\n        emit ChallengeWinners(_auctionId, msg.sender, _winners, _topLoser);\n    }\n\n    /**\n     * @notice Finalize the auction by withdrawing money from PoLC commitments during finalize period\n     * @param _auctionId Id of the auction\n     */\n    function finalizeAuction(uint _auctionId) external whenNotPaused {\n        LiBAStruct.Auction storage auction = auctions[_auctionId];\n\n        auction.finalizeAuction(bidsByUser, polc, celerToken, _auctionId);\n        celerToken.safeTransferFrom(msg.sender, address(this), auction.feeDeposit);\n        _transfer(auction.tokenAddress, auction.asker, auction.value);\n\n        emit FinalizeAuction(_auctionId);\n    }\n\n    /**\n     * @notice Finalize the bid for bidders, who are not selected as winners,\n     * or the asker fails to finalize the auction before finalize period\n     * @param _auctionId Id of the auction\n     */\n    function finalizeBid(uint _auctionId) external whenNotPaused {\n        LiBAStruct.Auction storage auction = auctions[_auctionId];\n        LiBAStruct.Bid storage bid = bidsByUser[msg.sender][_auctionId];\n\n        auction.finalizeBid(bid, celerToken, polc);\n        emit FinalizeBid(_auctionId, msg.sender);\n    }\n\n    /**\n     * @notice Repay the auction with original assets and interests after lending ends\n     * It will send collateral back to asker if there is any\n     * @param _auctionId Id of the auction\n     */\n    function repayAuction(uint _auctionId) external payable whenNotPaused {\n        LiBAStruct.Auction storage auction = auctions[_auctionId];\n        require(auction.finalized, \"auction must be finalized\");\n        require(msg.sender == auction.asker, \"sender must be the auction asker\");\n        require(block.timestamp <= auction.lendingStart.add(auction.duration.mul(1 days)),  \"must be within auction lending duration\");\n\n        IERC20 token = IERC20(auction.tokenAddress);\n        uint value = msg.value;\n        uint totalCelerValue = 0;\n        uint actualDuration = block.timestamp.sub(auction.lendingStart).div(1 days);\n        LiBAStruct.Bid storage topLoserBid = bidsByUser[auction.topLoser][_auctionId];\n\n        for (uint i = 0; i < auction.winners.length; i++) {\n            address winner = auction.winners[i];\n            LiBAStruct.Bid storage winnerBid = bidsByUser[winner][_auctionId];\n            uint bidValue = winnerBid.value;\n            if (bidValue == 0) {\n                break;\n            }\n\n            uint interest = bidValue.mul(topLoserBid.rate).mul(actualDuration).div(RATE_PRECISION);\n            winnerBid.value = 0;\n            totalCelerValue = totalCelerValue.add(winnerBid.celerValue);\n\n            if (auction.tokenAddress == address(0)) {\n                value = value.sub(bidValue).sub(interest);\n                polc.repayCommitment.value(bidValue)(winner, winnerBid.commitmentId, auction.asker, bidValue);\n                _asyncTransfer(winner, interest);\n            } else {\n                polc.repayCommitment(winner, winnerBid.commitmentId, auction.asker, bidValue);\n                token.safeTransferFrom(auction.asker, winner, interest);\n            }\n        }\n\n        if (auction.collateraValue > 0) {\n            _transfer(auction.collateralAddress, auction.asker, auction.collateraValue);\n            auction.collateraValue = 0;\n        }\n\n        uint borrowFee = polc.calculateAuctionFee(auction.tokenAddress, auction.value, actualDuration);\n        borrowFee = borrowFee.sub(totalCelerValue);\n        celerToken.safeTransfer(auction.asker, auction.feeDeposit);\n        celerToken.safeTransferFrom(auction.asker, address(polc), borrowFee);\n        emit RepayAuction(_auctionId);\n    }\n\n    /**\n     * @notice Collect the collateral of the auction if lending is not repaid\n     * @param _auctionId Id of the auction\n     */\n    function collectCollateral(uint _auctionId) external whenNotPaused {\n        LiBAStruct.Auction storage auction = auctions[_auctionId];\n        LiBAStruct.Bid storage bid = bidsByUser[msg.sender][_auctionId];\n\n        uint collateralReward = auction.collectCollateral(bid);\n        _transfer(auction.collateralAddress, msg.sender, collateralReward);\n        emit CollectCollateral(_auctionId, msg.sender);\n    }\n\n    /**\n     * @notice Get auction info\n     * @param _auctionId Id of the auction\n     */\n    function getAuction(\n        uint _auctionId\n    )\n        external\n        view\n        returns (\n            address asker,\n            address tokenAddress,\n            address collateralAddress,\n            uint collateraValue,\n            uint value,\n            uint duration,\n            uint maxRate,\n            uint minValue\n        )\n    {\n        LiBAStruct.Auction storage auction = auctions[_auctionId];\n\n        asker = auction.asker;\n        tokenAddress = auction.tokenAddress;\n        collateralAddress = auction.collateralAddress;\n        collateraValue = auction.collateraValue;\n        value = auction.value;\n        duration = auction.duration;\n        maxRate = auction.maxRate;\n        minValue = auction.minValue;\n    }\n\n    /**\n     * @notice Get auction period\n     * @param _auctionId Id of the auction\n     */\n    function getAuctionPeriod(\n        uint _auctionId\n    )\n        external\n        view\n        returns (\n            uint bidEnd,\n            uint revealEnd,\n            uint claimEnd,\n            uint challengeEnd,\n            uint finalizeEnd,\n            bool finalized\n        )\n    {\n        LiBAStruct.Auction storage auction = auctions[_auctionId];\n\n        bidEnd = auction.bidEnd;\n        revealEnd = auction.revealEnd;\n        claimEnd = auction.claimEnd;\n        challengeEnd = auction.challengeEnd;\n        finalizeEnd = auction.finalizeEnd;\n        finalized = auction.finalized;\n    }\n\n    /**\n     * @notice Validate if challenger is valid one\n     * @param _auctionId Id of the auction\n     * @param _challenger Address for challenger, who may have higher score than current winners\n     */\n    function _validateChallenger(\n        uint _auctionId,\n        address _challenger\n    )\n        internal\n        view\n        returns(bool)\n    {\n        LiBAStruct.Bid storage challengerBid = bidsByUser[_challenger][_auctionId];\n        if (challengerBid.value == 0) {\n            return false;\n        }\n\n        LiBAStruct.Auction storage auction = auctions[_auctionId];\n        address[] storage winners = auction.winners;\n        bool isHigherRank = false;\n        bool isWinner = false;\n        uint totalValue = 0;\n\n        for (uint i = 0; i < winners.length; i++) {\n            address winner = winners[i];\n            LiBAStruct.Bid storage winnerBid = bidsByUser[winner][_auctionId];\n\n            // Too many winners\n            if (totalValue >= auction.value && i < winners.length) {\n                return true;\n            }\n\n            totalValue = totalValue.add(winnerBid.value);\n\n            if (winner == _challenger) {\n                isWinner = true;\n            }\n\n            if (!isHigherRank) {\n                if (_hasHigherRank(challengerBid, winnerBid)) {\n                    // The winner order is not right\n                    if (!isWinner) {\n                        return true;\n                    }\n\n                    isHigherRank = true;\n                }\n            }\n        }\n\n        if (isWinner) {\n            return false;\n        }\n\n        // Not enough winners claimed\n        if (totalValue < auction.value) {\n            return true;\n        }\n\n        return isHigherRank;\n    }\n\n    /**\n     * @notice Compare bids of corresponding bidders, return true if bidder0 has a higher rank\n     * @param _bid0  A bid\n     * @param _bid1 A bid\n     */\n    function _hasHigherRank(\n        LiBAStruct.Bid storage _bid0,\n        LiBAStruct.Bid storage _bid1\n    )\n        internal\n        view\n        returns(bool)\n    {\n        if (_bid0.rate > _bid1.rate) {\n            return false;\n        }\n\n        if (_bid0.rate < _bid1.rate) {\n            return true;\n        }\n\n        return _bid0.celerValue > _bid1.celerValue;\n    }\n}\n",
  "sourcePath": "/Users/zhuxuefeng/mygit/celer/cEconomy/contracts/LiBA.sol",
  "compiler": {
    "name": "solc",
    "version": "0.5.8+commit.23d335f2.Emscripten.clang"
  },
  "schemaVersion": "3.0.16",
  "updatedAt": "2019-10-12T01:21:50.019Z",
  "devdoc": {
    "methods": {
      "challengeWinners(uint256,address[],address)": {
        "params": {
          "_auctionId": "Id of the auction",
          "_topLoser": "The loser who has the highest rank",
          "_winners": "A list of winner addresses"
        }
      },
      "claimWinners(uint256,address[],address)": {
        "params": {
          "_auctionId": "Id of the auction",
          "_topLoser": "The loser who has the highest rank",
          "_winners": "A list of winner addresses"
        }
      },
      "collectCollateral(uint256)": {
        "params": {
          "_auctionId": "Id of the auction"
        }
      },
      "drainToken(address,uint256)": {
        "details": "This is for emergency situations.",
        "params": {
          "_amount": "drained token amount",
          "_tokenAddress": "address of token to drain"
        }
      },
      "finalizeAuction(uint256)": {
        "params": {
          "_auctionId": "Id of the auction"
        }
      },
      "finalizeBid(uint256)": {
        "params": {
          "_auctionId": "Id of the auction"
        }
      },
      "getAuction(uint256)": {
        "params": {
          "_auctionId": "Id of the auction"
        }
      },
      "getAuctionPeriod(uint256)": {
        "params": {
          "_auctionId": "Id of the auction"
        }
      },
      "initAuction(address,uint256,uint256,uint256,uint256,uint256,uint256,uint256,uint256,uint256,address,uint256)": {
        "params": {
          "_bidDuration": "Duration for bidding",
          "_challengeDuration": "Duration for challenging",
          "_claimDuration": "Duration for claiming",
          "_collateralAddress": "Collateral token address",
          "_collateralValue": "Collateral value",
          "_duration": "Duration for the lending",
          "_finalizeDuration": "Duration for finalizing",
          "_maxRate": "Maximum rate accepted",
          "_minValue": "Minimum value accepted",
          "_revealDuration": "Duration for revealing",
          "_tokenAddress": "Token address to borrow",
          "_value": "Total value asked"
        }
      },
      "isOwner()": {
        "return": "true if `msg.sender` is the owner of the contract."
      },
      "owner()": {
        "return": "the address of the owner."
      },
      "pause()": {
        "details": "called by the owner to pause, triggers stopped state"
      },
      "paused()": {
        "return": "true if the contract is paused, false otherwise."
      },
      "payments(address)": {
        "details": "Returns the credit owed to an address.",
        "params": {
          "dest": "The creditor's address."
        }
      },
      "placeBid(uint256,bytes32,uint256)": {
        "params": {
          "_auctionId": "Id of the auction",
          "_celerValue": "Potential celer value for bidding, it can be larger than actual celer value",
          "_hash": "Hash calculated from desired rate, value, celerValue and salt"
        }
      },
      "renounceOwnership()": {
        "details": "Allows the current owner to relinquish control of the contract."
      },
      "repayAuction(uint256)": {
        "params": {
          "_auctionId": "Id of the auction"
        }
      },
      "revealBid(uint256,uint256,uint256,uint256,uint256,uint256)": {
        "params": {
          "_auctionId": "Id of the auction",
          "_celerValue": "Celer value for bidding",
          "_commitmentId": "Commitment Id in PoLC belong to the sender",
          "_rate": "Interest rate for bidding",
          "_salt": "A random value used for hash",
          "_value": "Value for bidding"
        }
      },
      "transferOwnership(address)": {
        "details": "Allows the current owner to transfer control of the contract to a newOwner.",
        "params": {
          "newOwner": "The address to transfer ownership to."
        }
      },
      "unpause()": {
        "details": "called by the owner to unpause, returns to normal state"
      },
      "updateSupportedToken(address,bool)": {
        "params": {
          "_supported": "If the token is supported",
          "_tokenAddress": "Token address"
        }
      },
      "withdrawPayments(address)": {
        "details": "Withdraw accumulated balance.",
        "params": {
          "payee": "Whose balance will be withdrawn."
        }
      }
    },
    "title": "LiBA"
  },
  "userdoc": {
    "methods": {
      "challengeWinners(uint256,address[],address)": {
        "notice": "A potential winner, who is not claimed as one of the winners, is able to challenge the auction during the challenge period"
      },
      "claimWinners(uint256,address[],address)": {
        "notice": "The auction asker claims winners for the auction during the claim period"
      },
      "collectCollateral(uint256)": {
        "notice": "Collect the collateral of the auction if lending is not repaid"
      },
      "drainToken(address,uint256)": {
        "notice": "Onwer drains one type of tokens when the contract is paused"
      },
      "finalizeAuction(uint256)": {
        "notice": "Finalize the auction by withdrawing money from PoLC commitments during finalize period"
      },
      "finalizeBid(uint256)": {
        "notice": "Finalize the bid for bidders, who are not selected as winners, or the asker fails to finalize the auction before finalize period"
      },
      "getAuction(uint256)": {
        "notice": "Get auction info"
      },
      "getAuctionPeriod(uint256)": {
        "notice": "Get auction period"
      },
      "initAuction(address,uint256,uint256,uint256,uint256,uint256,uint256,uint256,uint256,uint256,address,uint256)": {
        "notice": "Launch a new auction"
      },
      "placeBid(uint256,bytes32,uint256)": {
        "notice": "Bid for an auction during the bidding period. If called more than once, it will update the existing bid for the sender. However, when the bid is updated, the previous Celer value will be forfeited"
      },
      "renounceOwnership()": {
        "notice": "Renouncing to ownership will leave the contract without an owner. It will not be possible to call the functions with the `onlyOwner` modifier anymore."
      },
      "repayAuction(uint256)": {
        "notice": "Repay the auction with original assets and interests after lending ends It will send collateral back to asker if there is any"
      },
      "revealBid(uint256,uint256,uint256,uint256,uint256,uint256)": {
        "notice": "Reveal the bid of current user for an auction during the revealing period. It will calculate hash based on rate, value, celer value, and salt, and check if it is same as the hash provided in the bidding period. It will also check if commitment in PoLC has enough fund"
      },
      "updateSupportedToken(address,bool)": {
        "notice": "Update a token in the supported list"
      }
    },
    "notice": "Contract allows service providers to send assets stored in PoLC through auction."
  }
}