{
  "contractName": "PoLC",
  "abi": [
    {
      "inputs": [
        {
          "internalType": "address",
          "name": "_celerTokenAddress",
          "type": "address"
        },
        {
          "internalType": "uint256",
          "name": "_blockReward",
          "type": "uint256"
        }
      ],
      "payable": false,
      "stateMutability": "nonpayable",
      "type": "constructor"
    },
    {
      "anonymous": false,
      "inputs": [
        {
          "indexed": false,
          "internalType": "address",
          "name": "tokenAddress",
          "type": "address"
        },
        {
          "indexed": false,
          "internalType": "uint256",
          "name": "amount",
          "type": "uint256"
        }
      ],
      "name": "DrainToken",
      "type": "event"
    },
    {
      "anonymous": false,
      "inputs": [
        {
          "indexed": false,
          "internalType": "uint256",
          "name": "commitmentId",
          "type": "uint256"
        },
        {
          "indexed": true,
          "internalType": "address",
          "name": "user",
          "type": "address"
        }
      ],
      "name": "NewCommitment",
      "type": "event"
    },
    {
      "anonymous": false,
      "inputs": [
        {
          "indexed": true,
          "internalType": "address",
          "name": "previousOwner",
          "type": "address"
        },
        {
          "indexed": true,
          "internalType": "address",
          "name": "newOwner",
          "type": "address"
        }
      ],
      "name": "OwnershipTransferred",
      "type": "event"
    },
    {
      "anonymous": false,
      "inputs": [
        {
          "indexed": false,
          "internalType": "address",
          "name": "account",
          "type": "address"
        }
      ],
      "name": "Paused",
      "type": "event"
    },
    {
      "anonymous": false,
      "inputs": [
        {
          "indexed": true,
          "internalType": "address",
          "name": "account",
          "type": "address"
        }
      ],
      "name": "PauserAdded",
      "type": "event"
    },
    {
      "anonymous": false,
      "inputs": [
        {
          "indexed": true,
          "internalType": "address",
          "name": "account",
          "type": "address"
        }
      ],
      "name": "PauserRemoved",
      "type": "event"
    },
    {
      "anonymous": false,
      "inputs": [
        {
          "indexed": false,
          "internalType": "address",
          "name": "account",
          "type": "address"
        }
      ],
      "name": "Unpaused",
      "type": "event"
    },
    {
      "anonymous": false,
      "inputs": [
        {
          "indexed": true,
          "internalType": "address",
          "name": "tokenAddress",
          "type": "address"
        },
        {
          "indexed": false,
          "internalType": "bool",
          "name": "supported",
          "type": "bool"
        }
      ],
      "name": "UpdateSupportedToken",
      "type": "event"
    },
    {
      "anonymous": false,
      "inputs": [
        {
          "indexed": false,
          "internalType": "uint256",
          "name": "commitmentId",
          "type": "uint256"
        }
      ],
      "name": "WithdrawFund",
      "type": "event"
    },
    {
      "anonymous": false,
      "inputs": [
        {
          "indexed": false,
          "internalType": "uint256",
          "name": "commitmentId",
          "type": "uint256"
        }
      ],
      "name": "WithdrawReward",
      "type": "event"
    },
    {
      "constant": false,
      "inputs": [
        {
          "internalType": "address",
          "name": "account",
          "type": "address"
        }
      ],
      "name": "addPauser",
      "outputs": [],
      "payable": false,
      "stateMutability": "nonpayable",
      "type": "function"
    },
    {
      "constant": true,
      "inputs": [
        {
          "internalType": "address",
          "name": "",
          "type": "address"
        },
        {
          "internalType": "uint256",
          "name": "",
          "type": "uint256"
        }
      ],
      "name": "commitmentsByUser",
      "outputs": [
        {
          "internalType": "address",
          "name": "tokenAddress",
          "type": "address"
        },
        {
          "internalType": "bool",
          "name": "locked",
          "type": "bool"
        },
        {
          "internalType": "uint256",
          "name": "lockStart",
          "type": "uint256"
        },
        {
          "internalType": "uint256",
          "name": "lockEnd",
          "type": "uint256"
        },
        {
          "internalType": "uint256",
          "name": "committedValue",
          "type": "uint256"
        },
        {
          "internalType": "uint256",
          "name": "availableValue",
          "type": "uint256"
        },
        {
          "internalType": "uint256",
          "name": "lendingValue",
          "type": "uint256"
        },
        {
          "internalType": "bool",
          "name": "rewardWithdrawn",
          "type": "bool"
        }
      ],
      "payable": false,
      "stateMutability": "view",
      "type": "function"
    },
    {
      "constant": false,
      "inputs": [
        {
          "internalType": "address",
          "name": "_tokenAddress",
          "type": "address"
        },
        {
          "internalType": "uint256",
          "name": "_amount",
          "type": "uint256"
        }
      ],
      "name": "drainToken",
      "outputs": [],
      "payable": false,
      "stateMutability": "nonpayable",
      "type": "function"
    },
    {
      "constant": true,
      "inputs": [],
      "name": "isOwner",
      "outputs": [
        {
          "internalType": "bool",
          "name": "",
          "type": "bool"
        }
      ],
      "payable": false,
      "stateMutability": "view",
      "type": "function"
    },
    {
      "constant": true,
      "inputs": [
        {
          "internalType": "address",
          "name": "account",
          "type": "address"
        }
      ],
      "name": "isPauser",
      "outputs": [
        {
          "internalType": "bool",
          "name": "",
          "type": "bool"
        }
      ],
      "payable": false,
      "stateMutability": "view",
      "type": "function"
    },
    {
      "constant": true,
      "inputs": [],
      "name": "owner",
      "outputs": [
        {
          "internalType": "address",
          "name": "",
          "type": "address"
        }
      ],
      "payable": false,
      "stateMutability": "view",
      "type": "function"
    },
    {
      "constant": false,
      "inputs": [],
      "name": "pause",
      "outputs": [],
      "payable": false,
      "stateMutability": "nonpayable",
      "type": "function"
    },
    {
      "constant": true,
      "inputs": [],
      "name": "paused",
      "outputs": [
        {
          "internalType": "bool",
          "name": "",
          "type": "bool"
        }
      ],
      "payable": false,
      "stateMutability": "view",
      "type": "function"
    },
    {
      "constant": false,
      "inputs": [],
      "name": "renounceOwnership",
      "outputs": [],
      "payable": false,
      "stateMutability": "nonpayable",
      "type": "function"
    },
    {
      "constant": false,
      "inputs": [],
      "name": "renouncePauser",
      "outputs": [],
      "payable": false,
      "stateMutability": "nonpayable",
      "type": "function"
    },
    {
      "constant": true,
      "inputs": [
        {
          "internalType": "address",
          "name": "",
          "type": "address"
        }
      ],
      "name": "supportedTokens",
      "outputs": [
        {
          "internalType": "bool",
          "name": "",
          "type": "bool"
        }
      ],
      "payable": false,
      "stateMutability": "view",
      "type": "function"
    },
    {
      "constant": false,
      "inputs": [
        {
          "internalType": "address",
          "name": "newOwner",
          "type": "address"
        }
      ],
      "name": "transferOwnership",
      "outputs": [],
      "payable": false,
      "stateMutability": "nonpayable",
      "type": "function"
    },
    {
      "constant": false,
      "inputs": [],
      "name": "unpause",
      "outputs": [],
      "payable": false,
      "stateMutability": "nonpayable",
      "type": "function"
    },
    {
      "constant": false,
      "inputs": [
        {
          "internalType": "address",
          "name": "_tokenAddress",
          "type": "address"
        },
        {
          "internalType": "bool",
          "name": "_supported",
          "type": "bool"
        }
      ],
      "name": "updateSupportedToken",
      "outputs": [],
      "payable": false,
      "stateMutability": "nonpayable",
      "type": "function"
    },
    {
      "constant": false,
      "inputs": [
        {
          "internalType": "address",
          "name": "_tokenAddress",
          "type": "address"
        },
        {
          "internalType": "uint256",
          "name": "_duration",
          "type": "uint256"
        },
        {
          "internalType": "uint256",
          "name": "_value",
          "type": "uint256"
        }
      ],
      "name": "commitFund",
      "outputs": [],
      "payable": true,
      "stateMutability": "payable",
      "type": "function"
    },
    {
      "constant": false,
      "inputs": [
        {
          "internalType": "uint256",
          "name": "_commitmentId",
          "type": "uint256"
        }
      ],
      "name": "withdrawFund",
      "outputs": [],
      "payable": false,
      "stateMutability": "nonpayable",
      "type": "function"
    },
    {
      "constant": false,
      "inputs": [
        {
          "internalType": "uint256",
          "name": "_commitmentId",
          "type": "uint256"
        }
      ],
      "name": "withdrawReward",
      "outputs": [],
      "payable": false,
      "stateMutability": "nonpayable",
      "type": "function"
    },
    {
      "constant": false,
      "inputs": [
        {
          "internalType": "address",
          "name": "_libaAddress",
          "type": "address"
        }
      ],
      "name": "setLibaAddress",
      "outputs": [],
      "payable": false,
      "stateMutability": "nonpayable",
      "type": "function"
    },
    {
      "constant": true,
      "inputs": [
        {
          "internalType": "address",
          "name": "_tokenAddress",
          "type": "address"
        },
        {
          "internalType": "uint256",
          "name": "_value",
          "type": "uint256"
        },
        {
          "internalType": "uint256",
          "name": "_duration",
          "type": "uint256"
        }
      ],
      "name": "calculateAuctionFee",
      "outputs": [
        {
          "internalType": "uint256",
          "name": "",
          "type": "uint256"
        }
      ],
      "payable": false,
      "stateMutability": "view",
      "type": "function"
    },
    {
      "constant": false,
      "inputs": [
        {
          "internalType": "address",
          "name": "_user",
          "type": "address"
        },
        {
          "internalType": "uint256",
          "name": "_commitmentId",
          "type": "uint256"
        },
        {
          "internalType": "address",
          "name": "_tokenAddress",
          "type": "address"
        },
        {
          "internalType": "uint256",
          "name": "_value",
          "type": "uint256"
        }
      ],
      "name": "lendCommitment",
      "outputs": [],
      "payable": false,
      "stateMutability": "nonpayable",
      "type": "function"
    },
    {
      "constant": false,
      "inputs": [
        {
          "internalType": "address",
          "name": "_user",
          "type": "address"
        },
        {
          "internalType": "uint256",
          "name": "_commitmentId",
          "type": "uint256"
        },
        {
          "internalType": "address",
          "name": "_borrower",
          "type": "address"
        },
        {
          "internalType": "uint256",
          "name": "_value",
          "type": "uint256"
        }
      ],
      "name": "repayCommitment",
      "outputs": [],
      "payable": true,
      "stateMutability": "payable",
      "type": "function"
    },
    {
      "constant": false,
      "inputs": [
        {
          "internalType": "uint256",
          "name": "_commitmentId",
          "type": "uint256"
        }
      ],
      "name": "calculateReward",
      "outputs": [
        {
          "internalType": "uint256",
          "name": "",
          "type": "uint256"
        }
      ],
      "payable": false,
      "stateMutability": "nonpayable",
      "type": "function"
    }
  ],
  "bytecode": "0x60806040523480156200001157600080fd5b50604051620030d6380380620030d6833981810160405260408110156200003757600080fd5b810190808051906020019092919080519060200190929190505050336000806101000a81548173ffffffffffffffffffffffffffffffffffffffff021916908373ffffffffffffffffffffffffffffffffffffffff1602179055506000809054906101000a900473ffffffffffffffffffffffffffffffffffffffff1673ffffffffffffffffffffffffffffffffffffffff16600073ffffffffffffffffffffffffffffffffffffffff167f8be0079c531659141344cd1fd0a4f28419497f9722a3daafe3b4186f6b6457e060405160405180910390a36200011f33620001e260201b60201c565b6000600260006101000a81548160ff02191690831515021790555081600560006101000a81548173ffffffffffffffffffffffffffffffffffffffff021916908373ffffffffffffffffffffffffffffffffffffffff160217905550806006819055506001600360008073ffffffffffffffffffffffffffffffffffffffff1673ffffffffffffffffffffffffffffffffffffffff16815260200190815260200160002060006101000a81548160ff02191690831515021790555050506200038c565b620001fd8160016200024360201b62002ae71790919060201c565b8073ffffffffffffffffffffffffffffffffffffffff167f6719d08c1888103bea251a4ed56406bd0c3e69723c8a1686e017e7bbe159b6f860405160405180910390a250565b600073ffffffffffffffffffffffffffffffffffffffff168173ffffffffffffffffffffffffffffffffffffffff1614156200027e57600080fd5b620002908282620002f960201b60201c565b156200029b57600080fd5b60018260000160008373ffffffffffffffffffffffffffffffffffffffff1673ffffffffffffffffffffffffffffffffffffffff16815260200190815260200160002060006101000a81548160ff0219169083151502179055505050565b60008073ffffffffffffffffffffffffffffffffffffffff168273ffffffffffffffffffffffffffffffffffffffff1614156200033557600080fd5b8260000160008373ffffffffffffffffffffffffffffffffffffffff1673ffffffffffffffffffffffffffffffffffffffff16815260200190815260200160002060009054906101000a900460ff16905092915050565b612d3a806200039c6000396000f3fe6080604052600436106101355760003560e01c8063715018a6116100ab5780639d4323be1161006f5780639d4323be14610607578063d2d7231f14610662578063da4e509d146106b1578063e090d04514610709578063e71ef4fe14610781578063f2fde38b146107de57610135565b8063715018a61461050257806382dc1ec4146105195780638456cb591461056a5780638da5cb5b146105815780638f32d59b146105d857610135565b806346fbf68e116100fd57806346fbf68e1461032a578063523a3f08146103935780635c975abb146103ce578063657275ab146103fd57806368c4ac26146104825780636ef8d66d146104eb57610135565b806301f2e9a81461013a5780630cee1725146101b357806315465d0b146101ee5780632ecf41031461023f5780633f4ba83a14610313575b600080fd5b34801561014657600080fd5b5061019d6004803603606081101561015d57600080fd5b81019080803573ffffffffffffffffffffffffffffffffffffffff169060200190929190803590602001909291908035906020019092919050505061082f565b6040518082815260200191505060405180910390f35b3480156101bf57600080fd5b506101ec600480360360208110156101d657600080fd5b8101908080359060200190929190505050610981565b005b3480156101fa57600080fd5b5061023d6004803603602081101561021157600080fd5b81019080803573ffffffffffffffffffffffffffffffffffffffff169060200190929190505050610c9d565b005b34801561024b57600080fd5b506102986004803603604081101561026257600080fd5b81019080803573ffffffffffffffffffffffffffffffffffffffff16906020019092919080359060200190929190505050610db6565b604051808973ffffffffffffffffffffffffffffffffffffffff1673ffffffffffffffffffffffffffffffffffffffff16815260200188151515158152602001878152602001868152602001858152602001848152602001838152602001821515151581526020019850505050505050505060405180910390f35b34801561031f57600080fd5b50610328610e45565b005b34801561033657600080fd5b506103796004803603602081101561034d57600080fd5b81019080803573ffffffffffffffffffffffffffffffffffffffff169060200190929190505050610ef0565b604051808215151515815260200191505060405180910390f35b34801561039f57600080fd5b506103cc600480360360208110156103b657600080fd5b8101908080359060200190929190505050610f0d565b005b3480156103da57600080fd5b506103e361132d565b604051808215151515815260200191505060405180910390f35b34801561040957600080fd5b506104806004803603608081101561042057600080fd5b81019080803573ffffffffffffffffffffffffffffffffffffffff16906020019092919080359060200190929190803573ffffffffffffffffffffffffffffffffffffffff16906020019092919080359060200190929190505050611344565b005b34801561048e57600080fd5b506104d1600480360360208110156104a557600080fd5b81019080803573ffffffffffffffffffffffffffffffffffffffff169060200190929190505050611591565b604051808215151515815260200191505060405180910390f35b3480156104f757600080fd5b506105006115b1565b005b34801561050e57600080fd5b506105176115bc565b005b34801561052557600080fd5b506105686004803603602081101561053c57600080fd5b81019080803573ffffffffffffffffffffffffffffffffffffffff16906020019092919050505061168c565b005b34801561057657600080fd5b5061057f6116aa565b005b34801561058d57600080fd5b50610596611756565b604051808273ffffffffffffffffffffffffffffffffffffffff1673ffffffffffffffffffffffffffffffffffffffff16815260200191505060405180910390f35b3480156105e457600080fd5b506105ed61177f565b604051808215151515815260200191505060405180910390f35b34801561061357600080fd5b506106606004803603604081101561062a57600080fd5b81019080803573ffffffffffffffffffffffffffffffffffffffff169060200190929190803590602001909291905050506117d6565b005b34801561066e57600080fd5b5061069b6004803603602081101561068557600080fd5b810190808035906020019092919050505061187a565b6040518082815260200191505060405180910390f35b610707600480360360608110156106c757600080fd5b81019080803573ffffffffffffffffffffffffffffffffffffffff16906020019092919080359060200190929190803590602001909291905050506119ed565b005b61077f6004803603608081101561071f57600080fd5b81019080803573ffffffffffffffffffffffffffffffffffffffff16906020019092919080359060200190929190803573ffffffffffffffffffffffffffffffffffffffff16906020019092919080359060200190929190505050611fea565b005b34801561078d57600080fd5b506107dc600480360360408110156107a457600080fd5b81019080803573ffffffffffffffffffffffffffffffffffffffff1690602001909291908035151590602001909291905050506122e1565b005b3480156107ea57600080fd5b5061082d6004803603602081101561080157600080fd5b81019080803573ffffffffffffffffffffffffffffffffffffffff169060200190929190505050612413565b005b600080600760008673ffffffffffffffffffffffffffffffffffffffff1673ffffffffffffffffffffffffffffffffffffffff1681526020019081526020016000209050600061089e6001610890620151804261243090919063ffffffff16565b61245690919063ffffffff16565b905060006108b5858361245690919063ffffffff16565b9050600080905060008390505b828110156108fe576108ef856000838152602001908152602001600020548361245690919063ffffffff16565b915080806001019150506108c2565b5060008114156109285761091d8660065461247590919063ffffffff16565b94505050505061097a565b610973816109656006546109578a6109498c8e61247590919063ffffffff16565b61247590919063ffffffff16565b61247590919063ffffffff16565b61243090919063ffffffff16565b9450505050505b9392505050565b600260009054906101000a900460ff161561099b57600080fd5b806109a4612b93565b600860003373ffffffffffffffffffffffffffffffffffffffff1673ffffffffffffffffffffffffffffffffffffffff1681526020019081526020016000206000838152602001908152602001600020604051806101000160405290816000820160009054906101000a900473ffffffffffffffffffffffffffffffffffffffff1673ffffffffffffffffffffffffffffffffffffffff1673ffffffffffffffffffffffffffffffffffffffff1681526020016000820160149054906101000a900460ff1615151515815260200160018201548152602001600282015481526020016003820154815260200160048201548152602001600582015481526020016006820160009054906101000a900460ff1615151515815250509050600081608001511415610b3b576040517f08c379a00000000000000000000000000000000000000000000000000000000081526004018080602001828103825260158152602001807f636f6d6d69746d656e74206d757374206578697374000000000000000000000081525060200191505060405180910390fd5b610b51620151804261243090919063ffffffff16565b816060015110610bc9576040517f08c379a000000000000000000000000000000000000000000000000000000000815260040180806020018281038252601b8152602001807f636f6d6d69746d656e74206c6f636b206d75737420657870697265000000000081525060200191505060405180910390fd5b6000600860003373ffffffffffffffffffffffffffffffffffffffff1673ffffffffffffffffffffffffffffffffffffffff1681526020019081526020016000206000858152602001908152602001600020905060008160040154905060008260040181905550610c5f8260000160009054906101000a900473ffffffffffffffffffffffffffffffffffffffff1633836124af565b7fd03e026b842138eab06c2418a5fc2eb6c68ba2c6a0d2768b0e4024d8d3196a89856040518082815260200191505060405180910390a15050505050565b610ca561177f565b610cae57600080fd5b600073ffffffffffffffffffffffffffffffffffffffff16600460009054906101000a900473ffffffffffffffffffffffffffffffffffffffff1673ffffffffffffffffffffffffffffffffffffffff1614610d72576040517f08c379a00000000000000000000000000000000000000000000000000000000081526004018080602001828103825260208152602001807f6c696261416464726573732063616e206f6e6c7920626520736574206f6e636581525060200191505060405180910390fd5b80600460006101000a81548173ffffffffffffffffffffffffffffffffffffffff021916908373ffffffffffffffffffffffffffffffffffffffff16021790555050565b6008602052816000526040600020602052806000526040600020600091509150508060000160009054906101000a900473ffffffffffffffffffffffffffffffffffffffff16908060000160149054906101000a900460ff16908060010154908060020154908060030154908060040154908060050154908060060160009054906101000a900460ff16905088565b610e4e33610ef0565b610e5757600080fd5b600260009054906101000a900460ff16610e7057600080fd5b6000600260006101000a81548160ff0219169083151502179055507f5db9ee0a495bf2e6ff9c91a7834c1ba4fdd244a5e8aa4e537bd38aeae4b073aa33604051808273ffffffffffffffffffffffffffffffffffffffff1673ffffffffffffffffffffffffffffffffffffffff16815260200191505060405180910390a1565b6000610f068260016125f690919063ffffffff16565b9050919050565b600260009054906101000a900460ff1615610f2757600080fd5b80610f30612b93565b600860003373ffffffffffffffffffffffffffffffffffffffff1673ffffffffffffffffffffffffffffffffffffffff1681526020019081526020016000206000838152602001908152602001600020604051806101000160405290816000820160009054906101000a900473ffffffffffffffffffffffffffffffffffffffff1673ffffffffffffffffffffffffffffffffffffffff1673ffffffffffffffffffffffffffffffffffffffff1681526020016000820160149054906101000a900460ff1615151515815260200160018201548152602001600282015481526020016003820154815260200160048201548152602001600582015481526020016006820160009054906101000a900460ff16151515158152505090506000816080015114156110c7576040517f08c379a00000000000000000000000000000000000000000000000000000000081526004018080602001828103825260158152602001807f636f6d6d69746d656e74206d757374206578697374000000000000000000000081525060200191505060405180910390fd5b6110dd620151804261243090919063ffffffff16565b816060015110611155576040517f08c379a000000000000000000000000000000000000000000000000000000000815260040180806020018281038252601b8152602001807f636f6d6d69746d656e74206c6f636b206d75737420657870697265000000000081525060200191505060405180910390fd5b6000600860003373ffffffffffffffffffffffffffffffffffffffff1673ffffffffffffffffffffffffffffffffffffffff168152602001908152602001600020600085815260200190815260200160002090508060000160149054906101000a900460ff16611210576040517f08c379a0000000000000000000000000000000000000000000000000000000008152600401808060200182810382526026815260200180612bf36026913960400191505060405180910390fd5b8060060160009054906101000a900460ff1615611278576040517f08c379a0000000000000000000000000000000000000000000000000000000008152600401808060200182810382526023815260200180612c6a6023913960400191505060405180910390fd5b60006112838561187a565b905060018260060160006101000a81548160ff0219169083151502179055506112ef3382600560009054906101000a900473ffffffffffffffffffffffffffffffffffffffff1673ffffffffffffffffffffffffffffffffffffffff166126889092919063ffffffff16565b7f57b16428e0995660a2371bfccc1866c98df04182d095c00b50648af066dd1ec9856040518082815260200191505060405180910390a15050505050565b6000600260009054906101000a900460ff16905090565b600260009054906101000a900460ff161561135e57600080fd5b600460009054906101000a900473ffffffffffffffffffffffffffffffffffffffff1673ffffffffffffffffffffffffffffffffffffffff163373ffffffffffffffffffffffffffffffffffffffff1614611421576040517f08c379a000000000000000000000000000000000000000000000000000000000815260040180806020018281038252601c8152602001807f73656e646572206d757374206265206c69626120636f6e74726163740000000081525060200191505060405180910390fd5b6000600860008673ffffffffffffffffffffffffffffffffffffffff1673ffffffffffffffffffffffffffffffffffffffff168152602001908152602001600020600085815260200190815260200160002090508273ffffffffffffffffffffffffffffffffffffffff168160000160009054906101000a900473ffffffffffffffffffffffffffffffffffffffff1673ffffffffffffffffffffffffffffffffffffffff161461151d576040517f08c379a000000000000000000000000000000000000000000000000000000000815260040180806020018281038252602f815260200180612c8d602f913960400191505060405180910390fd5b61153482826004015461275890919063ffffffff16565b816004018190555061155382826005015461245690919063ffffffff16565b816005018190555061158a8160000160009054906101000a900473ffffffffffffffffffffffffffffffffffffffff1633846124af565b5050505050565b60036020528060005260406000206000915054906101000a900460ff1681565b6115ba33612778565b565b6115c461177f565b6115cd57600080fd5b600073ffffffffffffffffffffffffffffffffffffffff166000809054906101000a900473ffffffffffffffffffffffffffffffffffffffff1673ffffffffffffffffffffffffffffffffffffffff167f8be0079c531659141344cd1fd0a4f28419497f9722a3daafe3b4186f6b6457e060405160405180910390a360008060006101000a81548173ffffffffffffffffffffffffffffffffffffffff021916908373ffffffffffffffffffffffffffffffffffffffff160217905550565b61169533610ef0565b61169e57600080fd5b6116a7816127d2565b50565b6116b333610ef0565b6116bc57600080fd5b600260009054906101000a900460ff16156116d657600080fd5b6001600260006101000a81548160ff0219169083151502179055507f62e78cea01bee320cd4e420270b5ea74000d11b0c9f74754ebdbfc544b05a25833604051808273ffffffffffffffffffffffffffffffffffffffff1673ffffffffffffffffffffffffffffffffffffffff16815260200191505060405180910390a1565b60008060009054906101000a900473ffffffffffffffffffffffffffffffffffffffff16905090565b60008060009054906101000a900473ffffffffffffffffffffffffffffffffffffffff1673ffffffffffffffffffffffffffffffffffffffff163373ffffffffffffffffffffffffffffffffffffffff1614905090565b600260009054906101000a900460ff166117ef57600080fd5b6117f761177f565b61180057600080fd5b61180b8233836124af565b7fac6572a44b29fc3e82672a2d68efd9bd694204ee2274bc37ee5c4cebcf3fa1ef8282604051808373ffffffffffffffffffffffffffffffffffffffff1673ffffffffffffffffffffffffffffffffffffffff1681526020018281526020019250505060405180910390a15050565b600080600860003373ffffffffffffffffffffffffffffffffffffffff1673ffffffffffffffffffffffffffffffffffffffff16815260200190815260200160002060008481526020019081526020016000209050600080905060006119076118f48460010154856002015461275890919063ffffffff16565b846003015461247590919063ffffffff16565b90506000600760008560000160009054906101000a900473ffffffffffffffffffffffffffffffffffffffff1673ffffffffffffffffffffffffffffffffffffffff1673ffffffffffffffffffffffffffffffffffffffff16815260200190815260200160002090506000846001015490505b84600201548110156119e0576119d16119c2836000848152602001908152602001600020546119b48660065461247590919063ffffffff16565b61243090919063ffffffff16565b8561245690919063ffffffff16565b9350808060010191505061197a565b5082945050505050919050565b600260009054906101000a900460ff1615611a0757600080fd5b8281600360008373ffffffffffffffffffffffffffffffffffffffff1673ffffffffffffffffffffffffffffffffffffffff16815260200190815260200160002060009054906101000a900460ff16611ac8576040517f08c379a000000000000000000000000000000000000000000000000000000000815260040180806020018281038252601f8152602001807f746f6b656e2061646472657373206d75737420626520737570706f727465640081525060200191505060405180910390fd5b600073ffffffffffffffffffffffffffffffffffffffff168273ffffffffffffffffffffffffffffffffffffffff161415611b7757348114611b72576040517f08c379a000000000000000000000000000000000000000000000000000000000815260040180806020018281038252601d8152602001807f76616c7565206d75737420626520657175616c206d73672076616c756500000081525060200191505060405180910390fd5b611bee565b60003414611bed576040517f08c379a00000000000000000000000000000000000000000000000000000000081526004018080602001828103825260168152602001807f6d73672076616c7565206d757374206265207a65726f0000000000000000000081525060200191505060405180910390fd5b5b60008410158015611c00575061016d84105b611c55576040517f08c379a0000000000000000000000000000000000000000000000000000000008152600401808060200182810382526027815260200180612c196027913960400191505060405180910390fd5b60008311611ccb576040517f08c379a000000000000000000000000000000000000000000000000000000000815260040180806020018281038252601b8152602001807f76616c7565206d757374206265206c6172676572207468616e2030000000000081525060200191505060405180910390fd5b600033905060004290506000859050600073ffffffffffffffffffffffffffffffffffffffff168873ffffffffffffffffffffffffffffffffffffffff1614611d3c57611d3b3330888b73ffffffffffffffffffffffffffffffffffffffff1661282c909392919063ffffffff16565b5b6000600860008573ffffffffffffffffffffffffffffffffffffffff1673ffffffffffffffffffffffffffffffffffffffff168152602001908152602001600020600084815260200190815260200160002090506000816003015414611ded576040517f08c379a000000000000000000000000000000000000000000000000000000000815260040180806020018281038252602a815260200180612c40602a913960400191505060405180910390fd5b888160000160006101000a81548173ffffffffffffffffffffffffffffffffffffffff021916908373ffffffffffffffffffffffffffffffffffffffff16021790555060008160000160146101000a81548160ff0219169083151502179055508181600301819055508181600401819055506000881115611f91576000611e936001611e85620151808761243090919063ffffffff16565b61245690919063ffffffff16565b90506000611eaa8a8361245690919063ffffffff16565b905060018360000160146101000a81548160ff0219169083151502179055508183600101819055508083600201819055506000600760008d73ffffffffffffffffffffffffffffffffffffffff1673ffffffffffffffffffffffffffffffffffffffff16815260200190815260200160002090506000611f338c8761247590919063ffffffff16565b905060008490505b83811015611f8b57611f68828460008481526020019081526020016000205461245690919063ffffffff16565b836000838152602001908152602001600020819055508080600101915050611f3b565b50505050505b8373ffffffffffffffffffffffffffffffffffffffff167f5de665a21cada463a82f66cb64dba20f9af6b604608d81f5c37080469404ce57846040518082815260200191505060405180910390a2505050505050505050565b600460009054906101000a900473ffffffffffffffffffffffffffffffffffffffff1673ffffffffffffffffffffffffffffffffffffffff163373ffffffffffffffffffffffffffffffffffffffff16146120ad576040517f08c379a000000000000000000000000000000000000000000000000000000000815260040180806020018281038252601c8152602001807f73656e646572206d757374206265206c69626120636f6e74726163740000000081525060200191505060405180910390fd5b6000600860008673ffffffffffffffffffffffffffffffffffffffff1673ffffffffffffffffffffffffffffffffffffffff1681526020019081526020016000206000858152602001908152602001600020905061211882826005015461275890919063ffffffff16565b816005018190555061213782826004015461245690919063ffffffff16565b8160040181905550600073ffffffffffffffffffffffffffffffffffffffff168160000160009054906101000a900473ffffffffffffffffffffffffffffffffffffffff1673ffffffffffffffffffffffffffffffffffffffff1614156122125781341461220d576040517f08c379a000000000000000000000000000000000000000000000000000000000815260040180806020018281038252601a8152602001807f76616c7565206d757374206d61746368206d73672076616c756500000000000081525060200191505060405180910390fd5b6122da565b60003414612288576040517f08c379a00000000000000000000000000000000000000000000000000000000081526004018080602001828103825260128152602001807f76616c7565206d757374206265207a65726f000000000000000000000000000081525060200191505060405180910390fd5b6122d98330848460000160009054906101000a900473ffffffffffffffffffffffffffffffffffffffff1673ffffffffffffffffffffffffffffffffffffffff1661282c909392919063ffffffff16565b5b5050505050565b6122e961177f565b6122f257600080fd5b6123118273ffffffffffffffffffffffffffffffffffffffff16612931565b612366576040517f08c379a0000000000000000000000000000000000000000000000000000000008152600401808060200182810382526026815260200180612ce06026913960400191505060405180910390fd5b80600360008473ffffffffffffffffffffffffffffffffffffffff1673ffffffffffffffffffffffffffffffffffffffff16815260200190815260200160002060006101000a81548160ff0219169083151502179055508173ffffffffffffffffffffffffffffffffffffffff167fd71e43dae5ba4386463c0ef49b6f19fc82aea6a936b4242ef04b99730c0ed4c382604051808215151515815260200191505060405180910390a25050565b61241b61177f565b61242457600080fd5b61242d81612944565b50565b600080821161243e57600080fd5b600082848161244957fe5b0490508091505092915050565b60008082840190508381101561246b57600080fd5b8091505092915050565b60008083141561248857600090506124a9565b600082840290508284828161249957fe5b04146124a457600080fd5b809150505b92915050565b600073ffffffffffffffffffffffffffffffffffffffff168273ffffffffffffffffffffffffffffffffffffffff161415612535576040517f08c379a0000000000000000000000000000000000000000000000000000000008152600401808060200182810382526024815260200180612cbc6024913960400191505060405180910390fd5b6000811415612543576125f1565b600073ffffffffffffffffffffffffffffffffffffffff168373ffffffffffffffffffffffffffffffffffffffff1614156125c4578173ffffffffffffffffffffffffffffffffffffffff166108fc829081150290604051600060405180830381858888f193505050501580156125be573d6000803e3d6000fd5b506125f0565b6125ef82828573ffffffffffffffffffffffffffffffffffffffff166126889092919063ffffffff16565b5b5b505050565b60008073ffffffffffffffffffffffffffffffffffffffff168273ffffffffffffffffffffffffffffffffffffffff16141561263157600080fd5b8260000160008373ffffffffffffffffffffffffffffffffffffffff1673ffffffffffffffffffffffffffffffffffffffff16815260200190815260200160002060009054906101000a900460ff16905092915050565b8273ffffffffffffffffffffffffffffffffffffffff1663a9059cbb83836040518363ffffffff1660e01b8152600401808373ffffffffffffffffffffffffffffffffffffffff1673ffffffffffffffffffffffffffffffffffffffff16815260200182815260200192505050602060405180830381600087803b15801561270f57600080fd5b505af1158015612723573d6000803e3d6000fd5b505050506040513d602081101561273957600080fd5b810190808051906020019092919050505061275357600080fd5b505050565b60008282111561276757600080fd5b600082840390508091505092915050565b61278c816001612a3c90919063ffffffff16565b8073ffffffffffffffffffffffffffffffffffffffff167fcd265ebaf09df2871cc7bd4133404a235ba12eff2041bb89d9c714a2621c7c7e60405160405180910390a250565b6127e6816001612ae790919063ffffffff16565b8073ffffffffffffffffffffffffffffffffffffffff167f6719d08c1888103bea251a4ed56406bd0c3e69723c8a1686e017e7bbe159b6f860405160405180910390a250565b8373ffffffffffffffffffffffffffffffffffffffff166323b872dd8484846040518463ffffffff1660e01b8152600401808473ffffffffffffffffffffffffffffffffffffffff1673ffffffffffffffffffffffffffffffffffffffff1681526020018373ffffffffffffffffffffffffffffffffffffffff1673ffffffffffffffffffffffffffffffffffffffff1681526020018281526020019350505050602060405180830381600087803b1580156128e757600080fd5b505af11580156128fb573d6000803e3d6000fd5b505050506040513d602081101561291157600080fd5b810190808051906020019092919050505061292b57600080fd5b50505050565b600080823b905060008111915050919050565b600073ffffffffffffffffffffffffffffffffffffffff168173ffffffffffffffffffffffffffffffffffffffff16141561297e57600080fd5b8073ffffffffffffffffffffffffffffffffffffffff166000809054906101000a900473ffffffffffffffffffffffffffffffffffffffff1673ffffffffffffffffffffffffffffffffffffffff167f8be0079c531659141344cd1fd0a4f28419497f9722a3daafe3b4186f6b6457e060405160405180910390a3806000806101000a81548173ffffffffffffffffffffffffffffffffffffffff021916908373ffffffffffffffffffffffffffffffffffffffff16021790555050565b600073ffffffffffffffffffffffffffffffffffffffff168173ffffffffffffffffffffffffffffffffffffffff161415612a7657600080fd5b612a8082826125f6565b612a8957600080fd5b60008260000160008373ffffffffffffffffffffffffffffffffffffffff1673ffffffffffffffffffffffffffffffffffffffff16815260200190815260200160002060006101000a81548160ff0219169083151502179055505050565b600073ffffffffffffffffffffffffffffffffffffffff168173ffffffffffffffffffffffffffffffffffffffff161415612b2157600080fd5b612b2b82826125f6565b15612b3557600080fd5b60018260000160008373ffffffffffffffffffffffffffffffffffffffff1673ffffffffffffffffffffffffffffffffffffffff16815260200190815260200160002060006101000a81548160ff0219169083151502179055505050565b604051806101000160405280600073ffffffffffffffffffffffffffffffffffffffff1681526020016000151581526020016000815260200160008152602001600081526020016000815260200160008152602001600015158152509056fe636f6d6d696d656e74206d757374206265206c6f636b656420746f20676574207265776172646475726174696f6e206d7573742066616c6c20696e746f2074686520302d3336352072616e67656f6e652074696d657374616d702063616e206f6e6c792068617665206f6e6520636f6d6d69746d656e74636f6d6d696d656e742072657761726420686173206265656e2077697468647261776e636f6d6d696d656e7420746f6b656e41646472657373206d757374206d61746368205f746f6b656e416464726573737472616e7366657220746f2061646472657373206d757374206e6f74206265207a65726f746f6b656e2061646472657373206d75737420626520636f6e74726163742061646472657373a265627a7a72315820b9786f7ad5e77f31d6f228e3e045106f30c9c65b09da92bbc65a5113141fc26364736f6c634300050c0032",
  "source": "pragma solidity ^0.5.1;\n\nimport \"./lib/IPoLC.sol\";\nimport \"./lib/TokenUtil.sol\";\nimport \"openzeppelin-solidity/contracts/math/SafeMath.sol\";\nimport \"openzeppelin-solidity/contracts/token/ERC20/IERC20.sol\";\nimport \"openzeppelin-solidity/contracts/token/ERC20/SafeERC20.sol\";\nimport \"openzeppelin-solidity/contracts/ownership/Ownable.sol\";\nimport \"openzeppelin-solidity/contracts/lifecycle/Pausable.sol\";\n\n/**\n * @title PoLC\n * @notice Contract allows user to lock fund and collect reward.\n */\ncontract PoLC is Ownable, Pausable, IPoLC, TokenUtil {\n    using SafeERC20 for IERC20;\n    using SafeMath for uint;\n\n    struct Commitment {\n        address tokenAddress;\n        bool locked;\n        uint lockStart;\n        uint lockEnd;\n        uint committedValue;\n        uint availableValue;\n        uint lendingValue;\n        bool rewardWithdrawn;\n    }\n\n    address private libaAddress;\n    IERC20 private celerToken;\n    // reward payout for each block\n    uint private blockReward;\n    // mapping mining power by day\n    mapping(\n        address => mapping(uint => uint)\n    ) private powerByTokenTime;\n    // mapping user address to its commitments\n    mapping(\n        address => mapping (uint => Commitment)\n    ) public commitmentsByUser;\n\n    constructor(address _celerTokenAddress, uint _blockReward) public {\n        celerToken = IERC20(_celerTokenAddress);\n        blockReward = _blockReward;\n\n        // Enable eth support by default\n        supportedTokens[address(0)] = true;\n    }\n\n    event NewCommitment(uint commitmentId, address indexed user);\n    event WithdrawFund(uint commitmentId);\n    event WithdrawReward(uint commitmentId);\n\n    /**\n     * @notice Check if the commitment exists and its lock has expired\n     * @param _commitmentId ID of the commitment\n     */\n    modifier lockExpired(uint _commitmentId) {\n        Commitment memory commitment = commitmentsByUser[msg.sender][_commitmentId];\n        require(\n            commitment.committedValue != 0,\n            \"commitment must exist\"\n        );\n        require(\n            commitment.lockEnd < block.timestamp.div(1 days),\n            \"commitment lock must expire\"\n        );\n        _;\n    }\n\n    /**\n     * @notice Lock fund into the PoLC contract for a specific duration.\n     * The longer the duration and larger locked token value, more rewards will be earned.\n     * Once, the fund is locked, it can only be drawn when the lock expired.\n     * If the duration is set to 0, the fund will be lock-free, but there will be no reward.\n     * @param _tokenAddress Address of the locked token. For ETH, it will be 0\n     * @param _duration lock-in duration by days\n     * @param _value committed token value\n     */\n    function commitFund(\n        address _tokenAddress,\n        uint _duration,\n        uint _value\n    )\n        external\n        payable\n        whenNotPaused\n        validateToken(_tokenAddress, _value)\n    {\n        require(\n            _duration >= 0 && _duration < 365,\n            \"duration must fall into the 0-365 range\"\n        );\n        require(_value > 0, \"value must be larger than 0\");\n\n        address sender = msg.sender;\n        uint currentTimestamp = block.timestamp;\n        uint value = _value;\n\n        if (_tokenAddress != address(0)) {\n            IERC20(_tokenAddress).safeTransferFrom(msg.sender, address(this), _value);\n        }\n\n        Commitment storage commitment = commitmentsByUser[sender][currentTimestamp];\n        require(\n            commitment.committedValue == 0,\n            \"one timestamp can only have one commitment\"\n        );\n\n        commitment.tokenAddress = _tokenAddress;\n        commitment.locked = false;\n        commitment.committedValue = value;\n        commitment.availableValue = value;\n\n        if (_duration > 0) {\n            uint lockStart = currentTimestamp.div(1 days).add(1);\n            uint lockEnd = lockStart.add(_duration);\n            commitment.locked = true;\n            commitment.lockStart = lockStart;\n            commitment.lockEnd = lockEnd;\n            mapping (uint => uint) storage powerByTime = powerByTokenTime[_tokenAddress];\n            uint power = value.mul(_duration);\n            for (uint i = lockStart; i < lockEnd; i++) {\n                powerByTime[i] = powerByTime[i].add(power);\n            }\n        }\n\n        emit NewCommitment(currentTimestamp, sender);\n    }\n\n    /**\n     * @notice Withdraw all available fund in a commitment if its lock has expired\n     * @param _commitmentId ID of the commitment\n     */\n    function withdrawFund(\n        uint _commitmentId\n    )\n        external\n        whenNotPaused\n        lockExpired(_commitmentId)\n    {\n        Commitment storage commitment = commitmentsByUser[msg.sender][_commitmentId];\n        uint availableValue = commitment.availableValue;\n        commitment.availableValue = 0;\n        _transfer(commitment.tokenAddress, msg.sender, availableValue);\n\n        emit WithdrawFund(_commitmentId);\n    }\n\n    /**\n     * @notice Withdraw all available reward in a commitment if the lock has expired\n     * @param _commitmentId ID of the commitment\n     */\n    function withdrawReward(\n        uint _commitmentId\n    )\n        external\n        whenNotPaused\n        lockExpired(_commitmentId)\n    {\n        Commitment storage commitment = commitmentsByUser[msg.sender][_commitmentId];\n        require(commitment.locked, \"commiment must be locked to get reward\");\n        require(!commitment.rewardWithdrawn, \"commiment reward has been withdrawn\");\n\n        uint totalReward = calculateReward(_commitmentId);\n        commitment.rewardWithdrawn = true;\n        celerToken.safeTransfer(msg.sender, totalReward);\n        emit WithdrawReward(_commitmentId);\n    }\n\n    /**\n     * @notice Set libaAddress state variable\n     * @param _libaAddress Liba address\n     */\n    function setLibaAddress(address _libaAddress) external onlyOwner\n    {\n        require(libaAddress == address(0), \"libaAddress can only be set once\");\n        libaAddress = _libaAddress;\n    }\n\n    /**\n     * @notice Calculate the fee required to launch an auction in LiBA\n     * @param _tokenAddress Token address\n     * @param _value Value to borrow\n     * @param _duration Duration for the borrowing\n     */\n    function calculateAuctionFee(\n        address _tokenAddress,\n        uint _value,\n        uint _duration\n    )\n        external\n        view\n        returns (uint)\n    {\n        mapping (uint => uint) storage powerByTime = powerByTokenTime[_tokenAddress];\n        uint borrowStart = block.timestamp.div(1 days).add(1);\n        uint borrowEnd = borrowStart.add(_duration);\n        uint totalPower = 0;\n\n        for (uint i = borrowStart; i < borrowEnd; i++) {\n            totalPower = totalPower.add(powerByTime[i]);\n        }\n\n        if (totalPower == 0) {\n            return blockReward.mul(_duration);\n        }\n\n        return _value.mul(_duration).mul(_duration).mul(blockReward).div(totalPower);\n    }\n\n    /**\n     * @notice Send a specific value to Liba for lending. Can only be called from LiBA\n     * @param _user User address\n     * @param _commitmentId ID of the commitment\n     * @param _tokenAddress Address of token intended to lend\n     * @param _value Value to lend\n     */\n    function lendCommitment(\n        address _user,\n        uint _commitmentId,\n        address _tokenAddress,\n        uint _value\n    )\n        external\n        whenNotPaused\n    {\n        require(msg.sender == libaAddress, \"sender must be liba contract\");\n        Commitment storage commitment = commitmentsByUser[_user][_commitmentId];\n        require(commitment.tokenAddress == _tokenAddress, \"commiment tokenAddress must match _tokenAddress\");\n\n        commitment.availableValue = commitment.availableValue.sub(_value);\n        commitment.lendingValue = commitment.lendingValue.add(_value);\n        _transfer(commitment.tokenAddress, msg.sender, _value);\n    }\n\n   /**\n     * @notice Repay to the commitment when borrower returns money through LiBA\n     * @param _user User address\n     * @param _commitmentId ID of the commitment\n     * @param _value value to repay\n     */\n    function repayCommitment(\n        address _user,\n        uint _commitmentId,\n        address _borrower,\n        uint _value\n    )\n        external\n        payable\n    {\n        require(msg.sender == libaAddress, \"sender must be liba contract\");\n        Commitment storage commitment = commitmentsByUser[_user][_commitmentId];\n\n        commitment.lendingValue = commitment.lendingValue.sub(_value);\n        commitment.availableValue = commitment.availableValue.add(_value);\n\n        if (commitment.tokenAddress == address(0)) {\n            require(msg.value == _value, \"value must match msg value\");\n        } else {\n            require(msg.value == 0, \"value must be zero\");\n            IERC20(commitment.tokenAddress).safeTransferFrom(_borrower, address(this), _value);\n        }\n    }\n\n    /**\n     * @notice Calculate reward for a commitment\n     * @param _commitmentId ID of the commitment\n     */\n    function calculateReward(\n        uint _commitmentId\n    )\n        public\n        returns (uint)\n    {\n        Commitment storage commitment = commitmentsByUser[msg.sender][_commitmentId];\n        uint totalReward = 0;\n        uint power = commitment.committedValue.mul(\n            commitment.lockEnd.sub(commitment.lockStart)\n        );\n        mapping (uint => uint) storage powerByTime = powerByTokenTime[commitment.tokenAddress];\n        for (uint i = commitment.lockStart; i < commitment.lockEnd; i++) {\n            totalReward = totalReward.add(\n                blockReward.mul(power).div(powerByTime[i])\n            );\n        }\n\n        return totalReward;\n    }\n}\n",
  "sourcePath": "/Users/zhuxuefeng/mygit/celer/cEconomy/contracts/PoLC.sol",
  "compiler": {
    "name": "solc",
    "version": "0.5.12+commit.7709ece9.Emscripten.clang"
  },
  "schemaVersion": "3.0.16",
  "updatedAt": "2019-10-15T23:01:13.270Z",
  "devdoc": {
    "methods": {
      "calculateAuctionFee(address,uint256,uint256)": {
        "params": {
          "_duration": "Duration for the borrowing",
          "_tokenAddress": "Token address",
          "_value": "Value to borrow"
        }
      },
      "calculateReward(uint256)": {
        "params": {
          "_commitmentId": "ID of the commitment"
        }
      },
      "commitFund(address,uint256,uint256)": {
        "params": {
          "_duration": "lock-in duration by days",
          "_tokenAddress": "Address of the locked token. For ETH, it will be 0",
          "_value": "committed token value"
        }
      },
      "drainToken(address,uint256)": {
        "details": "This is for emergency situations.",
        "params": {
          "_amount": "drained token amount",
          "_tokenAddress": "address of token to drain"
        }
      },
      "isOwner()": {
        "return": "true if `msg.sender` is the owner of the contract."
      },
      "lendCommitment(address,uint256,address,uint256)": {
        "params": {
          "_commitmentId": "ID of the commitment",
          "_tokenAddress": "Address of token intended to lend",
          "_user": "User address",
          "_value": "Value to lend"
        }
      },
      "owner()": {
        "return": "the address of the owner."
      },
      "pause()": {
        "details": "called by the owner to pause, triggers stopped state"
      },
      "paused()": {
        "return": "true if the contract is paused, false otherwise."
      },
      "renounceOwnership()": {
        "details": "Allows the current owner to relinquish control of the contract."
      },
      "repayCommitment(address,uint256,address,uint256)": {
        "params": {
          "_commitmentId": "ID of the commitment",
          "_user": "User address",
          "_value": "value to repay"
        }
      },
      "setLibaAddress(address)": {
        "params": {
          "_libaAddress": "Liba address"
        }
      },
      "transferOwnership(address)": {
        "details": "Allows the current owner to transfer control of the contract to a newOwner.",
        "params": {
          "newOwner": "The address to transfer ownership to."
        }
      },
      "unpause()": {
        "details": "called by the owner to unpause, returns to normal state"
      },
      "updateSupportedToken(address,bool)": {
        "params": {
          "_supported": "If the token is supported",
          "_tokenAddress": "Token address"
        }
      },
      "withdrawFund(uint256)": {
        "params": {
          "_commitmentId": "ID of the commitment"
        }
      },
      "withdrawReward(uint256)": {
        "params": {
          "_commitmentId": "ID of the commitment"
        }
      }
    },
    "title": "PoLC"
  },
  "userdoc": {
    "methods": {
      "calculateAuctionFee(address,uint256,uint256)": {
        "notice": "Calculate the fee required to launch an auction in LiBA"
      },
      "calculateReward(uint256)": {
        "notice": "Calculate reward for a commitment"
      },
      "commitFund(address,uint256,uint256)": {
        "notice": "Lock fund into the PoLC contract for a specific duration. The longer the duration and larger locked token value, more rewards will be earned. Once, the fund is locked, it can only be drawn when the lock expired. If the duration is set to 0, the fund will be lock-free, but there will be no reward."
      },
      "drainToken(address,uint256)": {
        "notice": "Onwer drains one type of tokens when the contract is paused"
      },
      "lendCommitment(address,uint256,address,uint256)": {
        "notice": "Send a specific value to Liba for lending. Can only be called from LiBA"
      },
      "renounceOwnership()": {
        "notice": "Renouncing to ownership will leave the contract without an owner. It will not be possible to call the functions with the `onlyOwner` modifier anymore."
      },
      "repayCommitment(address,uint256,address,uint256)": {
        "notice": "Repay to the commitment when borrower returns money through LiBA"
      },
      "setLibaAddress(address)": {
        "notice": "Set libaAddress state variable"
      },
      "updateSupportedToken(address,bool)": {
        "notice": "Update a token in the supported list"
      },
      "withdrawFund(uint256)": {
        "notice": "Withdraw all available fund in a commitment if its lock has expired"
      },
      "withdrawReward(uint256)": {
        "notice": "Withdraw all available reward in a commitment if the lock has expired"
      }
    },
    "notice": "Contract allows user to lock fund and collect reward."
  }
}