{
  "contractName": "PoLCInterface",
  "abi": [
    {
      "constant": true,
      "inputs": [
        {
          "name": "",
          "type": "address"
        },
        {
          "name": "",
          "type": "uint256"
        }
      ],
      "name": "commitmentsByUser",
      "outputs": [
        {
          "name": "lockStart",
          "type": "uint256"
        },
        {
          "name": "lockEnd",
          "type": "uint256"
        },
        {
          "name": "lockedValue",
          "type": "uint256"
        },
        {
          "name": "availableValue",
          "type": "uint256"
        },
        {
          "name": "lendingValue",
          "type": "uint256"
        },
        {
          "name": "withdrawedReward",
          "type": "uint256"
        }
      ],
      "payable": false,
      "stateMutability": "view",
      "type": "function"
    }
  ],
  "bytecode": "0x608060405234801561001057600080fd5b5061014d806100206000396000f3fe608060405260043610610041576000357c0100000000000000000000000000000000000000000000000000000000900463ffffffff1680632ecf410314610046575b600080fd5b34801561005257600080fd5b5061009f6004803603604081101561006957600080fd5b81019080803573ffffffffffffffffffffffffffffffffffffffff169060200190929190803590602001909291905050506100d8565b60405180878152602001868152602001858152602001848152602001838152602001828152602001965050505050505060405180910390f35b600060205281600052604060002060205280600052604060002060009150915050806000015490806001015490806002015490806003015490806004015490806005015490508656fea165627a7a7230582069d15054a5d8fcd6d8342ab507a8d36196f8da51f46c534d471a0533341a46560029",
  "source": "pragma solidity ^0.5.0;\n\ncontract PoLCInterface {\n    struct Commitment {\n        uint lockStart;\n        uint lockEnd;\n        uint lockedValue;\n        uint availableValue;\n        uint lendingValue;\n        uint withdrawedReward;\n    }\n\n    mapping(\n        address => mapping (uint => Commitment)\n    ) public commitmentsByUser;\n}",
  "sourcePath": "/Users/zhuxuefeng/mygit/celer/cEconomy/contracts/PoLCInterface.sol",
  "compiler": {
    "name": "solc",
    "version": "0.5.0+commit.1d4f565a.Emscripten.clang"
  },
  "schemaVersion": "3.0.1",
  "updatedAt": "2019-02-07T02:14:52.243Z",
  "devdoc": {
    "methods": {}
  },
  "userdoc": {
    "methods": {}
  }
}