{
  "contractName": "TokenUtil",
  "abi": [
    {
      "constant": false,
      "inputs": [],
      "name": "unpause",
      "outputs": [],
      "payable": false,
      "stateMutability": "nonpayable",
      "type": "function"
    },
    {
      "constant": true,
      "inputs": [
        {
          "name": "account",
          "type": "address"
        }
      ],
      "name": "isPauser",
      "outputs": [
        {
          "name": "",
          "type": "bool"
        }
      ],
      "payable": false,
      "stateMutability": "view",
      "type": "function"
    },
    {
      "constant": true,
      "inputs": [],
      "name": "paused",
      "outputs": [
        {
          "name": "",
          "type": "bool"
        }
      ],
      "payable": false,
      "stateMutability": "view",
      "type": "function"
    },
    {
      "constant": true,
      "inputs": [
        {
          "name": "",
          "type": "address"
        }
      ],
      "name": "supportedTokens",
      "outputs": [
        {
          "name": "",
          "type": "bool"
        }
      ],
      "payable": false,
      "stateMutability": "view",
      "type": "function"
    },
    {
      "constant": false,
      "inputs": [],
      "name": "renouncePauser",
      "outputs": [],
      "payable": false,
      "stateMutability": "nonpayable",
      "type": "function"
    },
    {
      "constant": false,
      "inputs": [],
      "name": "renounceOwnership",
      "outputs": [],
      "payable": false,
      "stateMutability": "nonpayable",
      "type": "function"
    },
    {
      "constant": false,
      "inputs": [
        {
          "name": "account",
          "type": "address"
        }
      ],
      "name": "addPauser",
      "outputs": [],
      "payable": false,
      "stateMutability": "nonpayable",
      "type": "function"
    },
    {
      "constant": false,
      "inputs": [],
      "name": "pause",
      "outputs": [],
      "payable": false,
      "stateMutability": "nonpayable",
      "type": "function"
    },
    {
      "constant": true,
      "inputs": [],
      "name": "owner",
      "outputs": [
        {
          "name": "",
          "type": "address"
        }
      ],
      "payable": false,
      "stateMutability": "view",
      "type": "function"
    },
    {
      "constant": true,
      "inputs": [],
      "name": "isOwner",
      "outputs": [
        {
          "name": "",
          "type": "bool"
        }
      ],
      "payable": false,
      "stateMutability": "view",
      "type": "function"
    },
    {
      "constant": false,
      "inputs": [
        {
          "name": "newOwner",
          "type": "address"
        }
      ],
      "name": "transferOwnership",
      "outputs": [],
      "payable": false,
      "stateMutability": "nonpayable",
      "type": "function"
    },
    {
      "anonymous": false,
      "inputs": [
        {
          "indexed": true,
          "name": "tokenAddress",
          "type": "address"
        },
        {
          "indexed": false,
          "name": "supported",
          "type": "bool"
        }
      ],
      "name": "UpdateSupportedToken",
      "type": "event"
    },
    {
      "anonymous": false,
      "inputs": [
        {
          "indexed": false,
          "name": "tokenAddress",
          "type": "address"
        },
        {
          "indexed": false,
          "name": "amount",
          "type": "uint256"
        }
      ],
      "name": "DrainToken",
      "type": "event"
    },
    {
      "anonymous": false,
      "inputs": [
        {
          "indexed": false,
          "name": "account",
          "type": "address"
        }
      ],
      "name": "Paused",
      "type": "event"
    },
    {
      "anonymous": false,
      "inputs": [
        {
          "indexed": false,
          "name": "account",
          "type": "address"
        }
      ],
      "name": "Unpaused",
      "type": "event"
    },
    {
      "anonymous": false,
      "inputs": [
        {
          "indexed": true,
          "name": "account",
          "type": "address"
        }
      ],
      "name": "PauserAdded",
      "type": "event"
    },
    {
      "anonymous": false,
      "inputs": [
        {
          "indexed": true,
          "name": "account",
          "type": "address"
        }
      ],
      "name": "PauserRemoved",
      "type": "event"
    },
    {
      "anonymous": false,
      "inputs": [
        {
          "indexed": true,
          "name": "previousOwner",
          "type": "address"
        },
        {
          "indexed": true,
          "name": "newOwner",
          "type": "address"
        }
      ],
      "name": "OwnershipTransferred",
      "type": "event"
    },
    {
      "constant": false,
      "inputs": [
        {
          "name": "_tokenAddress",
          "type": "address"
        },
        {
          "name": "_supported",
          "type": "bool"
        }
      ],
      "name": "updateSupportedToken",
      "outputs": [],
      "payable": false,
      "stateMutability": "nonpayable",
      "type": "function"
    },
    {
      "constant": false,
      "inputs": [
        {
          "name": "_tokenAddress",
          "type": "address"
        },
        {
          "name": "_amount",
          "type": "uint256"
        }
      ],
      "name": "drainToken",
      "outputs": [],
      "payable": false,
      "stateMutability": "nonpayable",
      "type": "function"
    }
  ],
  "bytecode": "0x6080604052336000806101000a81548173ffffffffffffffffffffffffffffffffffffffff021916908373ffffffffffffffffffffffffffffffffffffffff1602179055506000809054906101000a900473ffffffffffffffffffffffffffffffffffffffff1673ffffffffffffffffffffffffffffffffffffffff16600073ffffffffffffffffffffffffffffffffffffffff167f8be0079c531659141344cd1fd0a4f28419497f9722a3daafe3b4186f6b6457e060405160405180910390a36100d8336100f8640100000000026401000000009004565b6000600260006101000a81548160ff0219169083151502179055506102b2565b61011981600161015f64010000000002610e07179091906401000000009004565b8073ffffffffffffffffffffffffffffffffffffffff167f6719d08c1888103bea251a4ed56406bd0c3e69723c8a1686e017e7bbe159b6f860405160405180910390a250565b600073ffffffffffffffffffffffffffffffffffffffff168173ffffffffffffffffffffffffffffffffffffffff161415151561019b57600080fd5b6101b4828261021e640100000000026401000000009004565b1515156101c057600080fd5b60018260000160008373ffffffffffffffffffffffffffffffffffffffff1673ffffffffffffffffffffffffffffffffffffffff16815260200190815260200160002060006101000a81548160ff0219169083151502179055505050565b60008073ffffffffffffffffffffffffffffffffffffffff168273ffffffffffffffffffffffffffffffffffffffff161415151561025b57600080fd5b8260000160008373ffffffffffffffffffffffffffffffffffffffff1673ffffffffffffffffffffffffffffffffffffffff16815260200190815260200160002060009054906101000a900460ff16905092915050565b610fd1806102c16000396000f3fe6080604052600436106100c5576000357c0100000000000000000000000000000000000000000000000000000000900463ffffffff1680633f4ba83a146100ca57806346fbf68e146100e15780635c975abb1461014a57806368c4ac26146101795780636ef8d66d146101e2578063715018a6146101f957806382dc1ec4146102105780638456cb59146102615780638da5cb5b146102785780638f32d59b146102cf5780639d4323be146102fe578063e71ef4fe14610359578063f2fde38b146103b6575b600080fd5b3480156100d657600080fd5b506100df610407565b005b3480156100ed57600080fd5b506101306004803603602081101561010457600080fd5b81019080803573ffffffffffffffffffffffffffffffffffffffff1690602001909291905050506104b6565b604051808215151515815260200191505060405180910390f35b34801561015657600080fd5b5061015f6104d3565b604051808215151515815260200191505060405180910390f35b34801561018557600080fd5b506101c86004803603602081101561019c57600080fd5b81019080803573ffffffffffffffffffffffffffffffffffffffff1690602001909291905050506104ea565b604051808215151515815260200191505060405180910390f35b3480156101ee57600080fd5b506101f761050a565b005b34801561020557600080fd5b5061020e610515565b005b34801561021c57600080fd5b5061025f6004803603602081101561023357600080fd5b81019080803573ffffffffffffffffffffffffffffffffffffffff1690602001909291905050506105e7565b005b34801561026d57600080fd5b50610276610607565b005b34801561028457600080fd5b5061028d6106b7565b604051808273ffffffffffffffffffffffffffffffffffffffff1673ffffffffffffffffffffffffffffffffffffffff16815260200191505060405180910390f35b3480156102db57600080fd5b506102e46106e0565b604051808215151515815260200191505060405180910390f35b34801561030a57600080fd5b506103576004803603604081101561032157600080fd5b81019080803573ffffffffffffffffffffffffffffffffffffffff16906020019092919080359060200190929190505050610737565b005b34801561036557600080fd5b506103b46004803603604081101561037c57600080fd5b81019080803573ffffffffffffffffffffffffffffffffffffffff1690602001909291908035151590602001909291905050506107df565b005b3480156103c257600080fd5b50610405600480360360208110156103d957600080fd5b81019080803573ffffffffffffffffffffffffffffffffffffffff169060200190929190505050610958565b005b610410336104b6565b151561041b57600080fd5b600260009054906101000a900460ff16151561043657600080fd5b6000600260006101000a81548160ff0219169083151502179055507f5db9ee0a495bf2e6ff9c91a7834c1ba4fdd244a5e8aa4e537bd38aeae4b073aa33604051808273ffffffffffffffffffffffffffffffffffffffff1673ffffffffffffffffffffffffffffffffffffffff16815260200191505060405180910390a1565b60006104cc82600161097790919063ffffffff16565b9050919050565b6000600260009054906101000a900460ff16905090565b60036020528060005260406000206000915054906101000a900460ff1681565b61051333610a0b565b565b61051d6106e0565b151561052857600080fd5b600073ffffffffffffffffffffffffffffffffffffffff166000809054906101000a900473ffffffffffffffffffffffffffffffffffffffff1673ffffffffffffffffffffffffffffffffffffffff167f8be0079c531659141344cd1fd0a4f28419497f9722a3daafe3b4186f6b6457e060405160405180910390a360008060006101000a81548173ffffffffffffffffffffffffffffffffffffffff021916908373ffffffffffffffffffffffffffffffffffffffff160217905550565b6105f0336104b6565b15156105fb57600080fd5b61060481610a65565b50565b610610336104b6565b151561061b57600080fd5b600260009054906101000a900460ff1615151561063757600080fd5b6001600260006101000a81548160ff0219169083151502179055507f62e78cea01bee320cd4e420270b5ea74000d11b0c9f74754ebdbfc544b05a25833604051808273ffffffffffffffffffffffffffffffffffffffff1673ffffffffffffffffffffffffffffffffffffffff16815260200191505060405180910390a1565b60008060009054906101000a900473ffffffffffffffffffffffffffffffffffffffff16905090565b60008060009054906101000a900473ffffffffffffffffffffffffffffffffffffffff1673ffffffffffffffffffffffffffffffffffffffff163373ffffffffffffffffffffffffffffffffffffffff1614905090565b600260009054906101000a900460ff16151561075257600080fd5b61075a6106e0565b151561076557600080fd5b610770823383610abf565b7fac6572a44b29fc3e82672a2d68efd9bd694204ee2274bc37ee5c4cebcf3fa1ef8282604051808373ffffffffffffffffffffffffffffffffffffffff1673ffffffffffffffffffffffffffffffffffffffff1681526020018281526020019250505060405180910390a15050565b6107e76106e0565b15156107f257600080fd5b6108118273ffffffffffffffffffffffffffffffffffffffff16610c4b565b15156108ab576040517f08c379a00000000000000000000000000000000000000000000000000000000081526004018080602001828103825260268152602001807f746f6b656e2061646472657373206d75737420626520636f6e7472616374206181526020017f646472657373000000000000000000000000000000000000000000000000000081525060400191505060405180910390fd5b80600360008473ffffffffffffffffffffffffffffffffffffffff1673ffffffffffffffffffffffffffffffffffffffff16815260200190815260200160002060006101000a81548160ff0219169083151502179055508173ffffffffffffffffffffffffffffffffffffffff167fd71e43dae5ba4386463c0ef49b6f19fc82aea6a936b4242ef04b99730c0ed4c382604051808215151515815260200191505060405180910390a25050565b6109606106e0565b151561096b57600080fd5b61097481610c5e565b50565b60008073ffffffffffffffffffffffffffffffffffffffff168273ffffffffffffffffffffffffffffffffffffffff16141515156109b457600080fd5b8260000160008373ffffffffffffffffffffffffffffffffffffffff1673ffffffffffffffffffffffffffffffffffffffff16815260200190815260200160002060009054906101000a900460ff16905092915050565b610a1f816001610d5890919063ffffffff16565b8073ffffffffffffffffffffffffffffffffffffffff167fcd265ebaf09df2871cc7bd4133404a235ba12eff2041bb89d9c714a2621c7c7e60405160405180910390a250565b610a79816001610e0790919063ffffffff16565b8073ffffffffffffffffffffffffffffffffffffffff167f6719d08c1888103bea251a4ed56406bd0c3e69723c8a1686e017e7bbe159b6f860405160405180910390a250565b600073ffffffffffffffffffffffffffffffffffffffff168273ffffffffffffffffffffffffffffffffffffffff1614151515610b8a576040517f08c379a00000000000000000000000000000000000000000000000000000000081526004018080602001828103825260248152602001807f7472616e7366657220746f2061646472657373206d757374206e6f742062652081526020017f7a65726f0000000000000000000000000000000000000000000000000000000081525060400191505060405180910390fd5b6000811415610b9857610c46565b600073ffffffffffffffffffffffffffffffffffffffff168373ffffffffffffffffffffffffffffffffffffffff161415610c19578173ffffffffffffffffffffffffffffffffffffffff166108fc829081150290604051600060405180830381858888f19350505050158015610c13573d6000803e3d6000fd5b50610c45565b610c4482828573ffffffffffffffffffffffffffffffffffffffff16610eb79092919063ffffffff16565b5b5b505050565b600080823b905060008111915050919050565b600073ffffffffffffffffffffffffffffffffffffffff168173ffffffffffffffffffffffffffffffffffffffff1614151515610c9a57600080fd5b8073ffffffffffffffffffffffffffffffffffffffff166000809054906101000a900473ffffffffffffffffffffffffffffffffffffffff1673ffffffffffffffffffffffffffffffffffffffff167f8be0079c531659141344cd1fd0a4f28419497f9722a3daafe3b4186f6b6457e060405160405180910390a3806000806101000a81548173ffffffffffffffffffffffffffffffffffffffff021916908373ffffffffffffffffffffffffffffffffffffffff16021790555050565b600073ffffffffffffffffffffffffffffffffffffffff168173ffffffffffffffffffffffffffffffffffffffff1614151515610d9457600080fd5b610d9e8282610977565b1515610da957600080fd5b60008260000160008373ffffffffffffffffffffffffffffffffffffffff1673ffffffffffffffffffffffffffffffffffffffff16815260200190815260200160002060006101000a81548160ff0219169083151502179055505050565b600073ffffffffffffffffffffffffffffffffffffffff168173ffffffffffffffffffffffffffffffffffffffff1614151515610e4357600080fd5b610e4d8282610977565b151515610e5957600080fd5b60018260000160008373ffffffffffffffffffffffffffffffffffffffff1673ffffffffffffffffffffffffffffffffffffffff16815260200190815260200160002060006101000a81548160ff0219169083151502179055505050565b8273ffffffffffffffffffffffffffffffffffffffff1663a9059cbb83836040518363ffffffff167c0100000000000000000000000000000000000000000000000000000000028152600401808373ffffffffffffffffffffffffffffffffffffffff1673ffffffffffffffffffffffffffffffffffffffff16815260200182815260200192505050602060405180830381600087803b158015610f5a57600080fd5b505af1158015610f6e573d6000803e3d6000fd5b505050506040513d6020811015610f8457600080fd5b81019080805190602001909291905050501515610fa057600080fd5b50505056fea165627a7a72305820f71f15178786d787261159eb1ff627d81f8058999b5625effc3633f16fb8edcd0029",
  "source": "pragma solidity ^0.5.0;\n\nimport \"openzeppelin-solidity/contracts/utils/Address.sol\";\nimport \"openzeppelin-solidity/contracts/token/ERC20/IERC20.sol\";\nimport \"openzeppelin-solidity/contracts/token/ERC20/SafeERC20.sol\";\nimport \"openzeppelin-solidity/contracts/ownership/Ownable.sol\";\nimport \"openzeppelin-solidity/contracts/lifecycle/Pausable.sol\";\n\n/**\n * @title TokenUtil\n * @notice Abstract contract handles basic token related operation.\n */\ncontract TokenUtil is Ownable, Pausable {\n    using Address for address;\n    using SafeERC20 for IERC20;\n\n    mapping(address => bool) public supportedTokens;\n\n    event UpdateSupportedToken(address indexed tokenAddress, bool supported);\n    event DrainToken(address tokenAddress, uint amount);\n\n   /**\n     * @notice Validate if the token address and amount is valid\n     * @param _tokenAddress the token address\n     * @param _value the amount to be transferred\n     */\n    modifier validateToken(address _tokenAddress, uint _value) {\n        require(supportedTokens[_tokenAddress], \"token address must be supported\");\n\n        if (_tokenAddress == address(0)) {\n            require(_value == msg.value, \"value must be equal msg value\");\n        } else {\n            require(msg.value == 0, \"msg value must be zero\");\n        }\n\n        _;\n    }\n\n    /**\n     * @notice Update a token in the supported list\n     * @param _tokenAddress Token address\n     * @param _supported If the token is supported\n     */\n    function updateSupportedToken(address _tokenAddress, bool _supported) public onlyOwner {\n        require(_tokenAddress.isContract(), \"token address must be contract address\");\n        supportedTokens[_tokenAddress] = _supported;\n        emit UpdateSupportedToken(_tokenAddress, _supported);\n    }\n\n    /**\n     * @notice Internal uniform function to transfer contract's funds out\n     * @param _tokenAddress Token address\n     * @param _to Address to transfer to\n     * @param _amount Amount to be transferred\n     */\n    function _transfer(address _tokenAddress, address payable _to, uint _amount) internal {\n        require(_to != address(0), \"transfer to address must not be zero\");\n        if (_amount == 0) { return; }\n\n        if (_tokenAddress == address(0)) {\n            _to.transfer(_amount);\n        } else {\n            IERC20(_tokenAddress).safeTransfer(_to, _amount);\n        }\n    }\n\n    /**\n     * @notice Onwer drains one type of tokens when the contract is paused\n     * @dev This is for emergency situations.\n     * @param _tokenAddress address of token to drain\n     * @param _amount drained token amount\n     */\n    function drainToken(\n        address _tokenAddress,\n        uint _amount\n    )\n        external\n        whenPaused\n        onlyOwner\n    {\n        _transfer(_tokenAddress, msg.sender, _amount);\n        emit DrainToken(_tokenAddress, _amount);\n    }\n}\n",
  "sourcePath": "/Users/zhuxuefeng/mygit/celer/cEconomy/contracts/lib/TokenUtil.sol",
  "compiler": {
    "name": "solc",
    "version": "0.5.0+commit.1d4f565a.Emscripten.clang"
  },
  "schemaVersion": "3.0.6",
  "updatedAt": "2019-08-02T19:07:07.827Z",
  "devdoc": {
    "methods": {
      "drainToken(address,uint256)": {
        "details": "This is for emergency situations.",
        "params": {
          "_amount": "drained token amount",
          "_tokenAddress": "address of token to drain"
        }
      },
      "isOwner()": {
        "return": "true if `msg.sender` is the owner of the contract."
      },
      "owner()": {
        "return": "the address of the owner."
      },
      "pause()": {
        "details": "called by the owner to pause, triggers stopped state"
      },
      "paused()": {
        "return": "true if the contract is paused, false otherwise."
      },
      "renounceOwnership()": {
        "details": "Allows the current owner to relinquish control of the contract."
      },
      "transferOwnership(address)": {
        "details": "Allows the current owner to transfer control of the contract to a newOwner.",
        "params": {
          "newOwner": "The address to transfer ownership to."
        }
      },
      "unpause()": {
        "details": "called by the owner to unpause, returns to normal state"
      },
      "updateSupportedToken(address,bool)": {
        "params": {
          "_supported": "If the token is supported",
          "_tokenAddress": "Token address"
        }
      }
    },
    "title": "TokenUtil"
  },
  "userdoc": {
    "methods": {
      "drainToken(address,uint256)": {
        "notice": "Onwer drains one type of tokens when the contract is paused"
      },
      "renounceOwnership()": {
        "notice": "Renouncing to ownership will leave the contract without an owner. It will not be possible to call the functions with the `onlyOwner` modifier anymore."
      },
      "updateSupportedToken(address,bool)": {
        "notice": "Update a token in the supported list"
      }
    },
    "notice": "Abstract contract handles basic token related operation."
  }
}