{
  "contractName": "LiBA",
  "abi": [
    {
      "inputs": [
        {
          "name": "_celerTokenAddress",
          "type": "address"
        },
        {
          "name": "_auctionDeposit",
          "type": "uint256"
        }
      ],
      "payable": false,
      "stateMutability": "nonpayable",
      "type": "constructor"
    },
    {
      "anonymous": false,
      "inputs": [
        {
          "indexed": false,
          "name": "auctionId",
          "type": "uint256"
        },
        {
          "indexed": false,
          "name": "asker",
          "type": "address"
        }
      ],
      "name": "NewAuction",
      "type": "event"
    },
    {
      "anonymous": false,
      "inputs": [
        {
          "indexed": false,
          "name": "auctionId",
          "type": "uint256"
        },
        {
          "indexed": false,
          "name": "bidder",
          "type": "address"
        }
      ],
      "name": "NewBid",
      "type": "event"
    },
    {
      "anonymous": false,
      "inputs": [
        {
          "indexed": false,
          "name": "auctionId",
          "type": "uint256"
        },
        {
          "indexed": false,
          "name": "bidder",
          "type": "address"
        }
      ],
      "name": "UpdateBid",
      "type": "event"
    },
    {
      "anonymous": false,
      "inputs": [
        {
          "indexed": false,
          "name": "auctionId",
          "type": "uint256"
        },
        {
          "indexed": false,
          "name": "bidder",
          "type": "address"
        }
      ],
      "name": "RevealBid",
      "type": "event"
    },
    {
      "anonymous": false,
      "inputs": [
        {
          "indexed": false,
          "name": "auctionId",
          "type": "uint256"
        }
      ],
      "name": "ClaimWinners",
      "type": "event"
    },
    {
      "anonymous": false,
      "inputs": [
        {
          "indexed": false,
          "name": "auctionId",
          "type": "uint256"
        }
      ],
      "name": "ChallengeWinners",
      "type": "event"
    },
    {
      "constant": false,
      "inputs": [
        {
          "name": "_bidDuration",
          "type": "uint256"
        },
        {
          "name": "_revealDuration",
          "type": "uint256"
        },
        {
          "name": "_claimDuration",
          "type": "uint256"
        },
        {
          "name": "_challengeDuration",
          "type": "uint256"
        },
        {
          "name": "_finalizeDuration",
          "type": "uint256"
        },
        {
          "name": "_value",
          "type": "uint256"
        },
        {
          "name": "_duration",
          "type": "uint256"
        },
        {
          "name": "_maxRate",
          "type": "uint256"
        },
        {
          "name": "_minValue",
          "type": "uint256"
        }
      ],
      "name": "initAuction",
      "outputs": [],
      "payable": false,
      "stateMutability": "nonpayable",
      "type": "function"
    },
    {
      "constant": false,
      "inputs": [
        {
          "name": "_auctionId",
          "type": "uint256"
        },
        {
          "name": "_hash",
          "type": "bytes32"
        },
        {
          "name": "_celerValue",
          "type": "uint256"
        }
      ],
      "name": "placeBid",
      "outputs": [],
      "payable": false,
      "stateMutability": "nonpayable",
      "type": "function"
    },
    {
      "constant": false,
      "inputs": [
        {
          "name": "_auctionId",
          "type": "uint256"
        },
        {
          "name": "_rate",
          "type": "uint256"
        },
        {
          "name": "_value",
          "type": "uint256"
        },
        {
          "name": "_celerValue",
          "type": "uint256"
        },
        {
          "name": "_salt",
          "type": "uint256"
        },
        {
          "name": "_commitmentsIds",
          "type": "uint256[]"
        }
      ],
      "name": "revealBid",
      "outputs": [],
      "payable": false,
      "stateMutability": "nonpayable",
      "type": "function"
    },
    {
      "constant": false,
      "inputs": [
        {
          "name": "_auctionId",
          "type": "uint256"
        },
        {
          "name": "_winners",
          "type": "address[]"
        }
      ],
      "name": "claimWinners",
      "outputs": [],
      "payable": false,
      "stateMutability": "nonpayable",
      "type": "function"
    },
    {
      "constant": false,
      "inputs": [
        {
          "name": "_auctionId",
          "type": "uint256"
        },
        {
          "name": "_winners",
          "type": "address[]"
        }
      ],
      "name": "challengeWinners",
      "outputs": [],
      "payable": false,
      "stateMutability": "nonpayable",
      "type": "function"
    },
    {
      "constant": false,
      "inputs": [
        {
          "name": "_auctionId",
          "type": "uint256"
        }
      ],
      "name": "withdrawChallengeReward",
      "outputs": [],
      "payable": false,
      "stateMutability": "nonpayable",
      "type": "function"
    },
    {
      "constant": false,
      "inputs": [
        {
          "name": "_auctionId",
          "type": "uint256"
        }
      ],
      "name": "finalizeAuction",
      "outputs": [],
      "payable": false,
      "stateMutability": "nonpayable",
      "type": "function"
    },
    {
      "constant": false,
      "inputs": [
        {
          "name": "_auctionId",
          "type": "uint256"
        }
      ],
      "name": "finalizeBid",
      "outputs": [],
      "payable": false,
      "stateMutability": "nonpayable",
      "type": "function"
    }
  ],
  "bytecode": "0x608060405234801561001057600080fd5b506040516040806117a58339810180604052604081101561003057600080fd5b810190808051906020019092919080519060200190929190505050816000806101000a81548173ffffffffffffffffffffffffffffffffffffffff021916908373ffffffffffffffffffffffffffffffffffffffff160217905550806001819055505050611702806100a36000396000f3fe60806040526004361061008e576000357c0100000000000000000000000000000000000000000000000000000000900463ffffffff1680631917806314610093578063423bf7c814610162578063b070c38f146101b1578063c4d6264c146102a8578063cb6cbe8f14610334578063e03952981461036f578063e80838631461043e578063f70efe8314610479575b600080fd5b34801561009f57600080fd5b50610160600480360360408110156100b657600080fd5b8101908080359060200190929190803590602001906401000000008111156100dd57600080fd5b8201836020820111156100ef57600080fd5b8035906020019184602083028401116401000000008311171561011157600080fd5b919080806020026020016040519081016040528093929190818152602001838360200280828437600081840152601f19601f8201169050808301925050505050505091929192905050506104b4565b005b34801561016e57600080fd5b506101af6004803603606081101561018557600080fd5b810190808035906020019092919080359060200190929190803590602001909291905050506105a3565b005b3480156101bd57600080fd5b506102a6600480360360c08110156101d457600080fd5b8101908080359060200190929190803590602001909291908035906020019092919080359060200190929190803590602001909291908035906020019064010000000081111561022357600080fd5b82018360208201111561023557600080fd5b8035906020019184602083028401116401000000008311171561025757600080fd5b919080806020026020016040519081016040528093929190818152602001838360200280828437600081840152601f19601f8201169050808301925050505050505091929192905050506107dc565b005b3480156102b457600080fd5b5061033260048036036101208110156102cc57600080fd5b81019080803590602001909291908035906020019092919080359060200190929190803590602001909291908035906020019092919080359060200190929190803590602001909291908035906020019092919080359060200190929190505050610a56565b005b34801561034057600080fd5b5061036d6004803603602081101561035757600080fd5b8101908080359060200190929190505050610c7d565b005b34801561037b57600080fd5b5061043c6004803603604081101561039257600080fd5b8101908080359060200190929190803590602001906401000000008111156103b957600080fd5b8201836020820111156103cb57600080fd5b803590602001918460208302840111640100000000831117156103ed57600080fd5b919080806020026020016040519081016040528093929190818152602001838360200280828437600081840152601f19601f820116905080830192505050505050509192919290505050610dbb565b005b34801561044a57600080fd5b506104776004803603602081101561046157600080fd5b8101908080359060200190929190505050610eea565b005b34801561048557600080fd5b506104b26004803603602081101561049c57600080fd5b8101908080359060200190929190505050611033565b005b600060036000848152602001908152602001600020905080600e0154431115156104dd57600080fd5b80600f015443111515156104f057600080fd5b8060000160009054906101000a900473ffffffffffffffffffffffffffffffffffffffff1673ffffffffffffffffffffffffffffffffffffffff163373ffffffffffffffffffffffffffffffffffffffff1614151561054e57600080fd5b81816009019080519060200190610566929190611597565b507fa89a98d3c7bb3d4f3ba3e59d846d8fd663546cb73784a5c71db385e627571e1f836040518082815260200191505060405180910390a1505050565b600060036000858152602001908152602001600020905080600d015443111515156105cd57600080fd5b6000600460003373ffffffffffffffffffffffffffffffffffffffff1673ffffffffffffffffffffffffffffffffffffffff1681526020019081526020016000206000868152602001908152602001600020905060006001028160000154141561070957816008013390806001815401808255809150509060018203906000526020600020016000909192909190916101000a81548173ffffffffffffffffffffffffffffffffffffffff021916908373ffffffffffffffffffffffffffffffffffffffff160217905550507f45401769c1d58f70bd6b63e1a66bfc17d712ce0dc4ffb8d2dd0ad7177d56a3868533604051808381526020018273ffffffffffffffffffffffffffffffffffffffff1673ffffffffffffffffffffffffffffffffffffffff1681526020019250505060405180910390a1610775565b7f31780e3ce440b5efdf2d87f18af70c1ebc1f4aee829175d3b772c9e4f65b09898533604051808381526020018273ffffffffffffffffffffffffffffffffffffffff1673ffffffffffffffffffffffffffffffffffffffff1681526020019250505060405180910390a15b8381600001819055508281600501819055506107d53330856000809054906101000a900473ffffffffffffffffffffffffffffffffffffffff1673ffffffffffffffffffffffffffffffffffffffff16611152909392919063ffffffff16565b5050505050565b600060036000888152602001908152602001600020905080600d01544311151561080557600080fd5b80600e0154431115151561081857600080fd5b8060030154861115151561082b57600080fd5b8060040154851015151561083e57600080fd5b6000600460003373ffffffffffffffffffffffffffffffffffffffff1673ffffffffffffffffffffffffffffffffffffffff16815260200190815260200160002060008981526020019081526020016000209050600087878787604051602001808581526020018481526020018381526020018281526020019450505050506040516020818303038152906040528051906020012090508160000154811415156108e757600080fd5b600061090087846005015461127590919063ffffffff16565b90508683600501819055506000811115610963576109623033836000809054906101000a900473ffffffffffffffffffffffffffffffffffffffff1673ffffffffffffffffffffffffffffffffffffffff16611152909392919063ffffffff16565b5b8483600101908051906020019061097b929190611621565b508883600301819055508783600401819055506000600102836000018190555083600501548911156109b1578884600501819055505b60006109c6898961129790919063ffffffff16565b905084600601548111156109de578085600601819055505b7fe2ea6de1801ba7490a1beaacfe87f2d1fdd7b2aedef9e7c4ab6b3d5b9d52c4f78b33604051808381526020018273ffffffffffffffffffffffffffffffffffffffff1673ffffffffffffffffffffffffffffffffffffffff1681526020019250505060405180910390a15050505050505050505050565b60006003600060025481526020019081526020016000209050338160000160006101000a81548173ffffffffffffffffffffffffffffffffffffffff021916908373ffffffffffffffffffffffffffffffffffffffff1602179055508681600b01819055508581600c0181905550848160010181905550838160020181905550828160030181905550818160040181905550610afb8a436112c190919063ffffffff16565b81600d0181905550610b1a8982600d01546112c190919063ffffffff16565b81600e0181905550610b398882600e01546112c190919063ffffffff16565b81600f0181905550610b588782600f01546112c190919063ffffffff16565b8160100181905550610b778682601001546112c190919063ffffffff16565b8160110181905550610bcf33306001546000809054906101000a900473ffffffffffffffffffffffffffffffffffffffff1673ffffffffffffffffffffffffffffffffffffffff16611152909392919063ffffffff16565b7f70cc9a54dba93435423ae6e31b4603f6b94f0db76f9d0aeecb990abb118794186002548260000160009054906101000a900473ffffffffffffffffffffffffffffffffffffffff16604051808381526020018273ffffffffffffffffffffffffffffffffffffffff1673ffffffffffffffffffffffffffffffffffffffff1681526020019250505060405180910390a1600160026000828254019250508190555050505050505050505050565b600080905060006003600084815260200190815260200160002090508060070160009054906101000a900460ff1615610cc257610cba83336112e2565b159150610ccc565b8060110154431191505b811515610cd857600080fd5b6000600460003373ffffffffffffffffffffffffffffffffffffffff1673ffffffffffffffffffffffffffffffffffffffff1681526020019081526020016000206000858152602001908152602001600020905060008160050154111515610d3f57600080fd5b600081600501549050600082600501819055506000826003018190555060008260040181905550610db43033836000809054906101000a900473ffffffffffffffffffffffffffffffffffffffff1673ffffffffffffffffffffffffffffffffffffffff16611152909392919063ffffffff16565b5050505050565b600060036000848152602001908152602001600020905080600f015443111515610de457600080fd5b80601001544311151515610df757600080fd5b610e0183336113a7565b1515610e0c57600080fd5b81816009019080519060200190610e24929190611597565b503381600a0160006101000a81548173ffffffffffffffffffffffffffffffffffffffff021916908373ffffffffffffffffffffffffffffffffffffffff160217905550610e8381600b015482601001546112c190919063ffffffff16565b8160100181905550610ea681600c015482601001546112c190919063ffffffff16565b81601101819055507f3406e4df01fbc88e019d5926000faf63c951fe8da1dc7dd58089939350735bb7836040518082815260200191505060405180910390a1505050565b6000600360008381526020019081526020016000209050806010015443111515610f1357600080fd5b80601101544311151515610f2657600080fd5b8060070160009054906101000a900460ff16151515610f4457600080fd5b60018160070160006101000a81548160ff021916908315150217905550600073ffffffffffffffffffffffffffffffffffffffff1681600a0160009054906101000a900473ffffffffffffffffffffffffffffffffffffffff1673ffffffffffffffffffffffffffffffffffffffff16141561102f5761102e308260000160009054906101000a900473ffffffffffffffffffffffffffffffffffffffff166001546000809054906101000a900473ffffffffffffffffffffffffffffffffffffffff1673ffffffffffffffffffffffffffffffffffffffff16611152909392919063ffffffff16565b5b5050565b600060036000838152602001908152602001600020905080601001544311151561105c57600080fd5b80600a0160009054906101000a900473ffffffffffffffffffffffffffffffffffffffff1673ffffffffffffffffffffffffffffffffffffffff163373ffffffffffffffffffffffffffffffffffffffff161415156110ba57600080fd5b600081600a0160006101000a81548173ffffffffffffffffffffffffffffffffffffffff021916908373ffffffffffffffffffffffffffffffffffffffff16021790555061114e30336001546000809054906101000a900473ffffffffffffffffffffffffffffffffffffffff1673ffffffffffffffffffffffffffffffffffffffff16611152909392919063ffffffff16565b5050565b8373ffffffffffffffffffffffffffffffffffffffff166323b872dd8484846040518463ffffffff167c0100000000000000000000000000000000000000000000000000000000028152600401808473ffffffffffffffffffffffffffffffffffffffff1673ffffffffffffffffffffffffffffffffffffffff1681526020018373ffffffffffffffffffffffffffffffffffffffff1673ffffffffffffffffffffffffffffffffffffffff1681526020018281526020019350505050602060405180830381600087803b15801561122957600080fd5b505af115801561123d573d6000803e3d6000fd5b505050506040513d602081101561125357600080fd5b8101908080519060200190929190505050151561126f57600080fd5b50505050565b600082821115151561128657600080fd5b600082840390508091505092915050565b600080821115156112a757600080fd5b600082848115156112b457fe5b0490508091505092915050565b60008082840190508381101515156112d857600080fd5b8091505092915050565b600080600360008581526020019081526020016000209050600081600901905060008090505b8180549050811015611399578473ffffffffffffffffffffffffffffffffffffffff16828281548110151561133957fe5b9060005260206000200160009054906101000a900473ffffffffffffffffffffffffffffffffffffffff1673ffffffffffffffffffffffffffffffffffffffff16141561138c57600193505050506113a1565b8080600101915050611308565b506000925050505b92915050565b6000806000905060008090506000600360008781526020019081526020016000209050600081600901905060006113de88886114b8565b905060008090505b828054905081101561149f576000838281548110151561140257fe5b9060005260206000200160009054906101000a900473ffffffffffffffffffffffffffffffffffffffff1690508873ffffffffffffffffffffffffffffffffffffffff168173ffffffffffffffffffffffffffffffffffffffff16141561146d57600196505061149f565b8515156114915760006114808b836114b8565b90508084111561148f57600196505b505b5080806001019150506113e6565b50841580156114ab5750835b9550505050505092915050565b6000806003600085815260200190815260200160002090506000600460008573ffffffffffffffffffffffffffffffffffffffff1673ffffffffffffffffffffffffffffffffffffffff16815260200190815260200160002060008681526020019081526020016000209050600061155783600601546115498460040154856005015461129790919063ffffffff16565b61129790919063ffffffff16565b905060006115768460050154846003015461129790919063ffffffff16565b905061158b818361127590919063ffffffff16565b94505050505092915050565b828054828255906000526020600020908101928215611610579160200282015b8281111561160f5782518260006101000a81548173ffffffffffffffffffffffffffffffffffffffff021916908373ffffffffffffffffffffffffffffffffffffffff160217905550916020019190600101906115b7565b5b50905061161d919061166e565b5090565b82805482825590600052602060002090810192821561165d579160200282015b8281111561165c578251825591602001919060010190611641565b5b50905061166a91906116b1565b5090565b6116ae91905b808211156116aa57600081816101000a81549073ffffffffffffffffffffffffffffffffffffffff021916905550600101611674565b5090565b90565b6116d391905b808211156116cf5760008160009055506001016116b7565b5090565b9056fea165627a7a7230582022db7588ccfccd27bb54400f00596fa0940904f8d2a7d8f8ad77261b08439f4f0029",
  "source": "pragma solidity ^0.5.0;\n\nimport \"openzeppelin-solidity/contracts/math/SafeMath.sol\";\nimport \"openzeppelin-solidity/contracts/token/ERC20/ERC20.sol\";\nimport \"openzeppelin-solidity/contracts/token/ERC20/SafeERC20.sol\";\n\ncontract LiBA {\n    using SafeERC20 for ERC20;\n    using SafeMath for uint256;\n\n    struct Bid {\n        bytes32 hash;\n        uint[] commitmentsIds;\n        uint[] lendingValues;\n        uint rate;\n        uint value;\n        uint celerValue;\n    }\n\n    struct Auction {\n        address asker;\n        uint value;\n        uint duration;\n        uint maxRate;\n        uint minValue;\n        uint maxBidRate;\n        uint maxBidFactor;\n        bool finalized;\n        address[] bidders;\n        address[] winners;\n        address challenger;\n        uint challengeDuration;\n        uint finalizeDuration;\n        uint bidEnd;\n        uint revealEnd;\n        uint claimEnd;\n        uint challengeEnd;\n        uint finalizeEnd;\n    }\n\n    address private celerTokenAddress;\n    uint private auctionDeposit;\n    uint private auctionLength;\n    mapping(uint => Auction) private auctions;\n    mapping(address => mapping(uint => Bid)) private bidsByUser;\n\n    event NewAuction(uint auctionId, address asker);\n    event NewBid(uint auctionId, address bidder);\n    event UpdateBid(uint auctionId, address bidder);\n    event RevealBid(uint auctionId, address bidder);\n    event ClaimWinners(uint auctionId);\n    event ChallengeWinners(uint auctionId);\n\n    constructor(address _celerTokenAddress, uint _auctionDeposit) public {\n        celerTokenAddress = _celerTokenAddress;\n        auctionDeposit = _auctionDeposit;\n    }\n\n    /**\n     * @dev Launch a new auction\n     * @param _bidDuration duration for bidding\n     * @param _revealDuration duration for revealing\n     * @param _claimDuration duration for claiming\n     * @param _challengeDuration duration for challenging\n     * @param _value total value asked\n     * @param _duration duration for the lending\n     * @param _maxRate maximum rate accepted\n     * @param _minValue minimum value accepted per bid\n     */\n    function initAuction(\n        uint _bidDuration,\n        uint _revealDuration,\n        uint _claimDuration,\n        uint _challengeDuration,\n        uint _finalizeDuration,\n        uint _value,\n        uint _duration,\n        uint _maxRate,\n        uint _minValue\n    )\n        public\n    {\n        Auction storage auction = auctions[auctionLength];\n        auction.asker = msg.sender;\n        auction.challengeDuration = _challengeDuration;\n        auction.finalizeDuration = _finalizeDuration;\n        auction.value = _value;\n        auction.duration = _duration;\n        auction.maxRate = _maxRate;\n        auction.minValue = _minValue;\n        auction.bidEnd = block.number.add(_bidDuration);\n        auction.revealEnd = auction.bidEnd.add(_revealDuration);\n        auction.claimEnd = auction.revealEnd.add(_claimDuration);\n        auction.challengeEnd = auction.claimEnd.add(_challengeDuration);\n        auction.finalizeEnd = auction.challengeEnd.add(_finalizeDuration);\n\n        ERC20(celerTokenAddress).safeTransferFrom(msg.sender, address(this), auctionDeposit);\n        emit NewAuction(auctionLength, auction.asker);\n        auctionLength += 1;\n    }\n\n    /**\n     * @dev Bid for an auction\n     * @param _auctionId Id of the auction\n     * @param _hash hash based on desired rate, value, celerValue and salt\n     * @param _celerValue potential celer value for bidding, it can be larger than actual celer value\n     */\n    function placeBid(\n        uint _auctionId,\n        bytes32 _hash,\n        uint _celerValue\n    )\n        public\n    {\n        Auction storage auction = auctions[_auctionId];\n        require(block.number <= auction.bidEnd);\n\n        Bid storage bid = bidsByUser[msg.sender][_auctionId];\n\n        if (bid.hash == 0) {\n            auction.bidders.push(msg.sender);\n            emit NewBid(_auctionId, msg.sender);\n        } else {\n            emit UpdateBid(_auctionId, msg.sender);\n        }\n\n        bid.hash = _hash;\n        bid.celerValue = _celerValue;\n        ERC20(celerTokenAddress).safeTransferFrom(msg.sender, address(this), _celerValue);\n    }\n\n    // TODO: verify _commitmentsIds having enough fund\n    /**\n     * @dev Reveal the bid of current user for an auction\n     * @param _auctionId Id of the auction\n     * @param _rate interest rate for bidding\n     * @param _value value for bidding\n     * @param _celerValue celer value for bidding\n     * @param _salt a random value used for hash\n     * @param _commitmentsIds a list of commitments Id for bidding\n     */\n    function revealBid(\n        uint _auctionId,\n        uint _rate,\n        uint _value,\n        uint _celerValue,\n        uint _salt,\n        uint[] memory _commitmentsIds\n    )\n        public\n    {\n        Auction storage auction = auctions[_auctionId];\n        require(block.number > auction.bidEnd);\n        require(block.number <= auction.revealEnd);\n        require(_rate <= auction.maxRate);\n        require(_value >= auction.minValue);\n\n        Bid storage bid = bidsByUser[msg.sender][_auctionId];\n        bytes32 hash = keccak256(abi.encodePacked(_rate, _value, _celerValue, _salt));\n        require(hash == bid.hash);\n\n        uint celerRefund = bid.celerValue.sub(_celerValue);\n        bid.celerValue = _celerValue;\n        if (celerRefund > 0) {\n            ERC20(celerTokenAddress).safeTransferFrom(address(this), msg.sender, celerRefund);\n        }\n\n        bid.commitmentsIds = _commitmentsIds;\n        bid.rate = _rate;\n        bid.value = _value;\n        bid.hash = bytes32(0);\n\n        if (_rate > auction.maxBidRate) {\n            auction.maxBidRate = _rate;\n        }\n\n        uint factor = _celerValue.div(_value);\n        if (factor > auction.maxBidFactor) {\n            auction.maxBidFactor = factor;\n        }\n\n        emit RevealBid(_auctionId, msg.sender);\n    }\n\n    /**\n     * @dev The auction asker claims winners for the auction\n     * @param _auctionId Id of the auction\n     * @param _winners a list of winner addresses\n     */\n    function claimWinners(\n        uint _auctionId,\n        address[] memory _winners\n    )\n        public\n    {\n        Auction storage auction = auctions[_auctionId];\n        require(block.number > auction.revealEnd);\n        require(block.number <= auction.claimEnd);\n        require(msg.sender == auction.asker);\n\n        auction.winners = _winners;\n        emit ClaimWinners(_auctionId);\n    }\n\n    /**\n     * @dev A potential winner, who is not claimed as one of winners, is able to challenge the auction\n     * @param _auctionId Id of the auction\n     * @param _winners a list of winner addresses\n     */\n    function challengeWinners(\n        uint _auctionId,\n        address[] memory _winners\n    )\n        public\n    {\n        Auction storage auction = auctions[_auctionId];\n        require(block.number > auction.claimEnd);\n        require(block.number <= auction.challengeEnd);\n        require(_validateChallenger(_auctionId, msg.sender));\n\n        auction.winners = _winners;\n        auction.challenger = msg.sender;\n        auction.challengeEnd = auction.challengeEnd.add(auction.challengeDuration);\n        auction.finalizeEnd = auction.challengeEnd.add(auction.finalizeDuration);\n\n        emit ChallengeWinners(_auctionId);\n    }\n\n    /**\n     * @dev withdraw challenge reward for challenger\n     * @param _auctionId Id of the auction\n     */\n    function withdrawChallengeReward(uint _auctionId) public {\n        Auction storage auction = auctions[_auctionId];\n        require(block.number > auction.challengeEnd);\n        require(msg.sender == auction.challenger);\n\n        auction.challenger = address(0x0);\n        ERC20(celerTokenAddress).safeTransferFrom(address(this), msg.sender, auctionDeposit);\n    }\n\n    // TODO: need to lock the fund in PoLC and issue new token\n    /**\n     * @dev finalize the auction\n     * @param _auctionId Id of the auction\n     */\n    function finalizeAuction(uint _auctionId) public {\n        Auction storage auction = auctions[_auctionId];\n        require(block.number > auction.challengeEnd);\n        require(block.number <= auction.finalizeEnd);\n        require(!auction.finalized);\n\n        auction.finalized = true;\n        // If there is no challenger, refund the deposit to asker\n        if (auction.challenger == address(0x0)) {\n            ERC20(celerTokenAddress).safeTransferFrom(address(this), auction.asker, auctionDeposit);\n        }\n    }\n\n    /**\n     * @dev finalize the bid for the acution for bidders, who are not winning the auction,\n     * or asker fails to finalize the auction before finalizeEnd\n     * @param _auctionId Id of the auction\n     */\n    function finalizeBid(uint _auctionId) public {\n        bool allowWithdraw = false;\n        Auction storage auction = auctions[_auctionId];\n\n        if (auction.finalized) {\n            allowWithdraw = !_checkWinner(_auctionId, msg.sender);\n        } else {\n            allowWithdraw = block.number > auction.finalizeEnd;\n        }\n        require(allowWithdraw);\n\n        Bid storage bid = bidsByUser[msg.sender][_auctionId];\n        require(bid.celerValue > 0);\n\n        uint celerValue = bid.celerValue;\n        bid.celerValue = 0;\n        bid.rate = 0;\n        bid.value = 0;\n        ERC20(celerTokenAddress).safeTransferFrom(address(this), msg.sender, celerValue);\n    }\n\n    /**\n     * @dev validate if challenger is valid one\n     * @param _auctionId Id of the auction\n     * @param _challenger address for challenger, who may have higher score than current winners\n     */\n    function _validateChallenger(\n        uint _auctionId,\n        address _challenger\n    )\n        view\n        private\n        returns(bool)\n    {\n        bool exist = false;\n        bool higherScore = false;\n        Auction storage auction = auctions[_auctionId];\n        address[] storage winners = auction.winners;\n        uint challengerScore = _calculateScore(_auctionId, _challenger);\n\n        for (uint i = 0; i < winners.length; i++) {\n            address winner = winners[i];\n            if (winner == _challenger) {\n                exist = true;\n                break;\n            }\n\n            if (!higherScore) {\n                uint winnerScore = _calculateScore(_auctionId, winner);\n\n                if (challengerScore > winnerScore) {\n                    higherScore = true;\n                }\n            }\n        }\n\n        return !exist && higherScore;\n    }\n\n    /**\n     * @dev calcuate ranking score\n     * @param _auctionId Id of the auction\n     * @param _bidder a bidder address\n     */\n    function _calculateScore(\n        uint _auctionId,\n        address _bidder\n    )\n        view\n        private\n        returns(uint)\n    {\n        Auction storage auction = auctions[_auctionId];\n        Bid storage bid = bidsByUser[_bidder][_auctionId];\n        uint valueFactor = bid.celerValue.div(bid.value).div(auction.maxBidFactor);\n\n        uint rateFactor = bid.rate.div(auction.maxBidRate);\n\n        return valueFactor.sub(rateFactor);\n    }\n\n    /**\n     * @dev check if the bidder is winner\n     * @param _auctionId Id of the auction\n     * @param _bidder a bidder address\n     */\n    function _checkWinner(\n        uint _auctionId,\n        address _bidder\n    )\n        view\n        private\n        returns(bool)\n    {\n        Auction storage auction = auctions[_auctionId];\n        address[] storage winners = auction.winners;\n\n        for (uint i = 0; i < winners.length; i++) {\n            if (winners[i] == _bidder) {\n                return true;\n            }\n        }\n\n        return false;\n    }\n}\n",
  "sourcePath": "/Users/Frank/mygit/celer/cEconomy/contracts/LiBA.sol",
  "compiler": {
    "name": "solc",
    "version": "0.5.0+commit.1d4f565a.Emscripten.clang"
  },
  "schemaVersion": "3.0.1",
  "updatedAt": "2019-01-14T23:47:30.026Z",
  "devdoc": {
    "methods": {
      "challengeWinners(uint256,address[])": {
        "details": "A potential winner, who is not claimed as one of winners, is able to challenge the auction",
        "params": {
          "_auctionId": "Id of the auction",
          "_winners": "a list of winner addresses"
        }
      },
      "claimWinners(uint256,address[])": {
        "details": "The auction asker claims winners for the auction",
        "params": {
          "_auctionId": "Id of the auction",
          "_winners": "a list of winner addresses"
        }
      },
      "finalizeAuction(uint256)": {
        "details": "finalize the auction",
        "params": {
          "_auctionId": "Id of the auction"
        }
      },
      "finalizeBid(uint256)": {
        "details": "finalize the bid for the acution for bidders, who are not winning the auction, or asker fails to finalize the auction before finalizeEnd",
        "params": {
          "_auctionId": "Id of the auction"
        }
      },
      "initAuction(uint256,uint256,uint256,uint256,uint256,uint256,uint256,uint256,uint256)": {
        "details": "Launch a new auction",
        "params": {
          "_bidDuration": "duration for bidding",
          "_challengeDuration": "duration for challenging",
          "_claimDuration": "duration for claiming",
          "_duration": "duration for the lending",
          "_maxRate": "maximum rate accepted",
          "_minValue": "minimum value accepted per bid",
          "_revealDuration": "duration for revealing",
          "_value": "total value asked"
        }
      },
      "placeBid(uint256,bytes32,uint256)": {
        "details": "Bid for an auction",
        "params": {
          "_auctionId": "Id of the auction",
          "_celerValue": "potential celer value for bidding, it can be larger than actual celer value",
          "_hash": "hash based on desired rate, value, celerValue and salt"
        }
      },
      "revealBid(uint256,uint256,uint256,uint256,uint256,uint256[])": {
        "details": "Reveal the bid of current user for an auction",
        "params": {
          "_auctionId": "Id of the auction",
          "_celerValue": "celer value for bidding",
          "_commitmentsIds": "a list of commitments Id for bidding",
          "_rate": "interest rate for bidding",
          "_salt": "a random value used for hash",
          "_value": "value for bidding"
        }
      },
      "withdrawChallengeReward(uint256)": {
        "details": "withdraw challenge reward for challenger",
        "params": {
          "_auctionId": "Id of the auction"
        }
      }
    }
  },
  "userdoc": {
    "methods": {}
  }
}