{
  "contractName": "PoLC",
  "abi": [
    {
      "constant": true,
      "inputs": [
        {
          "name": "",
          "type": "address"
        },
        {
          "name": "",
          "type": "uint256"
        }
      ],
      "name": "commitmentsByUser",
      "outputs": [
        {
          "name": "lockStart",
          "type": "uint256"
        },
        {
          "name": "lockEnd",
          "type": "uint256"
        },
        {
          "name": "lockedValue",
          "type": "uint256"
        },
        {
          "name": "availableValue",
          "type": "uint256"
        },
        {
          "name": "lendingValue",
          "type": "uint256"
        },
        {
          "name": "withdrawedReward",
          "type": "uint256"
        }
      ],
      "payable": false,
      "stateMutability": "view",
      "type": "function"
    },
    {
      "inputs": [
        {
          "name": "_celerTokenAddress",
          "type": "address"
        },
        {
          "name": "_blockReward",
          "type": "uint256"
        }
      ],
      "payable": false,
      "stateMutability": "nonpayable",
      "type": "constructor"
    },
    {
      "anonymous": false,
      "inputs": [
        {
          "indexed": false,
          "name": "commitmentId",
          "type": "uint256"
        }
      ],
      "name": "NewCommitment",
      "type": "event"
    },
    {
      "constant": false,
      "inputs": [
        {
          "name": "_duration",
          "type": "uint256"
        }
      ],
      "name": "commitFund",
      "outputs": [],
      "payable": true,
      "stateMutability": "payable",
      "type": "function"
    },
    {
      "constant": false,
      "inputs": [
        {
          "name": "_commitmentId",
          "type": "uint256"
        }
      ],
      "name": "withdrawFund",
      "outputs": [],
      "payable": false,
      "stateMutability": "nonpayable",
      "type": "function"
    },
    {
      "constant": false,
      "inputs": [
        {
          "name": "_commitmentId",
          "type": "uint256"
        }
      ],
      "name": "withdrawReward",
      "outputs": [],
      "payable": false,
      "stateMutability": "nonpayable",
      "type": "function"
    }
  ],
  "bytecode": "0x608060405234801561001057600080fd5b50604051604080610cd88339810180604052604081101561003057600080fd5b810190808051906020019092919080519060200190929190505050816000806101000a81548173ffffffffffffffffffffffffffffffffffffffff021916908373ffffffffffffffffffffffffffffffffffffffff160217905550806001819055505050610c35806100a36000396000f3fe608060405260043610610062576000357c0100000000000000000000000000000000000000000000000000000000900463ffffffff1680630cee1725146100675780632ecf4103146100a2578063523a3f08146101345780637ddb23c21461016f575b600080fd5b34801561007357600080fd5b506100a06004803603602081101561008a57600080fd5b810190808035906020019092919050505061019d565b005b3480156100ae57600080fd5b506100fb600480360360408110156100c557600080fd5b81019080803573ffffffffffffffffffffffffffffffffffffffff1690602001909291908035906020019092919050505061043c565b60405180878152602001868152602001858152602001848152602001838152602001828152602001965050505050505060405180910390f35b34801561014057600080fd5b5061016d6004803603602081101561015757600080fd5b8101908080359060200190929190505050610485565b005b61019b6004803603602081101561018557600080fd5b8101908080359060200190929190505050610780565b005b806101a6610bd2565b600360003373ffffffffffffffffffffffffffffffffffffffff1673ffffffffffffffffffffffffffffffffffffffff168152602001908152602001600020600083815260200190815260200160002060c060405190810160405290816000820154815260200160018201548152602001600282015481526020016003820154815260200160048201548152602001600582015481525050905060008160200151141515156102bd576040517f08c379a00000000000000000000000000000000000000000000000000000000081526004018080602001828103825260158152602001807f636f6d6d69746d656e74206d757374206578697374000000000000000000000081525060200191505060405180910390fd5b428160200151101515610338576040517f08c379a000000000000000000000000000000000000000000000000000000000815260040180806020018281038252601b8152602001807f636f6d6d69746d656e74206c6f636b206d75737420657870697265000000000081525060200191505060405180910390fd5b610340610bd2565b600360003373ffffffffffffffffffffffffffffffffffffffff1673ffffffffffffffffffffffffffffffffffffffff168152602001908152602001600020600085815260200190815260200160002060c060405190810160405290816000820154815260200160018201548152602001600282015481526020016003820154815260200160048201548152602001600582015481525050905060008160600151905060008260600181815250503373ffffffffffffffffffffffffffffffffffffffff166108fc829081150290604051600060405180830381858888f19350505050158015610434573d6000803e3d6000fd5b505050505050565b6003602052816000526040600020602052806000526040600020600091509150508060000154908060010154908060020154908060030154908060040154908060050154905086565b8061048e610bd2565b600360003373ffffffffffffffffffffffffffffffffffffffff1673ffffffffffffffffffffffffffffffffffffffff168152602001908152602001600020600083815260200190815260200160002060c060405190810160405290816000820154815260200160018201548152602001600282015481526020016003820154815260200160048201548152602001600582015481525050905060008160200151141515156105a5576040517f08c379a00000000000000000000000000000000000000000000000000000000081526004018080602001828103825260158152602001807f636f6d6d69746d656e74206d757374206578697374000000000000000000000081525060200191505060405180910390fd5b428160200151101515610620576040517f08c379a000000000000000000000000000000000000000000000000000000000815260040180806020018281038252601b8152602001807f636f6d6d69746d656e74206c6f636b206d75737420657870697265000000000081525060200191505060405180910390fd5b610628610bd2565b600360003373ffffffffffffffffffffffffffffffffffffffff1673ffffffffffffffffffffffffffffffffffffffff168152602001908152602001600020600085815260200190815260200160002060c0604051908101604052908160008201548152602001600182015481526020016002820154815260200160038201548152602001600482015481526020016005820154815250509050600080905060006106fa6106e784600001518560200151610b2790919063ffffffff16565b8460400151610b4990919063ffffffff16565b90506000836000015190505b836020015181101561076d5761075e61074f600260008481526020019081526020016000205461074185600154610b4990919063ffffffff16565b610b8790919063ffffffff16565b84610bb190919063ffffffff16565b92508080600101915050610706565b50818360a0018181525050505050505050565b60003411151561081e576040517f08c379a00000000000000000000000000000000000000000000000000000000081526004018080602001828103825260288152602001807f6d7573742073656e6420746865207472616e73636174696f6e2077697468206581526020017f74682076616c756500000000000000000000000000000000000000000000000081525060400191505060405180910390fd5b60008111801561082f575061016d81105b15156108c9576040517f08c379a00000000000000000000000000000000000000000000000000000000081526004018080602001828103825260278152602001807f6475726174696f6e206d7573742066616c6c20696e746f2074686520302d333681526020017f352072616e67650000000000000000000000000000000000000000000000000081525060400191505060405180910390fd5b6108d1610bd2565b600360003373ffffffffffffffffffffffffffffffffffffffff1673ffffffffffffffffffffffffffffffffffffffff168152602001908152602001600020600042815260200190815260200160002060c060405190810160405290816000820154815260200160018201548152602001600282015481526020016003820154815260200160048201548152602001600582015481525050905060008160200151141515610a0d576040517f08c379a000000000000000000000000000000000000000000000000000000000815260040180806020018281038252602a8152602001807f6f6e652074696d657374616d702063616e206f6e6c792068617665206f6e652081526020017f636f6d6d69746d656e740000000000000000000000000000000000000000000081525060400191505060405180910390fd5b6000610a386001610a2a6201518042610b8790919063ffffffff16565b610bb190919063ffffffff16565b90506000610a4f8483610bb190919063ffffffff16565b9050818360000181815250508083602001818152505034836040018181525050348360600181815250506000610a8e8534610b4990919063ffffffff16565b905060008390505b82811015610ae857610ac4826002600084815260200190815260200160002054610bb190919063ffffffff16565b60026000838152602001908152602001600020819055508080600101915050610a96565b507ff234da3258dbf8e5a4e39e1acffc5d2bedbd437738faf277c46c20c6556a0b2e426040518082815260200191505060405180910390a15050505050565b6000828211151515610b3857600080fd5b600082840390508091505092915050565b600080831415610b5c5760009050610b81565b60008284029050828482811515610b6f57fe5b04141515610b7c57600080fd5b809150505b92915050565b60008082111515610b9757600080fd5b60008284811515610ba457fe5b0490508091505092915050565b6000808284019050838110151515610bc857600080fd5b8091505092915050565b60c060405190810160405280600081526020016000815260200160008152602001600081526020016000815260200160008152509056fea165627a7a7230582046b7492057cdd826c7c7443f6396b62b29d61138d75cecc52634e81826015fd10029",
  "source": "pragma solidity ^0.5.0;\n\nimport \"openzeppelin-solidity/contracts/math/SafeMath.sol\";\nimport \"openzeppelin-solidity/contracts/token/ERC20/ERC20.sol\";\nimport \"openzeppelin-solidity/contracts/token/ERC20/SafeERC20.sol\";\n\ncontract PoLC {\n    using SafeERC20 for ERC20;\n    using SafeMath for uint256;\n\n    struct Commitment {\n        uint lockStart;\n        uint lockEnd;\n        uint lockedValue;\n        uint availableValue;\n        uint lendingValue;\n        uint withdrawedReward;\n    }\n\n    address private celerTokenAddress;\n    // reward payout for each block\n    uint private blockReward;\n    // mapping mining power by day\n    mapping(uint => uint) private powerByTime;\n    // mapping user address to its commitments\n    mapping(\n        address => mapping (uint => Commitment)\n    ) public commitmentsByUser;\n\n    constructor(address _celerTokenAddress, uint _blockReward) public {\n        celerTokenAddress = _celerTokenAddress;\n        blockReward = _blockReward;\n    }\n\n    event NewCommitment(uint commitmentId);\n\n    /**\n     * @dev check if the commitment lock has expired\n     * @param _commitmentId ID of the commitment\n     */\n    modifier lockExpired(uint _commitmentId) {\n        Commitment memory commitment = commitmentsByUser[msg.sender][_commitmentId];\n        require(\n            commitment.lockEnd != 0,\n            \"commitment must exist\"\n        );\n        require(\n            commitment.lockEnd < block.timestamp,\n            \"commitment lock must expire\"\n        );\n        _;\n    }\n\n   /**\n     * @dev Lock fund into the PoLC contract\n     * @param _duration lock-in duration by days\n     */\n    function commitFund(uint _duration) public payable {\n        require(\n            msg.value > 0,\n            \"must send the transcation with eth value\"\n        );\n        require(\n            _duration > 0 && _duration < 365,\n            \"duration must fall into the 0-365 range\"\n        );\n\n        Commitment memory commitment = commitmentsByUser[msg.sender][block.timestamp];\n        require(\n            commitment.lockEnd == 0,\n            \"one timestamp can only have one commitment\"\n        );\n\n        uint lockStart = block.timestamp.div(1 days).add(1);\n        uint lockEnd = lockStart.add(_duration);\n        commitment.lockStart = lockStart;\n        commitment.lockEnd = lockEnd;\n        commitment.lockedValue = msg.value;\n        commitment.availableValue = msg.value;\n\n        uint power = msg.value.mul(_duration);\n        for (uint i = lockStart; i < lockEnd; i++) {\n            powerByTime[i] = powerByTime[i].add(power);\n        }\n\n        emit NewCommitment(block.timestamp);\n    }\n\n  /**\n     * @dev withdraw all available fund in a commitment\n     * @param _commitmentId ID of the commitment\n     */\n    function withdrawFund(\n        uint _commitmentId\n    )\n        public\n        lockExpired(_commitmentId)\n    {\n        Commitment memory commitment = commitmentsByUser[msg.sender][_commitmentId];\n        uint availableValue = commitment.availableValue;\n        commitment.availableValue = 0;\n        msg.sender.transfer(availableValue);\n    }\n\n  /**\n     * @dev withdraw all available reward in a commitment\n     * @param _commitmentId ID of the commitment\n     */\n    function withdrawReward(\n        uint _commitmentId\n    )\n        public\n        lockExpired(_commitmentId)\n    {\n        Commitment memory commitment = commitmentsByUser[msg.sender][_commitmentId];\n        uint totalReward = 0;\n        uint power = commitment.lockedValue.mul(\n            commitment.lockEnd.sub(commitment.lockStart)\n        );\n        for (uint i = commitment.lockStart; i < commitment.lockEnd; i++) {\n            totalReward = totalReward.add(\n                blockReward.mul(power).div(powerByTime[i])\n            );\n        }\n\n        commitment.withdrawedReward = totalReward;\n        // ERC20(celerTokenAddress).safeTransferFrom(address(this), msg.sender, totalReward);\n    }\n}\n",
  "sourcePath": "/Users/Frank/mygit/celer/cEconomy/contracts/PoLC.sol",
  "compiler": {
    "name": "solc",
    "version": "0.5.0+commit.1d4f565a.Emscripten.clang"
  },
  "schemaVersion": "3.0.1",
  "updatedAt": "2019-01-14T23:47:30.032Z",
  "devdoc": {
    "methods": {
      "commitFund(uint256)": {
        "details": "Lock fund into the PoLC contract",
        "params": {
          "_duration": "lock-in duration by days"
        }
      },
      "withdrawFund(uint256)": {
        "details": "withdraw all available fund in a commitment",
        "params": {
          "_commitmentId": "ID of the commitment"
        }
      },
      "withdrawReward(uint256)": {
        "details": "withdraw all available reward in a commitment",
        "params": {
          "_commitmentId": "ID of the commitment"
        }
      }
    }
  },
  "userdoc": {
    "methods": {}
  }
}